{"contracts/ZKStampsPOAP.sol":{"ZKStampsPOAP":{"abi":[{"inputs":[{"internalType":"string","name":"name","type":"string"},{"internalType":"string","name":"symbol","type":"string"},{"internalType":"string","name":"baseURI","type":"string"}],"stateMutability":"nonpayable","type":"constructor"},{"anonymous":false,"inputs":[{"indexed":true,"internalType":"address","name":"owner","type":"address"},{"indexed":true,"internalType":"address","name":"approved","type":"address"},{"indexed":true,"internalType":"uint256","name":"tokenId","type":"uint256"}],"name":"Approval","type":"event"},{"anonymous":false,"inputs":[{"indexed":true,"internalType":"address","name":"owner","type":"address"},{"indexed":true,"internalType":"address","name":"operator","type":"address"},{"indexed":false,"internalType":"bool","name":"approved","type":"bool"}],"name":"ApprovalForAll","type":"event"},{"anonymous":false,"inputs":[{"indexed":true,"internalType":"address","name":"previousOwner","type":"address"},{"indexed":true,"internalType":"address","name":"newOwner","type":"address"}],"name":"OwnershipTransferred","type":"event"},{"anonymous":false,"inputs":[{"indexed":true,"internalType":"address","name":"to","type":"address"},{"indexed":true,"internalType":"uint256","name":"tokenId","type":"uint256"},{"indexed":false,"internalType":"string","name":"countryCode","type":"string"},{"indexed":false,"internalType":"string","name":"countryName","type":"string"},{"indexed":false,"internalType":"string","name":"coordinates","type":"string"}],"name":"POAPMinted","type":"event"},{"anonymous":false,"inputs":[{"indexed":true,"internalType":"address","name":"from","type":"address"},{"indexed":true,"internalType":"address","name":"to","type":"address"},{"indexed":true,"internalType":"uint256","name":"tokenId","type":"uint256"}],"name":"Transfer","type":"event"},{"inputs":[{"internalType":"address","name":"to","type":"address"},{"internalType":"string","name":"countryCode","type":"string"},{"internalType":"string","name":"countryName","type":"string"},{"internalType":"string","name":"coordinates","type":"string"}],"name":"adminMintPOAP","outputs":[{"internalType":"uint256","name":"","type":"uint256"}],"stateMutability":"nonpayable","type":"function"},{"inputs":[{"internalType":"address","name":"to","type":"address"},{"internalType":"uint256","name":"tokenId","type":"uint256"}],"name":"approve","outputs":[],"stateMutability":"nonpayable","type":"function"},{"inputs":[{"internalType":"address","name":"owner","type":"address"}],"name":"balanceOf","outputs":[{"internalType":"uint256","name":"","type":"uint256"}],"stateMutability":"view","type":"function"},{"inputs":[],"name":"getAllCountries","outputs":[{"internalType":"string[]","name":"","type":"string[]"}],"stateMutability":"view","type":"function"},{"inputs":[{"internalType":"uint256","name":"tokenId","type":"uint256"}],"name":"getApproved","outputs":[{"internalType":"address","name":"","type":"address"}],"stateMutability":"view","type":"function"},{"inputs":[{"internalType":"address","name":"user","type":"address"}],"name":"getCountriesVisitedByUser","outputs":[{"internalType":"string[]","name":"","type":"string[]"}],"stateMutability":"view","type":"function"},{"inputs":[{"internalType":"uint256","name":"tokenId","type":"uint256"}],"name":"getPOAPData","outputs":[{"internalType":"string","name":"countryCode","type":"string"},{"internalType":"string","name":"countryName","type":"string"},{"internalType":"string","name":"coordinates","type":"string"},{"internalType":"uint256","name":"timestamp","type":"uint256"},{"internalType":"address","name":"minter","type":"address"}],"stateMutability":"view","type":"function"},{"inputs":[{"internalType":"address","name":"owner","type":"address"},{"internalType":"string","name":"countryCode","type":"string"}],"name":"hasVisitedCountry","outputs":[{"internalType":"bool","name":"","type":"bool"}],"stateMutability":"view","type":"function"},{"inputs":[{"internalType":"address","name":"owner","type":"address"},{"internalType":"address","name":"operator","type":"address"}],"name":"isApprovedForAll","outputs":[{"internalType":"bool","name":"","type":"bool"}],"stateMutability":"view","type":"function"},{"inputs":[{"internalType":"string","name":"countryCode","type":"string"},{"internalType":"string","name":"countryName","type":"string"},{"internalType":"string","name":"coordinates","type":"string"}],"name":"mintPOAP","outputs":[{"internalType":"uint256","name":"","type":"uint256"}],"stateMutability":"nonpayable","type":"function"},{"inputs":[],"name":"name","outputs":[{"internalType":"string","name":"","type":"string"}],"stateMutability":"view","type":"function"},{"inputs":[],"name":"owner","outputs":[{"internalType":"address","name":"","type":"address"}],"stateMutability":"view","type":"function"},{"inputs":[{"internalType":"uint256","name":"tokenId","type":"uint256"}],"name":"ownerOf","outputs":[{"internalType":"address","name":"","type":"address"}],"stateMutability":"view","type":"function"},{"inputs":[],"name":"renounceOwnership","outputs":[],"stateMutability":"nonpayable","type":"function"},{"inputs":[{"internalType":"address","name":"from","type":"address"},{"internalType":"address","name":"to","type":"address"},{"internalType":"uint256","name":"tokenId","type":"uint256"}],"name":"safeTransferFrom","outputs":[],"stateMutability":"nonpayable","type":"function"},{"inputs":[{"internalType":"address","name":"from","type":"address"},{"internalType":"address","name":"to","type":"address"},{"internalType":"uint256","name":"tokenId","type":"uint256"},{"internalType":"bytes","name":"data","type":"bytes"}],"name":"safeTransferFrom","outputs":[],"stateMutability":"nonpayable","type":"function"},{"inputs":[{"internalType":"address","name":"operator","type":"address"},{"internalType":"bool","name":"approved","type":"bool"}],"name":"setApprovalForAll","outputs":[],"stateMutability":"nonpayable","type":"function"},{"inputs":[{"internalType":"string","name":"baseURI","type":"string"}],"name":"setBaseURI","outputs":[],"stateMutability":"nonpayable","type":"function"},{"inputs":[{"internalType":"bytes4","name":"interfaceId","type":"bytes4"}],"name":"supportsInterface","outputs":[{"internalType":"bool","name":"","type":"bool"}],"stateMutability":"view","type":"function"},{"inputs":[],"name":"symbol","outputs":[{"internalType":"string","name":"","type":"string"}],"stateMutability":"view","type":"function"},{"inputs":[{"internalType":"uint256","name":"index","type":"uint256"}],"name":"tokenByIndex","outputs":[{"internalType":"uint256","name":"","type":"uint256"}],"stateMutability":"view","type":"function"},{"inputs":[{"internalType":"address","name":"owner","type":"address"},{"internalType":"uint256","name":"index","type":"uint256"}],"name":"tokenOfOwnerByIndex","outputs":[{"internalType":"uint256","name":"","type":"uint256"}],"stateMutability":"view","type":"function"},{"inputs":[{"internalType":"uint256","name":"tokenId","type":"uint256"}],"name":"tokenURI","outputs":[{"internalType":"string","name":"","type":"string"}],"stateMutability":"view","type":"function"},{"inputs":[],"name":"totalSupply","outputs":[{"internalType":"uint256","name":"","type":"uint256"}],"stateMutability":"view","type":"function"},{"inputs":[{"internalType":"address","name":"from","type":"address"},{"internalType":"address","name":"to","type":"address"},{"internalType":"uint256","name":"tokenId","type":"uint256"}],"name":"transferFrom","outputs":[],"stateMutability":"nonpayable","type":"function"},{"inputs":[{"internalType":"address","name":"newOwner","type":"address"}],"name":"transferOwnership","outputs":[],"stateMutability":"nonpayable","type":"function"}],"evm":{"bytecode":{"linkReferences":{},"object":"608060405234620004bc5762002958803803806200001d81620004c1565b9283398101606082820312620004bc5781516001600160401b039190828111620004bc57816200004f918501620004e7565b9060209384810151848111620004bc57826200006d918301620004e7565b916040820151858111620004bc57620000879201620004e7565b825191848311620004a6576000908154936001958686811c961680156200049b575b89871014620003a5578190601f9687811162000448575b508990878311600114620003e4578592620003d8575b5050600019600383901b1c191690861b1782555b805190868211620003c45785548681811c91168015620003b9575b89821014620003a55790818684931162000352575b508890868311600114620002ee578492620002e2575b5050600019600383901b1c191690851b1784555b600a8054336001600160a01b0319821681179092556001600160a01b03167f8be0079c531659141344cd1fd0a4f28419497f9722a3daafe3b4186f6b6457e08380a38151948511620002ce57600b548481811c91168015620002c3575b87821014620002af5783811162000266575b5085928511600114620001fd579394508492919083620001f1575b50501b916000199060031b1c191617600b555b6040516123fe90816200055a8239f35b015192503880620001ce565b600b815285812093958591601f198316915b888383106200024b575050501062000231575b505050811b01600b55620001e1565b015160001960f88460031b161c1916905538808062000222565b8587015188559096019594850194879350908101906200020f565b600b82528682208480880160051c820192898910620002a5575b0160051c019085905b82811062000299575050620001b3565b83815501859062000289565b9250819262000280565b634e487b7160e01b82526022600452602482fd5b90607f1690620001a1565b634e487b7160e01b81526041600452602490fd5b01519050388062000130565b8785528985208894509190601f198416865b8c8282106200033b575050841162000321575b505050811b01845562000144565b015160001960f88460031b161c1916905538808062000313565b8385015186558b9790950194938401930162000300565b9091508684528884208680850160051c8201928b86106200039b575b918991869594930160051c01915b8281106200038c5750506200011a565b8681558594508991016200037c565b925081926200036e565b634e487b7160e01b84526022600452602484fd5b90607f169062000105565b634e487b7160e01b83526041600452602483fd5b015190503880620000d6565b8580528a86208994509190601f198416875b8d82821062000431575050841162000417575b505050811b018255620000ea565b015160001960f88460031b161c1916905538808062000409565b8385015186558c97909501949384019301620003f6565b9091508480528985208780850160051c8201928c861062000491575b918a91869594930160051c01915b82811062000482575050620000c0565b8781558594508a910162000472565b9250819262000464565b95607f1695620000a9565b634e487b7160e01b600052604160045260246000fd5b600080fd5b6040519190601f01601f191682016001600160401b03811183821017620004a657604052565b919080601f84011215620004bc5782516001600160401b038111620004a6576020906200051d601f8201601f19168301620004c1565b92818452828287010111620004bc5760005b8181106200054557508260009394955001015290565b85810183015184820184015282016200052f56fe60806040908082526004908136101561001757600080fd5b600090813560e01c90816301ffc9a7146115225750806306fdde031461147a578063081812fc14611459578063095ea7b3146112ea5780630d4bf50d14611261578063170c788d1461109557806318160ddd146110765780631ae1a47914610f3057806323b872dd14610f065780632f745c5914610e5957806342842e0e14610e0b5780634f6ccce714610d7957806355f804b314610bea5780636352211e14610bb857806370a0823114610b8b578063715018a614610b2e5780638da5cb5b14610b0557806395d89b4114610a2257806399a681cf146109ba578063a22cb465146108ef578063b88d4fde1461088b578063c87b56dd14610596578063de9aeb311461039b578063e985e9c514610349578063f2fde38b1461027d5763f728ff4b1461014357600080fd5b3461027a57602036600319011261027a5781356000818152600260205260409020546001600160a01b0316156102255792816101fb9482949352600c602052209161021681519161019383611683565b61019c856118f5565b83526101aa600186016118f5565b94602084019586526102096101c1600283016118f5565b91828487015260038101549687606088015260018060a01b039101541694856080820152519651835198899860a08a5260a08a01906115cb565b9088820360208a01526115cb565b91868303908701526115cb565b91606084015260808301520390f35b835162461bcd60e51b8152602081850152602960248201527f5a4b5374616d7073504f41503a20517565727920666f72206e6f6e657869737460448201526832b73a103a37b5b2b760b91b6064820152608490fd5b80fd5b50919034610345576020366003190112610345576102996115f0565b906102a261177d565b6001600160a01b039182169283156102f3575050600a54826001600160601b0360a01b821617600a55167f8be0079c531659141344cd1fd0a4f28419497f9722a3daafe3b4186f6b6457e08380a380f35b906020608492519162461bcd60e51b8352820152602660248201527f4f776e61626c653a206e6577206f776e657220697320746865207a65726f206160448201526564647265737360d01b6064820152fd5b8280fd5b50823461039757806003193601126103975760ff816020936103696115f0565b61037161160b565b6001600160a01b0391821683526005875283832091168252855220549151911615158152f35b5080fd5b508234610397576080366003190112610397576103b66115f0565b9267ffffffffffffffff602435818111610592576103d7903690840161172a565b60443582811161058e576103ee903690850161172a565b9160643590811161058e57610406903690850161172a565b61040e61177d565b600854956001870180971161057b57918694929186869593610430878c61226b565b815161043b81611683565b84815260209b8c978883019288845285810187815260608201904282526080830195600160a01b600190038096169d8e88528852600c8d5288882093516104829085611fa0565b516104909060018501611fa0565b5161049e9060028401611fa0565b516003820155019151166001600160601b0360a01b825416179055868152600d8652206104cb90836120b0565b9060ff19918281541660011790558751918351928681818701956104f08183896115a8565b8101600f8152030190205460ff161595610539937fbfea28971e5b14dc726e61c1e9f2313cac35e2310466883d141839096037037a97610542575b5050508751938493846121e8565b0390a351908152f35b60019161056291610552886121a3565b8c51809381928a519283916115a8565b8101600f815203019020918254161790558a8a8161052b565b634e487b7160e01b815260118552602490fd5b8580fd5b8480fd5b509034610397576020918260031936011261027a5781356000818152600260205260409020546105d0906001600160a01b0316151561184c565b8451928291600b546105e1816118bb565b80875286888101956001938a8582169182600014610870575050600114610815575b61060f925003876116b5565b8551156107d2578694938893909291829186907a184f03e93ff9f4daa797ed6e38ed64bf6a1f01000000000000000084818110156107c5575b5050886d04ee2d6d415b85acef8100000000808710156107b6575b5050662386f26fc10000808610156107a7575b506305f5e10080861015610798575b506127108086101561078c575b5050606484101561077e575b60219082600a80961015610777575b939291906106d48382016106cc6106c3826116d7565b9a519a8b6116b5565b808a526116d7565b888b019990601f1901368b3750870101905b610741575b505050509361072c92610711949261072061073d978a51978895518092888801906115a8565b840191518093868401906115a8565b010380845201826116b5565b925b519282849384528301906115cb565b0390f35b600019019083906f181899199a1a9b1b9c1cb0b131b232b360811b8282061a835304918215610772579190826106e6565b6106eb565b01826106ad565b60649093049260020161069e565b90940493013880610692565b60089192950494019038610685565b60109192950494019038610676565b90919295049401908838610663565b0494508691503880610648565b5050949392505082519082820182811067ffffffffffffffff821117610802578452815292509061073d9061072e565b634e487b7160e01b825260418652602482fd5b5050600b8652868887847f0175b7a638427703f0dbe7bb9bbf987a2551717b34e79f33b5b1008d1fa01db95b85831061085757505061060f9350820101610603565b80919294505483858d0101520191018990848a93610841565b60ff1916895261060f94151560051b84010191506106039050565b509034610397576080366003190112610397576108a66115f0565b6108ae61160b565b9060643567ffffffffffffffff81116105925736602382011215610592576108ec938160246108e2933693013591016116f3565b9160443591611a3b565b80f35b5091346103455780600319360112610345576109096115f0565b9060243591821515809303610592576001600160a01b0316923384146109785750338452600560205280842083855260205280842060ff1981541660ff8416179055519081527f17307eab39ab6107e8899845ad3d59bd9653f200f220920489ca2b5937696c3160203392a380f35b6020606492519162461bcd60e51b8352820152601960248201527f4552433732313a20617070726f766520746f2063616c6c6572000000000000006044820152fd5b509190346103455781600319360112610345576109d56115f0565b9060243567ffffffffffffffff81116105925791836020956109ff610a179460ff9636910161172a565b6001600160a01b039093168152600d875220906120b0565b541690519015158152f35b508234610397578160031936011261039757805190826001805491610a46836118bb565b80865292828116908115610add5750600114610a81575b505050610a6f8261073d9403836116b5565b519182916020835260208301906115cb565b94508085527fb10e2d527612073b26eecdfd717e6a320cf44b4afac2b0732d9fcbe2b7fa0cf65b828610610ac557505050610a6f82602061073d9582010194610a5d565b80546020878701810191909152909501948101610aa8565b61073d975086935060209250610a6f94915060ff191682840152151560051b82010194610a5d565b508234610397578160031936011261039757600a5490516001600160a01b039091168152602090f35b503461027a578060031936011261027a57610b4761177d565b600a80546001600160a01b0319811690915581906001600160a01b03167f8be0079c531659141344cd1fd0a4f28419497f9722a3daafe3b4186f6b6457e08280a380f35b50823461039757602036600319011261039757602090610bb1610bac6115f0565b6117d5565b9051908152f35b5082903461027a57602036600319011261027a5750610bd960209235611898565b90516001600160a01b039091168152f35b503461027a576020806003193601126103975767ffffffffffffffff908335828111610d7557610c1d903690860161172a565b93610c2661177d565b8451928311610d625750610c3b600b546118bb565b601f8111610d00575b5080601f8311600114610c7f57508293829392610c74575b50508160011b916000199060031b1c191617600b5580f35b015190508380610c5c565b600b8452601f198316947f0175b7a638427703f0dbe7bb9bbf987a2551717b34e79f33b5b1008d1fa01db9929185905b878210610ce8575050836001959610610ccf575b505050811b01600b5580f35b015160001960f88460031b161c19169055838080610cc3565b80600185968294968601518155019501930190610caf565b600b84527f0175b7a638427703f0dbe7bb9bbf987a2551717b34e79f33b5b1008d1fa01db9601f840160051c810191838510610d58575b601f0160051c01905b818110610d4d5750610c44565b848155600101610d40565b9091508190610d37565b634e487b7160e01b845260419052602483fd5b8380fd5b503461027a57602036600319011261027a5750803590600854821015610db357602083610da584611f69565b91905490519160031b1c8152f35b608490602084519162461bcd60e51b8352820152602c60248201527f455243373231456e756d657261626c653a20676c6f62616c20696e646578206f60448201526b7574206f6620626f756e647360a01b6064820152fd5b50823461039757610e1b36611748565b91835193602085019085821067ffffffffffffffff831117610e46576108ec96975052858452611a3b565b634e487b7160e01b875260418852602487fd5b5082903461027a578160031936011261027a57610e746115f0565b60243590610e81816117d5565b821015610eaf576001600160a01b031682526006602090815283832091835290815290829020548251908152f35b835162461bcd60e51b8152602081870152602b60248201527f455243373231456e756d657261626c653a206f776e657220696e646578206f7560448201526a74206f6620626f756e647360a81b6064820152608490fd5b503461027a576108ec610f1836611748565b91610f2b610f268433611ad6565b6119d9565b611b9e565b83823461027a576020918260031936011261039757610f4d6115f0565b600e54936001600160a01b03909116908390815b8681106110345750610f7285612177565b94610f7f855196876116b5565b808652610f8e601f1991612177565b0181835b828110611024575050508192825b878110610fb45785518061073d8982611621565b818452600d835260ff610fd2878620610fcc84611f1c565b506120e5565b5416610fe7575b610fe2906120d6565b610fa0565b9361101c610fe291611001610ffb88611f1c565b506118f5565b61100b828b61218f565b52611016818a61218f565b506120d6565b949050610fd9565b606082828a010152018290610f92565b838352600d825260ff61104c868520610fcc84611f1c565b5416611061575b61105c906120d6565b610f61565b9461106e61105c916120d6565b959050611053565b5082346103975781600319360112610397576020906008549051908152f35b5082346103975760603660031901126103975767ffffffffffffffff8335818111610d75576110c7903690860161172a565b90602435818111610592576110df903690870161172a565b90604435908111610592576110f7903690870161172a565b90600854946001860180961161124e57917fbfea28971e5b14dc726e61c1e9f2313cac35e2310466883d141839096037037a916111ca8688969561113b883361226b565b8782519b6111488d611683565b888d5260209c8d61119981830189815261118f888501918c8352600c60608701954287526080880199338b528b52526111858a8a20965187611fa0565b5160018601611fa0565b5160028401611fa0565b516003820155019060018060a01b039051166001600160601b0360a01b825416179055338152600d8b5220856120b0565b60ff199060018282541617905588875160ff8751918381818b01946111f08183886115a8565b8101600f815203019020541615611215575b50505061053986519283923396846121e8565b60019161123591611225896121a3565b8a51809381928b519283916115a8565b8101600f81520301902091825416179055888881611202565b634e487b7160e01b815260118752602490fd5b83823461027a578060031936011261027a57600e5461127f81612177565b9161128c845193846116b5565b818352600e815260207fbb7b4a454dc3493923482f07822329ed19e8244eff582cc204f8554c3620c3fd8185015b8484106112ce5786518061073d8882611621565b60018381926112dc856118f5565b8152019201930192906112ba565b509190346103455781600319360112610345576113056115f0565b6024359290916001600160a01b039190828061132087611898565b1694169380851461140c578033149081156113ed575b501561138557848652602052842080546001600160a01b0319168317905561135d83611898565b167f8c5be1e5ebec7d5bd14f71427d1e84f3dd0314c0f7b2291e5b200ac8c7c3b9258480a480f35b6020608492519162461bcd60e51b8352820152603d60248201527f4552433732313a20617070726f76652063616c6c6572206973206e6f7420746f60448201527f6b656e206f776e6572206f7220617070726f76656420666f7220616c6c0000006064820152fd5b90508652600560205281862033875260205260ff828720541638611336565b506020608492519162461bcd60e51b8352820152602160248201527f4552433732313a20617070726f76616c20746f2063757272656e74206f776e656044820152603960f91b6064820152fd5b5082903461027a57602036600319011261027a5750610bd96020923561199b565b50823461039757816003193601126103975780519082805461149b816118bb565b80855291600191808316908115610add57506001146114c657505050610a6f8261073d9403836116b5565b80809650527f290decd9548b62a8d60345a988386fc84ba6bc95484008f6362f93160ef3e5635b82861061150a57505050610a6f82602061073d9582010194610a5d565b805460208787018101919091529095019481016114ed565b90508234610345576020366003190112610345573563ffffffff60e01b8116809103610345576020925063780e9d6360e01b8114908115611565575b5015158152f35b6380ac58cd60e01b811491508115611597575b8115611586575b508361155e565b6301ffc9a760e01b1490508361157f565b635b5e139f60e01b81149150611578565b60005b8381106115bb5750506000910152565b81810151838201526020016115ab565b906020916115e4815180928185528580860191016115a8565b601f01601f1916010190565b600435906001600160a01b038216820361160657565b600080fd5b602435906001600160a01b038216820361160657565b602080820190808352835180925260408301928160408460051b8301019501936000915b8483106116555750505050505090565b9091929394958480611673600193603f198682030187528a516115cb565b9801930193019194939290611645565b60a0810190811067ffffffffffffffff82111761169f57604052565b634e487b7160e01b600052604160045260246000fd5b90601f8019910116810190811067ffffffffffffffff82111761169f57604052565b67ffffffffffffffff811161169f57601f01601f191660200190565b9291926116ff826116d7565b9161170d60405193846116b5565b829481845281830111611606578281602093846000960137010152565b9080601f8301121561160657816020611745933591016116f3565b90565b6060906003190112611606576001600160a01b0390600435828116810361160657916024359081168103611606579060443590565b600a546001600160a01b0316330361179157565b606460405162461bcd60e51b815260206004820152602060248201527f4f776e61626c653a2063616c6c6572206973206e6f7420746865206f776e65726044820152fd5b6001600160a01b031680156117f557600052600360205260406000205490565b60405162461bcd60e51b815260206004820152602960248201527f4552433732313a2061646472657373207a65726f206973206e6f7420612076616044820152683634b21037bbb732b960b91b6064820152608490fd5b1561185357565b60405162461bcd60e51b815260206004820152601860248201527f4552433732313a20696e76616c696420746f6b656e20494400000000000000006044820152606490fd5b6000908152600260205260409020546001600160a01b031661174581151561184c565b90600182811c921680156118eb575b60208310146118d557565b634e487b7160e01b600052602260045260246000fd5b91607f16916118ca565b9060405191826000825492611909846118bb565b9081845260019485811690816000146119785750600114611935575b5050611933925003836116b5565b565b9093915060005260209081600020936000915b81831061196057505061193393508201013880611925565b85548884018501529485019487945091830191611948565b91505061193394506020925060ff191682840152151560051b8201013880611925565b6000818152600260205260409020546119be906001600160a01b0316151561184c565b6000908152600460205260409020546001600160a01b031690565b156119e057565b60405162461bcd60e51b815260206004820152602d60248201527f4552433732313a2063616c6c6572206973206e6f7420746f6b656e206f776e6560448201526c1c881bdc88185c1c1c9bdd9959609a1b6064820152608490fd5b90611a5f939291611a4f610f268433611ad6565b611a5a838383611b9e565b611dfb565b15611a6657565b60405162461bcd60e51b815280611a7f60048201611a83565b0390fd5b60809060208152603260208201527f4552433732313a207472616e7366657220746f206e6f6e20455243373231526560408201527131b2b4bb32b91034b6b83632b6b2b73a32b960711b60608201520190565b906001600160a01b038080611aea84611898565b16931691838314938415611b1d575b508315611b07575b50505090565b611b139192935061199b565b1614388080611b01565b909350600052600560205260406000208260005260205260ff604060002054169238611af9565b15611b4b57565b60405162461bcd60e51b815260206004820152602560248201527f4552433732313a207472616e736665722066726f6d20696e636f72726563742060448201526437bbb732b960d91b6064820152608490fd5b611bc291611bab84611898565b6001600160a01b0393848416939185168414611b44565b838216938415611daa57839182611cf1575090506008549085600052600960205281604060002055600160401b82101561169f57611c4392611c2a87611c0f856001899701600855611f69565b90919082549060031b600019811b9283911b16911916179055565b828603611cbe575b50611c3c86611898565b1614611b44565b7fddf252ad1be2c89b69c2b068fc378daa952ba7f163c4a11628f55a4df523b3ef60008481526004602052604081206001600160601b0360a01b9081815416905583825260036020526040822060001981540190558482526040822060018154019055858252600260205284604083209182541617905580a4565b611cc7906117d5565b60406000878152600660205281812083825260205288828220558881526007602052205538611c32565b858303611d03575b50611c4392611c2a565b611d0e9192506117d5565b600019810191908211611d9457611c439284926000908882526020906007825260409182842054828103611d5d575b508a84528383812055868452600681528284209184525281205592611cf9565b8785526006825283852083865282528385205488865260068352848620828752835280858720558552600782528385205538611d3d565b634e487b7160e01b600052601160045260246000fd5b60405162461bcd60e51b8152602060048201526024808201527f4552433732313a207472616e7366657220746f20746865207a65726f206164646044820152637265737360e01b6064820152608490fd5b9293600093909291803b15611f1157948491611e559660405180948193630a85bd0160e11b9788845233600485015260018060a01b0380921660248501526044840152608060648401528260209b8c9760848301906115cb565b0393165af1849181611ed1575b50611ec0575050503d600014611eb8573d611e7c816116d7565b90611e8a60405192836116b5565b81528091833d92013e5b80519182611eb55760405162461bcd60e51b815280611a7f60048201611a83565b01fd5b506060611e94565b6001600160e01b0319161492509050565b9091508581813d8311611f0a575b611ee981836116b5565b8101031261059257516001600160e01b031981168103610592579038611e62565b503d611edf565b505050915050600190565b600e54811015611f5357600e6000527fbb7b4a454dc3493923482f07822329ed19e8244eff582cc204f8554c3620c3fd0190600090565b634e487b7160e01b600052603260045260246000fd5b600854811015611f535760086000527ff3f7a9fe364faab93b216da50a3214154f22a0a2b415b23a84c8169e8b636ee30190600090565b919091825167ffffffffffffffff811161169f57611fbe82546118bb565b601f8111612068575b50602080601f8311600114612004575081929394600092611ff9575b50508160011b916000199060031b1c1916179055565b015190503880611fe3565b90601f198316958460005282600020926000905b88821061205057505083600195969710612037575b505050811b019055565b015160001960f88460031b161c1916905538808061202d565b80600185968294968601518155019501930190612018565b600083815260208120601f840160051c810192602085106120a6575b601f0160051c01915b82811061209b575050611fc7565b81815560010161208d565b9092508290612084565b6020906120ca9282604051948386809551938492016115a8565b82019081520301902090565b6000198114611d945760010190565b90604051809260009080546120f9816118bb565b9160019180831690811561215d575060011461211f575b50505060209281520301902090565b60009081526020808220969450915b8382106121475750505060209350820190923880612110565b865488830152958601958795509082019061212e565b60ff19168652505050801515028201905060203880612110565b67ffffffffffffffff811161169f5760051b60200190565b8051821015611f535760209160051b010190565b600e54600160401b81101561169f578060016121c29201600e55611f1c565b9190916121d25761193391611fa0565b634e487b7160e01b600052600060045260246000fd5b916122119061220361174595936060865260608601906115cb565b9084820360208601526115cb565b9160408184039101526115cb565b1561222657565b60405162461bcd60e51b815260206004820152601c60248201527f4552433732313a20746f6b656e20616c7265616479206d696e746564000000006044820152606490fd5b6001600160a01b038116908115612384576000838152600260205260409020546122a1906001600160a01b031615155b1561221f565b600854600091848352602090600982526040928084862055600160401b8110156123705760029291610bac88611c0f8460016122e09601600855611f69565b8585526006825283852081865282528385208790558685526007825283852055600086815260026020526040902054612323906001600160a01b0316151561229b565b848452600381528284208054600101905585845252812080546001600160a01b031916831790557fddf252ad1be2c89b69c2b068fc378daa952ba7f163c4a11628f55a4df523b3ef8180a4565b634e487b7160e01b85526041600452602485fd5b606460405162461bcd60e51b815260206004820152602060248201527f4552433732313a206d696e7420746f20746865207a65726f20616464726573736044820152fdfea2646970667358221220b2bb6533f02c586e9d0e70477b99644d895dbfe3ab867dfc0121776d6d79794c64736f6c63430008110033","opcodes":"PUSH1 0x80 PUSH1 0x40 MSTORE CALLVALUE PUSH3 0x4BC JUMPI PUSH3 0x2958 DUP1 CODESIZE SUB DUP1 PUSH3 0x1D DUP2 PUSH3 0x4C1 JUMP JUMPDEST SWAP3 DUP4 CODECOPY DUP2 ADD PUSH1 0x60 DUP3 DUP3 SUB SLT PUSH3 0x4BC JUMPI DUP2 MLOAD PUSH1 0x1 PUSH1 0x1 PUSH1 0x40 SHL SUB SWAP2 SWAP1 DUP3 DUP2 GT PUSH3 0x4BC JUMPI DUP2 PUSH3 0x4F SWAP2 DUP6 ADD PUSH3 0x4E7 JUMP JUMPDEST SWAP1 PUSH1 0x20 SWAP4 DUP5 DUP2 ADD MLOAD DUP5 DUP2 GT PUSH3 0x4BC JUMPI DUP3 PUSH3 0x6D SWAP2 DUP4 ADD PUSH3 0x4E7 JUMP JUMPDEST SWAP2 PUSH1 0x40 DUP3 ADD MLOAD DUP6 DUP2 GT PUSH3 0x4BC JUMPI PUSH3 0x87 SWAP3 ADD PUSH3 0x4E7 JUMP JUMPDEST DUP3 MLOAD SWAP2 DUP5 DUP4 GT PUSH3 0x4A6 JUMPI PUSH1 0x0 SWAP1 DUP2 SLOAD SWAP4 PUSH1 0x1 SWAP6 DUP7 DUP7 DUP2 SHR SWAP7 AND DUP1 ISZERO PUSH3 0x49B JUMPI JUMPDEST DUP10 DUP8 LT EQ PUSH3 0x3A5 JUMPI DUP2 SWAP1 PUSH1 0x1F SWAP7 DUP8 DUP2 GT PUSH3 0x448 JUMPI JUMPDEST POP DUP10 SWAP1 DUP8 DUP4 GT PUSH1 0x1 EQ PUSH3 0x3E4 JUMPI DUP6 SWAP3 PUSH3 0x3D8 JUMPI JUMPDEST POP POP PUSH1 0x0 NOT PUSH1 0x3 DUP4 SWAP1 SHL SHR NOT AND SWAP1 DUP7 SHL OR DUP3 SSTORE JUMPDEST DUP1 MLOAD SWAP1 DUP7 DUP3 GT PUSH3 0x3C4 JUMPI DUP6 SLOAD DUP7 DUP2 DUP2 SHR SWAP2 AND DUP1 ISZERO PUSH3 0x3B9 JUMPI JUMPDEST DUP10 DUP3 LT EQ PUSH3 0x3A5 JUMPI SWAP1 DUP2 DUP7 DUP5 SWAP4 GT PUSH3 0x352 JUMPI JUMPDEST POP DUP9 SWAP1 DUP7 DUP4 GT PUSH1 0x1 EQ PUSH3 0x2EE JUMPI DUP5 SWAP3 PUSH3 0x2E2 JUMPI JUMPDEST POP POP PUSH1 0x0 NOT PUSH1 0x3 DUP4 SWAP1 SHL SHR NOT AND SWAP1 DUP6 SHL OR DUP5 SSTORE JUMPDEST PUSH1 0xA DUP1 SLOAD CALLER PUSH1 0x1 PUSH1 0x1 PUSH1 0xA0 SHL SUB NOT DUP3 AND DUP2 OR SWAP1 SWAP3 SSTORE PUSH1 0x1 PUSH1 0x1 PUSH1 0xA0 SHL SUB AND PUSH32 0x8BE0079C531659141344CD1FD0A4F28419497F9722A3DAAFE3B4186F6B6457E0 DUP4 DUP1 LOG3 DUP2 MLOAD SWAP5 DUP6 GT PUSH3 0x2CE JUMPI PUSH1 0xB SLOAD DUP5 DUP2 DUP2 SHR SWAP2 AND DUP1 ISZERO PUSH3 0x2C3 JUMPI JUMPDEST DUP8 DUP3 LT EQ PUSH3 0x2AF JUMPI DUP4 DUP2 GT PUSH3 0x266 JUMPI JUMPDEST POP DUP6 SWAP3 DUP6 GT PUSH1 0x1 EQ PUSH3 0x1FD JUMPI SWAP4 SWAP5 POP DUP5 SWAP3 SWAP2 SWAP1 DUP4 PUSH3 0x1F1 JUMPI JUMPDEST POP POP SHL SWAP2 PUSH1 0x0 NOT SWAP1 PUSH1 0x3 SHL SHR NOT AND OR PUSH1 0xB SSTORE JUMPDEST PUSH1 0x40 MLOAD PUSH2 0x23FE SWAP1 DUP2 PUSH3 0x55A DUP3 CODECOPY RETURN JUMPDEST ADD MLOAD SWAP3 POP CODESIZE DUP1 PUSH3 0x1CE JUMP JUMPDEST PUSH1 0xB DUP2 MSTORE DUP6 DUP2 KECCAK256 SWAP4 SWAP6 DUP6 SWAP2 PUSH1 0x1F NOT DUP4 AND SWAP2 JUMPDEST DUP9 DUP4 DUP4 LT PUSH3 0x24B JUMPI POP POP POP LT PUSH3 0x231 JUMPI JUMPDEST POP POP POP DUP2 SHL ADD PUSH1 0xB SSTORE PUSH3 0x1E1 JUMP JUMPDEST ADD MLOAD PUSH1 0x0 NOT PUSH1 0xF8 DUP5 PUSH1 0x3 SHL AND SHR NOT AND SWAP1 SSTORE CODESIZE DUP1 DUP1 PUSH3 0x222 JUMP JUMPDEST DUP6 DUP8 ADD MLOAD DUP9 SSTORE SWAP1 SWAP7 ADD SWAP6 SWAP5 DUP6 ADD SWAP5 DUP8 SWAP4 POP SWAP1 DUP2 ADD SWAP1 PUSH3 0x20F JUMP JUMPDEST PUSH1 0xB DUP3 MSTORE DUP7 DUP3 KECCAK256 DUP5 DUP1 DUP9 ADD PUSH1 0x5 SHR DUP3 ADD SWAP3 DUP10 DUP10 LT PUSH3 0x2A5 JUMPI JUMPDEST ADD PUSH1 0x5 SHR ADD SWAP1 DUP6 SWAP1 JUMPDEST DUP3 DUP2 LT PUSH3 0x299 JUMPI POP POP PUSH3 0x1B3 JUMP JUMPDEST DUP4 DUP2 SSTORE ADD DUP6 SWAP1 PUSH3 0x289 JUMP JUMPDEST SWAP3 POP DUP2 SWAP3 PUSH3 0x280 JUMP JUMPDEST PUSH4 0x4E487B71 PUSH1 0xE0 SHL DUP3 MSTORE PUSH1 0x22 PUSH1 0x4 MSTORE PUSH1 0x24 DUP3 REVERT JUMPDEST SWAP1 PUSH1 0x7F AND SWAP1 PUSH3 0x1A1 JUMP JUMPDEST PUSH4 0x4E487B71 PUSH1 0xE0 SHL DUP2 MSTORE PUSH1 0x41 PUSH1 0x4 MSTORE PUSH1 0x24 SWAP1 REVERT JUMPDEST ADD MLOAD SWAP1 POP CODESIZE DUP1 PUSH3 0x130 JUMP JUMPDEST DUP8 DUP6 MSTORE DUP10 DUP6 KECCAK256 DUP9 SWAP5 POP SWAP2 SWAP1 PUSH1 0x1F NOT DUP5 AND DUP7 JUMPDEST DUP13 DUP3 DUP3 LT PUSH3 0x33B JUMPI POP POP DUP5 GT PUSH3 0x321 JUMPI JUMPDEST POP POP POP DUP2 SHL ADD DUP5 SSTORE PUSH3 0x144 JUMP JUMPDEST ADD MLOAD PUSH1 0x0 NOT PUSH1 0xF8 DUP5 PUSH1 0x3 SHL AND SHR NOT AND SWAP1 SSTORE CODESIZE DUP1 DUP1 PUSH3 0x313 JUMP JUMPDEST DUP4 DUP6 ADD MLOAD DUP7 SSTORE DUP12 SWAP8 SWAP1 SWAP6 ADD SWAP5 SWAP4 DUP5 ADD SWAP4 ADD PUSH3 0x300 JUMP JUMPDEST SWAP1 SWAP2 POP DUP7 DUP5 MSTORE DUP9 DUP5 KECCAK256 DUP7 DUP1 DUP6 ADD PUSH1 0x5 SHR DUP3 ADD SWAP3 DUP12 DUP7 LT PUSH3 0x39B JUMPI JUMPDEST SWAP2 DUP10 SWAP2 DUP7 SWAP6 SWAP5 SWAP4 ADD PUSH1 0x5 SHR ADD SWAP2 JUMPDEST DUP3 DUP2 LT PUSH3 0x38C JUMPI POP POP PUSH3 0x11A JUMP JUMPDEST DUP7 DUP2 SSTORE DUP6 SWAP5 POP DUP10 SWAP2 ADD PUSH3 0x37C JUMP JUMPDEST SWAP3 POP DUP2 SWAP3 PUSH3 0x36E JUMP JUMPDEST PUSH4 0x4E487B71 PUSH1 0xE0 SHL DUP5 MSTORE PUSH1 0x22 PUSH1 0x4 MSTORE PUSH1 0x24 DUP5 REVERT JUMPDEST SWAP1 PUSH1 0x7F AND SWAP1 PUSH3 0x105 JUMP JUMPDEST PUSH4 0x4E487B71 PUSH1 0xE0 SHL DUP4 MSTORE PUSH1 0x41 PUSH1 0x4 MSTORE PUSH1 0x24 DUP4 REVERT JUMPDEST ADD MLOAD SWAP1 POP CODESIZE DUP1 PUSH3 0xD6 JUMP JUMPDEST DUP6 DUP1 MSTORE DUP11 DUP7 KECCAK256 DUP10 SWAP5 POP SWAP2 SWAP1 PUSH1 0x1F NOT DUP5 AND DUP8 JUMPDEST DUP14 DUP3 DUP3 LT PUSH3 0x431 JUMPI POP POP DUP5 GT PUSH3 0x417 JUMPI JUMPDEST POP POP POP DUP2 SHL ADD DUP3 SSTORE PUSH3 0xEA JUMP JUMPDEST ADD MLOAD PUSH1 0x0 NOT PUSH1 0xF8 DUP5 PUSH1 0x3 SHL AND SHR NOT AND SWAP1 SSTORE CODESIZE DUP1 DUP1 PUSH3 0x409 JUMP JUMPDEST DUP4 DUP6 ADD MLOAD DUP7 SSTORE DUP13 SWAP8 SWAP1 SWAP6 ADD SWAP5 SWAP4 DUP5 ADD SWAP4 ADD PUSH3 0x3F6 JUMP JUMPDEST SWAP1 SWAP2 POP DUP5 DUP1 MSTORE DUP10 DUP6 KECCAK256 DUP8 DUP1 DUP6 ADD PUSH1 0x5 SHR DUP3 ADD SWAP3 DUP13 DUP7 LT PUSH3 0x491 JUMPI JUMPDEST SWAP2 DUP11 SWAP2 DUP7 SWAP6 SWAP5 SWAP4 ADD PUSH1 0x5 SHR ADD SWAP2 JUMPDEST DUP3 DUP2 LT PUSH3 0x482 JUMPI POP POP PUSH3 0xC0 JUMP JUMPDEST DUP8 DUP2 SSTORE DUP6 SWAP5 POP DUP11 SWAP2 ADD PUSH3 0x472 JUMP JUMPDEST SWAP3 POP DUP2 SWAP3 PUSH3 0x464 JUMP JUMPDEST SWAP6 PUSH1 0x7F AND SWAP6 PUSH3 0xA9 JUMP JUMPDEST PUSH4 0x4E487B71 PUSH1 0xE0 SHL PUSH1 0x0 MSTORE PUSH1 0x41 PUSH1 0x4 MSTORE PUSH1 0x24 PUSH1 0x0 REVERT JUMPDEST PUSH1 0x0 DUP1 REVERT JUMPDEST PUSH1 0x40 MLOAD SWAP2 SWAP1 PUSH1 0x1F ADD PUSH1 0x1F NOT AND DUP3 ADD PUSH1 0x1 PUSH1 0x1 PUSH1 0x40 SHL SUB DUP2 GT DUP4 DUP3 LT OR PUSH3 0x4A6 JUMPI PUSH1 0x40 MSTORE JUMP JUMPDEST SWAP2 SWAP1 DUP1 PUSH1 0x1F DUP5 ADD SLT ISZERO PUSH3 0x4BC JUMPI DUP3 MLOAD PUSH1 0x1 PUSH1 0x1 PUSH1 0x40 SHL SUB DUP2 GT PUSH3 0x4A6 JUMPI PUSH1 0x20 SWAP1 PUSH3 0x51D PUSH1 0x1F DUP3 ADD PUSH1 0x1F NOT AND DUP4 ADD PUSH3 0x4C1 JUMP JUMPDEST SWAP3 DUP2 DUP5 MSTORE DUP3 DUP3 DUP8 ADD ADD GT PUSH3 0x4BC JUMPI PUSH1 0x0 JUMPDEST DUP2 DUP2 LT PUSH3 0x545 JUMPI POP DUP3 PUSH1 0x0 SWAP4 SWAP5 SWAP6 POP ADD ADD MSTORE SWAP1 JUMP JUMPDEST DUP6 DUP2 ADD DUP4 ADD MLOAD DUP5 DUP3 ADD DUP5 ADD MSTORE DUP3 ADD PUSH3 0x52F JUMP INVALID PUSH1 0x80 PUSH1 0x40 SWAP1 DUP1 DUP3 MSTORE PUSH1 0x4 SWAP1 DUP2 CALLDATASIZE LT ISZERO PUSH2 0x17 JUMPI PUSH1 0x0 DUP1 REVERT JUMPDEST PUSH1 0x0 SWAP1 DUP2 CALLDATALOAD PUSH1 0xE0 SHR SWAP1 DUP2 PUSH4 0x1FFC9A7 EQ PUSH2 0x1522 JUMPI POP DUP1 PUSH4 0x6FDDE03 EQ PUSH2 0x147A JUMPI DUP1 PUSH4 0x81812FC EQ PUSH2 0x1459 JUMPI DUP1 PUSH4 0x95EA7B3 EQ PUSH2 0x12EA JUMPI DUP1 PUSH4 0xD4BF50D EQ PUSH2 0x1261 JUMPI DUP1 PUSH4 0x170C788D EQ PUSH2 0x1095 JUMPI DUP1 PUSH4 0x18160DDD EQ PUSH2 0x1076 JUMPI DUP1 PUSH4 0x1AE1A479 EQ PUSH2 0xF30 JUMPI DUP1 PUSH4 0x23B872DD EQ PUSH2 0xF06 JUMPI DUP1 PUSH4 0x2F745C59 EQ PUSH2 0xE59 JUMPI DUP1 PUSH4 0x42842E0E EQ PUSH2 0xE0B JUMPI DUP1 PUSH4 0x4F6CCCE7 EQ PUSH2 0xD79 JUMPI DUP1 PUSH4 0x55F804B3 EQ PUSH2 0xBEA JUMPI DUP1 PUSH4 0x6352211E EQ PUSH2 0xBB8 JUMPI DUP1 PUSH4 0x70A08231 EQ PUSH2 0xB8B JUMPI DUP1 PUSH4 0x715018A6 EQ PUSH2 0xB2E JUMPI DUP1 PUSH4 0x8DA5CB5B EQ PUSH2 0xB05 JUMPI DUP1 PUSH4 0x95D89B41 EQ PUSH2 0xA22 JUMPI DUP1 PUSH4 0x99A681CF EQ PUSH2 0x9BA JUMPI DUP1 PUSH4 0xA22CB465 EQ PUSH2 0x8EF JUMPI DUP1 PUSH4 0xB88D4FDE EQ PUSH2 0x88B JUMPI DUP1 PUSH4 0xC87B56DD EQ PUSH2 0x596 JUMPI DUP1 PUSH4 0xDE9AEB31 EQ PUSH2 0x39B JUMPI DUP1 PUSH4 0xE985E9C5 EQ PUSH2 0x349 JUMPI DUP1 PUSH4 0xF2FDE38B EQ PUSH2 0x27D JUMPI PUSH4 0xF728FF4B EQ PUSH2 0x143 JUMPI PUSH1 0x0 DUP1 REVERT JUMPDEST CALLVALUE PUSH2 0x27A JUMPI PUSH1 0x20 CALLDATASIZE PUSH1 0x3 NOT ADD SLT PUSH2 0x27A JUMPI DUP2 CALLDATALOAD PUSH1 0x0 DUP2 DUP2 MSTORE PUSH1 0x2 PUSH1 0x20 MSTORE PUSH1 0x40 SWAP1 KECCAK256 SLOAD PUSH1 0x1 PUSH1 0x1 PUSH1 0xA0 SHL SUB AND ISZERO PUSH2 0x225 JUMPI SWAP3 DUP2 PUSH2 0x1FB SWAP5 DUP3 SWAP5 SWAP4 MSTORE PUSH1 0xC PUSH1 0x20 MSTORE KECCAK256 SWAP2 PUSH2 0x216 DUP2 MLOAD SWAP2 PUSH2 0x193 DUP4 PUSH2 0x1683 JUMP JUMPDEST PUSH2 0x19C DUP6 PUSH2 0x18F5 JUMP JUMPDEST DUP4 MSTORE PUSH2 0x1AA PUSH1 0x1 DUP7 ADD PUSH2 0x18F5 JUMP JUMPDEST SWAP5 PUSH1 0x20 DUP5 ADD SWAP6 DUP7 MSTORE PUSH2 0x209 PUSH2 0x1C1 PUSH1 0x2 DUP4 ADD PUSH2 0x18F5 JUMP JUMPDEST SWAP2 DUP3 DUP5 DUP8 ADD MSTORE PUSH1 0x3 DUP2 ADD SLOAD SWAP7 DUP8 PUSH1 0x60 DUP9 ADD MSTORE PUSH1 0x1 DUP1 PUSH1 0xA0 SHL SUB SWAP2 ADD SLOAD AND SWAP5 DUP6 PUSH1 0x80 DUP3 ADD MSTORE MLOAD SWAP7 MLOAD DUP4 MLOAD SWAP9 DUP10 SWAP9 PUSH1 0xA0 DUP11 MSTORE PUSH1 0xA0 DUP11 ADD SWAP1 PUSH2 0x15CB JUMP JUMPDEST SWAP1 DUP9 DUP3 SUB PUSH1 0x20 DUP11 ADD MSTORE PUSH2 0x15CB JUMP JUMPDEST SWAP2 DUP7 DUP4 SUB SWAP1 DUP8 ADD MSTORE PUSH2 0x15CB JUMP JUMPDEST SWAP2 PUSH1 0x60 DUP5 ADD MSTORE PUSH1 0x80 DUP4 ADD MSTORE SUB SWAP1 RETURN JUMPDEST DUP4 MLOAD PUSH3 0x461BCD PUSH1 0xE5 SHL DUP2 MSTORE PUSH1 0x20 DUP2 DUP6 ADD MSTORE PUSH1 0x29 PUSH1 0x24 DUP3 ADD MSTORE PUSH32 0x5A4B5374616D7073504F41503A20517565727920666F72206E6F6E6578697374 PUSH1 0x44 DUP3 ADD MSTORE PUSH9 0x32B73A103A37B5B2B7 PUSH1 0xB9 SHL PUSH1 0x64 DUP3 ADD MSTORE PUSH1 0x84 SWAP1 REVERT JUMPDEST DUP1 REVERT JUMPDEST POP SWAP2 SWAP1 CALLVALUE PUSH2 0x345 JUMPI PUSH1 0x20 CALLDATASIZE PUSH1 0x3 NOT ADD SLT PUSH2 0x345 JUMPI PUSH2 0x299 PUSH2 0x15F0 JUMP JUMPDEST SWAP1 PUSH2 0x2A2 PUSH2 0x177D JUMP JUMPDEST PUSH1 0x1 PUSH1 0x1 PUSH1 0xA0 SHL SUB SWAP2 DUP3 AND SWAP3 DUP4 ISZERO PUSH2 0x2F3 JUMPI POP POP PUSH1 0xA SLOAD DUP3 PUSH1 0x1 PUSH1 0x1 PUSH1 0x60 SHL SUB PUSH1 0xA0 SHL DUP3 AND OR PUSH1 0xA SSTORE AND PUSH32 0x8BE0079C531659141344CD1FD0A4F28419497F9722A3DAAFE3B4186F6B6457E0 DUP4 DUP1 LOG3 DUP1 RETURN JUMPDEST SWAP1 PUSH1 0x20 PUSH1 0x84 SWAP3 MLOAD SWAP2 PUSH3 0x461BCD PUSH1 0xE5 SHL DUP4 MSTORE DUP3 ADD MSTORE PUSH1 0x26 PUSH1 0x24 DUP3 ADD MSTORE PUSH32 0x4F776E61626C653A206E6577206F776E657220697320746865207A65726F2061 PUSH1 0x44 DUP3 ADD MSTORE PUSH6 0x646472657373 PUSH1 0xD0 SHL PUSH1 0x64 DUP3 ADD MSTORE REVERT JUMPDEST DUP3 DUP1 REVERT JUMPDEST POP DUP3 CALLVALUE PUSH2 0x397 JUMPI DUP1 PUSH1 0x3 NOT CALLDATASIZE ADD SLT PUSH2 0x397 JUMPI PUSH1 0xFF DUP2 PUSH1 0x20 SWAP4 PUSH2 0x369 PUSH2 0x15F0 JUMP JUMPDEST PUSH2 0x371 PUSH2 0x160B JUMP JUMPDEST PUSH1 0x1 PUSH1 0x1 PUSH1 0xA0 SHL SUB SWAP2 DUP3 AND DUP4 MSTORE PUSH1 0x5 DUP8 MSTORE DUP4 DUP4 KECCAK256 SWAP2 AND DUP3 MSTORE DUP6 MSTORE KECCAK256 SLOAD SWAP2 MLOAD SWAP2 AND ISZERO ISZERO DUP2 MSTORE RETURN JUMPDEST POP DUP1 REVERT JUMPDEST POP DUP3 CALLVALUE PUSH2 0x397 JUMPI PUSH1 0x80 CALLDATASIZE PUSH1 0x3 NOT ADD SLT PUSH2 0x397 JUMPI PUSH2 0x3B6 PUSH2 0x15F0 JUMP JUMPDEST SWAP3 PUSH8 0xFFFFFFFFFFFFFFFF PUSH1 0x24 CALLDATALOAD DUP2 DUP2 GT PUSH2 0x592 JUMPI PUSH2 0x3D7 SWAP1 CALLDATASIZE SWAP1 DUP5 ADD PUSH2 0x172A JUMP JUMPDEST PUSH1 0x44 CALLDATALOAD DUP3 DUP2 GT PUSH2 0x58E JUMPI PUSH2 0x3EE SWAP1 CALLDATASIZE SWAP1 DUP6 ADD PUSH2 0x172A JUMP JUMPDEST SWAP2 PUSH1 0x64 CALLDATALOAD SWAP1 DUP2 GT PUSH2 0x58E JUMPI PUSH2 0x406 SWAP1 CALLDATASIZE SWAP1 DUP6 ADD PUSH2 0x172A JUMP JUMPDEST PUSH2 0x40E PUSH2 0x177D JUMP JUMPDEST PUSH1 0x8 SLOAD SWAP6 PUSH1 0x1 DUP8 ADD DUP1 SWAP8 GT PUSH2 0x57B JUMPI SWAP2 DUP7 SWAP5 SWAP3 SWAP2 DUP7 DUP7 SWAP6 SWAP4 PUSH2 0x430 DUP8 DUP13 PUSH2 0x226B JUMP JUMPDEST DUP2 MLOAD PUSH2 0x43B DUP2 PUSH2 0x1683 JUMP JUMPDEST DUP5 DUP2 MSTORE PUSH1 0x20 SWAP12 DUP13 SWAP8 DUP9 DUP4 ADD SWAP3 DUP9 DUP5 MSTORE DUP6 DUP2 ADD DUP8 DUP2 MSTORE PUSH1 0x60 DUP3 ADD SWAP1 TIMESTAMP DUP3 MSTORE PUSH1 0x80 DUP4 ADD SWAP6 PUSH1 0x1 PUSH1 0xA0 SHL PUSH1 0x1 SWAP1 SUB DUP1 SWAP7 AND SWAP14 DUP15 DUP9 MSTORE DUP9 MSTORE PUSH1 0xC DUP14 MSTORE DUP9 DUP9 KECCAK256 SWAP4 MLOAD PUSH2 0x482 SWAP1 DUP6 PUSH2 0x1FA0 JUMP JUMPDEST MLOAD PUSH2 0x490 SWAP1 PUSH1 0x1 DUP6 ADD PUSH2 0x1FA0 JUMP JUMPDEST MLOAD PUSH2 0x49E SWAP1 PUSH1 0x2 DUP5 ADD PUSH2 0x1FA0 JUMP JUMPDEST MLOAD PUSH1 0x3 DUP3 ADD SSTORE ADD SWAP2 MLOAD AND PUSH1 0x1 PUSH1 0x1 PUSH1 0x60 SHL SUB PUSH1 0xA0 SHL DUP3 SLOAD AND OR SWAP1 SSTORE DUP7 DUP2 MSTORE PUSH1 0xD DUP7 MSTORE KECCAK256 PUSH2 0x4CB SWAP1 DUP4 PUSH2 0x20B0 JUMP JUMPDEST SWAP1 PUSH1 0xFF NOT SWAP2 DUP3 DUP2 SLOAD AND PUSH1 0x1 OR SWAP1 SSTORE DUP8 MLOAD SWAP2 DUP4 MLOAD SWAP3 DUP7 DUP2 DUP2 DUP8 ADD SWAP6 PUSH2 0x4F0 DUP2 DUP4 DUP10 PUSH2 0x15A8 JUMP JUMPDEST DUP2 ADD PUSH1 0xF DUP2 MSTORE SUB ADD SWAP1 KECCAK256 SLOAD PUSH1 0xFF AND ISZERO SWAP6 PUSH2 0x539 SWAP4 PUSH32 0xBFEA28971E5B14DC726E61C1E9F2313CAC35E2310466883D141839096037037A SWAP8 PUSH2 0x542 JUMPI JUMPDEST POP POP POP DUP8 MLOAD SWAP4 DUP5 SWAP4 DUP5 PUSH2 0x21E8 JUMP JUMPDEST SUB SWAP1 LOG3 MLOAD SWAP1 DUP2 MSTORE RETURN JUMPDEST PUSH1 0x1 SWAP2 PUSH2 0x562 SWAP2 PUSH2 0x552 DUP9 PUSH2 0x21A3 JUMP JUMPDEST DUP13 MLOAD DUP1 SWAP4 DUP2 SWAP3 DUP11 MLOAD SWAP3 DUP4 SWAP2 PUSH2 0x15A8 JUMP JUMPDEST DUP2 ADD PUSH1 0xF DUP2 MSTORE SUB ADD SWAP1 KECCAK256 SWAP2 DUP3 SLOAD AND OR SWAP1 SSTORE DUP11 DUP11 DUP2 PUSH2 0x52B JUMP JUMPDEST PUSH4 0x4E487B71 PUSH1 0xE0 SHL DUP2 MSTORE PUSH1 0x11 DUP6 MSTORE PUSH1 0x24 SWAP1 REVERT JUMPDEST DUP6 DUP1 REVERT JUMPDEST DUP5 DUP1 REVERT JUMPDEST POP SWAP1 CALLVALUE PUSH2 0x397 JUMPI PUSH1 0x20 SWAP2 DUP3 PUSH1 0x3 NOT CALLDATASIZE ADD SLT PUSH2 0x27A JUMPI DUP2 CALLDATALOAD PUSH1 0x0 DUP2 DUP2 MSTORE PUSH1 0x2 PUSH1 0x20 MSTORE PUSH1 0x40 SWAP1 KECCAK256 SLOAD PUSH2 0x5D0 SWAP1 PUSH1 0x1 PUSH1 0x1 PUSH1 0xA0 SHL SUB AND ISZERO ISZERO PUSH2 0x184C JUMP JUMPDEST DUP5 MLOAD SWAP3 DUP3 SWAP2 PUSH1 0xB SLOAD PUSH2 0x5E1 DUP2 PUSH2 0x18BB JUMP JUMPDEST DUP1 DUP8 MSTORE DUP7 DUP9 DUP2 ADD SWAP6 PUSH1 0x1 SWAP4 DUP11 DUP6 DUP3 AND SWAP2 DUP3 PUSH1 0x0 EQ PUSH2 0x870 JUMPI POP POP PUSH1 0x1 EQ PUSH2 0x815 JUMPI JUMPDEST PUSH2 0x60F SWAP3 POP SUB DUP8 PUSH2 0x16B5 JUMP JUMPDEST DUP6 MLOAD ISZERO PUSH2 0x7D2 JUMPI DUP7 SWAP5 SWAP4 DUP9 SWAP4 SWAP1 SWAP3 SWAP2 DUP3 SWAP2 DUP7 SWAP1 PUSH27 0x184F03E93FF9F4DAA797ED6E38ED64BF6A1F010000000000000000 DUP5 DUP2 DUP2 LT ISZERO PUSH2 0x7C5 JUMPI JUMPDEST POP POP DUP9 PUSH14 0x4EE2D6D415B85ACEF8100000000 DUP1 DUP8 LT ISZERO PUSH2 0x7B6 JUMPI JUMPDEST POP POP PUSH7 0x2386F26FC10000 DUP1 DUP7 LT ISZERO PUSH2 0x7A7 JUMPI JUMPDEST POP PUSH4 0x5F5E100 DUP1 DUP7 LT ISZERO PUSH2 0x798 JUMPI JUMPDEST POP PUSH2 0x2710 DUP1 DUP7 LT ISZERO PUSH2 0x78C JUMPI JUMPDEST POP POP PUSH1 0x64 DUP5 LT ISZERO PUSH2 0x77E JUMPI JUMPDEST PUSH1 0x21 SWAP1 DUP3 PUSH1 0xA DUP1 SWAP7 LT ISZERO PUSH2 0x777 JUMPI JUMPDEST SWAP4 SWAP3 SWAP2 SWAP1 PUSH2 0x6D4 DUP4 DUP3 ADD PUSH2 0x6CC PUSH2 0x6C3 DUP3 PUSH2 0x16D7 JUMP JUMPDEST SWAP11 MLOAD SWAP11 DUP12 PUSH2 0x16B5 JUMP JUMPDEST DUP1 DUP11 MSTORE PUSH2 0x16D7 JUMP JUMPDEST DUP9 DUP12 ADD SWAP10 SWAP1 PUSH1 0x1F NOT ADD CALLDATASIZE DUP12 CALLDATACOPY POP DUP8 ADD ADD SWAP1 JUMPDEST PUSH2 0x741 JUMPI JUMPDEST POP POP POP POP SWAP4 PUSH2 0x72C SWAP3 PUSH2 0x711 SWAP5 SWAP3 PUSH2 0x720 PUSH2 0x73D SWAP8 DUP11 MLOAD SWAP8 DUP9 SWAP6 MLOAD DUP1 SWAP3 DUP9 DUP9 ADD SWAP1 PUSH2 0x15A8 JUMP JUMPDEST DUP5 ADD SWAP2 MLOAD DUP1 SWAP4 DUP7 DUP5 ADD SWAP1 PUSH2 0x15A8 JUMP JUMPDEST ADD SUB DUP1 DUP5 MSTORE ADD DUP3 PUSH2 0x16B5 JUMP JUMPDEST SWAP3 JUMPDEST MLOAD SWAP3 DUP3 DUP5 SWAP4 DUP5 MSTORE DUP4 ADD SWAP1 PUSH2 0x15CB JUMP JUMPDEST SUB SWAP1 RETURN JUMPDEST PUSH1 0x0 NOT ADD SWAP1 DUP4 SWAP1 PUSH16 0x181899199A1A9B1B9C1CB0B131B232B3 PUSH1 0x81 SHL DUP3 DUP3 MOD BYTE DUP4 MSTORE8 DIV SWAP2 DUP3 ISZERO PUSH2 0x772 JUMPI SWAP2 SWAP1 DUP3 PUSH2 0x6E6 JUMP JUMPDEST PUSH2 0x6EB JUMP JUMPDEST ADD DUP3 PUSH2 0x6AD JUMP JUMPDEST PUSH1 0x64 SWAP1 SWAP4 DIV SWAP3 PUSH1 0x2 ADD PUSH2 0x69E JUMP JUMPDEST SWAP1 SWAP5 DIV SWAP4 ADD CODESIZE DUP1 PUSH2 0x692 JUMP JUMPDEST PUSH1 0x8 SWAP2 SWAP3 SWAP6 DIV SWAP5 ADD SWAP1 CODESIZE PUSH2 0x685 JUMP JUMPDEST PUSH1 0x10 SWAP2 SWAP3 SWAP6 DIV SWAP5 ADD SWAP1 CODESIZE PUSH2 0x676 JUMP JUMPDEST SWAP1 SWAP2 SWAP3 SWAP6 DIV SWAP5 ADD SWAP1 DUP9 CODESIZE PUSH2 0x663 JUMP JUMPDEST DIV SWAP5 POP DUP7 SWAP2 POP CODESIZE DUP1 PUSH2 0x648 JUMP JUMPDEST POP POP SWAP5 SWAP4 SWAP3 POP POP DUP3 MLOAD SWAP1 DUP3 DUP3 ADD DUP3 DUP2 LT PUSH8 0xFFFFFFFFFFFFFFFF DUP3 GT OR PUSH2 0x802 JUMPI DUP5 MSTORE DUP2 MSTORE SWAP3 POP SWAP1 PUSH2 0x73D SWAP1 PUSH2 0x72E JUMP JUMPDEST PUSH4 0x4E487B71 PUSH1 0xE0 SHL DUP3 MSTORE PUSH1 0x41 DUP7 MSTORE PUSH1 0x24 DUP3 REVERT JUMPDEST POP POP PUSH1 0xB DUP7 MSTORE DUP7 DUP9 DUP8 DUP5 PUSH32 0x175B7A638427703F0DBE7BB9BBF987A2551717B34E79F33B5B1008D1FA01DB9 JUMPDEST DUP6 DUP4 LT PUSH2 0x857 JUMPI POP POP PUSH2 0x60F SWAP4 POP DUP3 ADD ADD PUSH2 0x603 JUMP JUMPDEST DUP1 SWAP2 SWAP3 SWAP5 POP SLOAD DUP4 DUP6 DUP14 ADD ADD MSTORE ADD SWAP2 ADD DUP10 SWAP1 DUP5 DUP11 SWAP4 PUSH2 0x841 JUMP JUMPDEST PUSH1 0xFF NOT AND DUP10 MSTORE PUSH2 0x60F SWAP5 ISZERO ISZERO PUSH1 0x5 SHL DUP5 ADD ADD SWAP2 POP PUSH2 0x603 SWAP1 POP JUMP JUMPDEST POP SWAP1 CALLVALUE PUSH2 0x397 JUMPI PUSH1 0x80 CALLDATASIZE PUSH1 0x3 NOT ADD SLT PUSH2 0x397 JUMPI PUSH2 0x8A6 PUSH2 0x15F0 JUMP JUMPDEST PUSH2 0x8AE PUSH2 0x160B JUMP JUMPDEST SWAP1 PUSH1 0x64 CALLDATALOAD PUSH8 0xFFFFFFFFFFFFFFFF DUP2 GT PUSH2 0x592 JUMPI CALLDATASIZE PUSH1 0x23 DUP3 ADD SLT ISZERO PUSH2 0x592 JUMPI PUSH2 0x8EC SWAP4 DUP2 PUSH1 0x24 PUSH2 0x8E2 SWAP4 CALLDATASIZE SWAP4 ADD CALLDATALOAD SWAP2 ADD PUSH2 0x16F3 JUMP JUMPDEST SWAP2 PUSH1 0x44 CALLDATALOAD SWAP2 PUSH2 0x1A3B JUMP JUMPDEST DUP1 RETURN JUMPDEST POP SWAP2 CALLVALUE PUSH2 0x345 JUMPI DUP1 PUSH1 0x3 NOT CALLDATASIZE ADD SLT PUSH2 0x345 JUMPI PUSH2 0x909 PUSH2 0x15F0 JUMP JUMPDEST SWAP1 PUSH1 0x24 CALLDATALOAD SWAP2 DUP3 ISZERO ISZERO DUP1 SWAP4 SUB PUSH2 0x592 JUMPI PUSH1 0x1 PUSH1 0x1 PUSH1 0xA0 SHL SUB AND SWAP3 CALLER DUP5 EQ PUSH2 0x978 JUMPI POP CALLER DUP5 MSTORE PUSH1 0x5 PUSH1 0x20 MSTORE DUP1 DUP5 KECCAK256 DUP4 DUP6 MSTORE PUSH1 0x20 MSTORE DUP1 DUP5 KECCAK256 PUSH1 0xFF NOT DUP2 SLOAD AND PUSH1 0xFF DUP5 AND OR SWAP1 SSTORE MLOAD SWAP1 DUP2 MSTORE PUSH32 0x17307EAB39AB6107E8899845AD3D59BD9653F200F220920489CA2B5937696C31 PUSH1 0x20 CALLER SWAP3 LOG3 DUP1 RETURN JUMPDEST PUSH1 0x20 PUSH1 0x64 SWAP3 MLOAD SWAP2 PUSH3 0x461BCD PUSH1 0xE5 SHL DUP4 MSTORE DUP3 ADD MSTORE PUSH1 0x19 PUSH1 0x24 DUP3 ADD MSTORE PUSH32 0x4552433732313A20617070726F766520746F2063616C6C657200000000000000 PUSH1 0x44 DUP3 ADD MSTORE REVERT JUMPDEST POP SWAP2 SWAP1 CALLVALUE PUSH2 0x345 JUMPI DUP2 PUSH1 0x3 NOT CALLDATASIZE ADD SLT PUSH2 0x345 JUMPI PUSH2 0x9D5 PUSH2 0x15F0 JUMP JUMPDEST SWAP1 PUSH1 0x24 CALLDATALOAD PUSH8 0xFFFFFFFFFFFFFFFF DUP2 GT PUSH2 0x592 JUMPI SWAP2 DUP4 PUSH1 0x20 SWAP6 PUSH2 0x9FF PUSH2 0xA17 SWAP5 PUSH1 0xFF SWAP7 CALLDATASIZE SWAP2 ADD PUSH2 0x172A JUMP JUMPDEST PUSH1 0x1 PUSH1 0x1 PUSH1 0xA0 SHL SUB SWAP1 SWAP4 AND DUP2 MSTORE PUSH1 0xD DUP8 MSTORE KECCAK256 SWAP1 PUSH2 0x20B0 JUMP JUMPDEST SLOAD AND SWAP1 MLOAD SWAP1 ISZERO ISZERO DUP2 MSTORE RETURN JUMPDEST POP DUP3 CALLVALUE PUSH2 0x397 JUMPI DUP2 PUSH1 0x3 NOT CALLDATASIZE ADD SLT PUSH2 0x397 JUMPI DUP1 MLOAD SWAP1 DUP3 PUSH1 0x1 DUP1 SLOAD SWAP2 PUSH2 0xA46 DUP4 PUSH2 0x18BB JUMP JUMPDEST DUP1 DUP7 MSTORE SWAP3 DUP3 DUP2 AND SWAP1 DUP2 ISZERO PUSH2 0xADD JUMPI POP PUSH1 0x1 EQ PUSH2 0xA81 JUMPI JUMPDEST POP POP POP PUSH2 0xA6F DUP3 PUSH2 0x73D SWAP5 SUB DUP4 PUSH2 0x16B5 JUMP JUMPDEST MLOAD SWAP2 DUP3 SWAP2 PUSH1 0x20 DUP4 MSTORE PUSH1 0x20 DUP4 ADD SWAP1 PUSH2 0x15CB JUMP JUMPDEST SWAP5 POP DUP1 DUP6 MSTORE PUSH32 0xB10E2D527612073B26EECDFD717E6A320CF44B4AFAC2B0732D9FCBE2B7FA0CF6 JUMPDEST DUP3 DUP7 LT PUSH2 0xAC5 JUMPI POP POP POP PUSH2 0xA6F DUP3 PUSH1 0x20 PUSH2 0x73D SWAP6 DUP3 ADD ADD SWAP5 PUSH2 0xA5D JUMP JUMPDEST DUP1 SLOAD PUSH1 0x20 DUP8 DUP8 ADD DUP2 ADD SWAP2 SWAP1 SWAP2 MSTORE SWAP1 SWAP6 ADD SWAP5 DUP2 ADD PUSH2 0xAA8 JUMP JUMPDEST PUSH2 0x73D SWAP8 POP DUP7 SWAP4 POP PUSH1 0x20 SWAP3 POP PUSH2 0xA6F SWAP5 SWAP2 POP PUSH1 0xFF NOT AND DUP3 DUP5 ADD MSTORE ISZERO ISZERO PUSH1 0x5 SHL DUP3 ADD ADD SWAP5 PUSH2 0xA5D JUMP JUMPDEST POP DUP3 CALLVALUE PUSH2 0x397 JUMPI DUP2 PUSH1 0x3 NOT CALLDATASIZE ADD SLT PUSH2 0x397 JUMPI PUSH1 0xA SLOAD SWAP1 MLOAD PUSH1 0x1 PUSH1 0x1 PUSH1 0xA0 SHL SUB SWAP1 SWAP2 AND DUP2 MSTORE PUSH1 0x20 SWAP1 RETURN JUMPDEST POP CALLVALUE PUSH2 0x27A JUMPI DUP1 PUSH1 0x3 NOT CALLDATASIZE ADD SLT PUSH2 0x27A JUMPI PUSH2 0xB47 PUSH2 0x177D JUMP JUMPDEST PUSH1 0xA DUP1 SLOAD PUSH1 0x1 PUSH1 0x1 PUSH1 0xA0 SHL SUB NOT DUP2 AND SWAP1 SWAP2 SSTORE DUP2 SWAP1 PUSH1 0x1 PUSH1 0x1 PUSH1 0xA0 SHL SUB AND PUSH32 0x8BE0079C531659141344CD1FD0A4F28419497F9722A3DAAFE3B4186F6B6457E0 DUP3 DUP1 LOG3 DUP1 RETURN JUMPDEST POP DUP3 CALLVALUE PUSH2 0x397 JUMPI PUSH1 0x20 CALLDATASIZE PUSH1 0x3 NOT ADD SLT PUSH2 0x397 JUMPI PUSH1 0x20 SWAP1 PUSH2 0xBB1 PUSH2 0xBAC PUSH2 0x15F0 JUMP JUMPDEST PUSH2 0x17D5 JUMP JUMPDEST SWAP1 MLOAD SWAP1 DUP2 MSTORE RETURN JUMPDEST POP DUP3 SWAP1 CALLVALUE PUSH2 0x27A JUMPI PUSH1 0x20 CALLDATASIZE PUSH1 0x3 NOT ADD SLT PUSH2 0x27A JUMPI POP PUSH2 0xBD9 PUSH1 0x20 SWAP3 CALLDATALOAD PUSH2 0x1898 JUMP JUMPDEST SWAP1 MLOAD PUSH1 0x1 PUSH1 0x1 PUSH1 0xA0 SHL SUB SWAP1 SWAP2 AND DUP2 MSTORE RETURN JUMPDEST POP CALLVALUE PUSH2 0x27A JUMPI PUSH1 0x20 DUP1 PUSH1 0x3 NOT CALLDATASIZE ADD SLT PUSH2 0x397 JUMPI PUSH8 0xFFFFFFFFFFFFFFFF SWAP1 DUP4 CALLDATALOAD DUP3 DUP2 GT PUSH2 0xD75 JUMPI PUSH2 0xC1D SWAP1 CALLDATASIZE SWAP1 DUP7 ADD PUSH2 0x172A JUMP JUMPDEST SWAP4 PUSH2 0xC26 PUSH2 0x177D JUMP JUMPDEST DUP5 MLOAD SWAP3 DUP4 GT PUSH2 0xD62 JUMPI POP PUSH2 0xC3B PUSH1 0xB SLOAD PUSH2 0x18BB JUMP JUMPDEST PUSH1 0x1F DUP2 GT PUSH2 0xD00 JUMPI JUMPDEST POP DUP1 PUSH1 0x1F DUP4 GT PUSH1 0x1 EQ PUSH2 0xC7F JUMPI POP DUP3 SWAP4 DUP3 SWAP4 SWAP3 PUSH2 0xC74 JUMPI JUMPDEST POP POP DUP2 PUSH1 0x1 SHL SWAP2 PUSH1 0x0 NOT SWAP1 PUSH1 0x3 SHL SHR NOT AND OR PUSH1 0xB SSTORE DUP1 RETURN JUMPDEST ADD MLOAD SWAP1 POP DUP4 DUP1 PUSH2 0xC5C JUMP JUMPDEST PUSH1 0xB DUP5 MSTORE PUSH1 0x1F NOT DUP4 AND SWAP5 PUSH32 0x175B7A638427703F0DBE7BB9BBF987A2551717B34E79F33B5B1008D1FA01DB9 SWAP3 SWAP2 DUP6 SWAP1 JUMPDEST DUP8 DUP3 LT PUSH2 0xCE8 JUMPI POP POP DUP4 PUSH1 0x1 SWAP6 SWAP7 LT PUSH2 0xCCF JUMPI JUMPDEST POP POP POP DUP2 SHL ADD PUSH1 0xB SSTORE DUP1 RETURN JUMPDEST ADD MLOAD PUSH1 0x0 NOT PUSH1 0xF8 DUP5 PUSH1 0x3 SHL AND SHR NOT AND SWAP1 SSTORE DUP4 DUP1 DUP1 PUSH2 0xCC3 JUMP JUMPDEST DUP1 PUSH1 0x1 DUP6 SWAP7 DUP3 SWAP5 SWAP7 DUP7 ADD MLOAD DUP2 SSTORE ADD SWAP6 ADD SWAP4 ADD SWAP1 PUSH2 0xCAF JUMP JUMPDEST PUSH1 0xB DUP5 MSTORE PUSH32 0x175B7A638427703F0DBE7BB9BBF987A2551717B34E79F33B5B1008D1FA01DB9 PUSH1 0x1F DUP5 ADD PUSH1 0x5 SHR DUP2 ADD SWAP2 DUP4 DUP6 LT PUSH2 0xD58 JUMPI JUMPDEST PUSH1 0x1F ADD PUSH1 0x5 SHR ADD SWAP1 JUMPDEST DUP2 DUP2 LT PUSH2 0xD4D JUMPI POP PUSH2 0xC44 JUMP JUMPDEST DUP5 DUP2 SSTORE PUSH1 0x1 ADD PUSH2 0xD40 JUMP JUMPDEST SWAP1 SWAP2 POP DUP2 SWAP1 PUSH2 0xD37 JUMP JUMPDEST PUSH4 0x4E487B71 PUSH1 0xE0 SHL DUP5 MSTORE PUSH1 0x41 SWAP1 MSTORE PUSH1 0x24 DUP4 REVERT JUMPDEST DUP4 DUP1 REVERT JUMPDEST POP CALLVALUE PUSH2 0x27A JUMPI PUSH1 0x20 CALLDATASIZE PUSH1 0x3 NOT ADD SLT PUSH2 0x27A JUMPI POP DUP1 CALLDATALOAD SWAP1 PUSH1 0x8 SLOAD DUP3 LT ISZERO PUSH2 0xDB3 JUMPI PUSH1 0x20 DUP4 PUSH2 0xDA5 DUP5 PUSH2 0x1F69 JUMP JUMPDEST SWAP2 SWAP1 SLOAD SWAP1 MLOAD SWAP2 PUSH1 0x3 SHL SHR DUP2 MSTORE RETURN JUMPDEST PUSH1 0x84 SWAP1 PUSH1 0x20 DUP5 MLOAD SWAP2 PUSH3 0x461BCD PUSH1 0xE5 SHL DUP4 MSTORE DUP3 ADD MSTORE PUSH1 0x2C PUSH1 0x24 DUP3 ADD MSTORE PUSH32 0x455243373231456E756D657261626C653A20676C6F62616C20696E646578206F PUSH1 0x44 DUP3 ADD MSTORE PUSH12 0x7574206F6620626F756E6473 PUSH1 0xA0 SHL PUSH1 0x64 DUP3 ADD MSTORE REVERT JUMPDEST POP DUP3 CALLVALUE PUSH2 0x397 JUMPI PUSH2 0xE1B CALLDATASIZE PUSH2 0x1748 JUMP JUMPDEST SWAP2 DUP4 MLOAD SWAP4 PUSH1 0x20 DUP6 ADD SWAP1 DUP6 DUP3 LT PUSH8 0xFFFFFFFFFFFFFFFF DUP4 GT OR PUSH2 0xE46 JUMPI PUSH2 0x8EC SWAP7 SWAP8 POP MSTORE DUP6 DUP5 MSTORE PUSH2 0x1A3B JUMP JUMPDEST PUSH4 0x4E487B71 PUSH1 0xE0 SHL DUP8 MSTORE PUSH1 0x41 DUP9 MSTORE PUSH1 0x24 DUP8 REVERT JUMPDEST POP DUP3 SWAP1 CALLVALUE PUSH2 0x27A JUMPI DUP2 PUSH1 0x3 NOT CALLDATASIZE ADD SLT PUSH2 0x27A JUMPI PUSH2 0xE74 PUSH2 0x15F0 JUMP JUMPDEST PUSH1 0x24 CALLDATALOAD SWAP1 PUSH2 0xE81 DUP2 PUSH2 0x17D5 JUMP JUMPDEST DUP3 LT ISZERO PUSH2 0xEAF JUMPI PUSH1 0x1 PUSH1 0x1 PUSH1 0xA0 SHL SUB AND DUP3 MSTORE PUSH1 0x6 PUSH1 0x20 SWAP1 DUP2 MSTORE DUP4 DUP4 KECCAK256 SWAP2 DUP4 MSTORE SWAP1 DUP2 MSTORE SWAP1 DUP3 SWAP1 KECCAK256 SLOAD DUP3 MLOAD SWAP1 DUP2 MSTORE RETURN JUMPDEST DUP4 MLOAD PUSH3 0x461BCD PUSH1 0xE5 SHL DUP2 MSTORE PUSH1 0x20 DUP2 DUP8 ADD MSTORE PUSH1 0x2B PUSH1 0x24 DUP3 ADD MSTORE PUSH32 0x455243373231456E756D657261626C653A206F776E657220696E646578206F75 PUSH1 0x44 DUP3 ADD MSTORE PUSH11 0x74206F6620626F756E6473 PUSH1 0xA8 SHL PUSH1 0x64 DUP3 ADD MSTORE PUSH1 0x84 SWAP1 REVERT JUMPDEST POP CALLVALUE PUSH2 0x27A JUMPI PUSH2 0x8EC PUSH2 0xF18 CALLDATASIZE PUSH2 0x1748 JUMP JUMPDEST SWAP2 PUSH2 0xF2B PUSH2 0xF26 DUP5 CALLER PUSH2 0x1AD6 JUMP JUMPDEST PUSH2 0x19D9 JUMP JUMPDEST PUSH2 0x1B9E JUMP JUMPDEST DUP4 DUP3 CALLVALUE PUSH2 0x27A JUMPI PUSH1 0x20 SWAP2 DUP3 PUSH1 0x3 NOT CALLDATASIZE ADD SLT PUSH2 0x397 JUMPI PUSH2 0xF4D PUSH2 0x15F0 JUMP JUMPDEST PUSH1 0xE SLOAD SWAP4 PUSH1 0x1 PUSH1 0x1 PUSH1 0xA0 SHL SUB SWAP1 SWAP2 AND SWAP1 DUP4 SWAP1 DUP2 JUMPDEST DUP7 DUP2 LT PUSH2 0x1034 JUMPI POP PUSH2 0xF72 DUP6 PUSH2 0x2177 JUMP JUMPDEST SWAP5 PUSH2 0xF7F DUP6 MLOAD SWAP7 DUP8 PUSH2 0x16B5 JUMP JUMPDEST DUP1 DUP7 MSTORE PUSH2 0xF8E PUSH1 0x1F NOT SWAP2 PUSH2 0x2177 JUMP JUMPDEST ADD DUP2 DUP4 JUMPDEST DUP3 DUP2 LT PUSH2 0x1024 JUMPI POP POP POP DUP2 SWAP3 DUP3 JUMPDEST DUP8 DUP2 LT PUSH2 0xFB4 JUMPI DUP6 MLOAD DUP1 PUSH2 0x73D DUP10 DUP3 PUSH2 0x1621 JUMP JUMPDEST DUP2 DUP5 MSTORE PUSH1 0xD DUP4 MSTORE PUSH1 0xFF PUSH2 0xFD2 DUP8 DUP7 KECCAK256 PUSH2 0xFCC DUP5 PUSH2 0x1F1C JUMP JUMPDEST POP PUSH2 0x20E5 JUMP JUMPDEST SLOAD AND PUSH2 0xFE7 JUMPI JUMPDEST PUSH2 0xFE2 SWAP1 PUSH2 0x20D6 JUMP JUMPDEST PUSH2 0xFA0 JUMP JUMPDEST SWAP4 PUSH2 0x101C PUSH2 0xFE2 SWAP2 PUSH2 0x1001 PUSH2 0xFFB DUP9 PUSH2 0x1F1C JUMP JUMPDEST POP PUSH2 0x18F5 JUMP JUMPDEST PUSH2 0x100B DUP3 DUP12 PUSH2 0x218F JUMP JUMPDEST MSTORE PUSH2 0x1016 DUP2 DUP11 PUSH2 0x218F JUMP JUMPDEST POP PUSH2 0x20D6 JUMP JUMPDEST SWAP5 SWAP1 POP PUSH2 0xFD9 JUMP JUMPDEST PUSH1 0x60 DUP3 DUP3 DUP11 ADD ADD MSTORE ADD DUP3 SWAP1 PUSH2 0xF92 JUMP JUMPDEST DUP4 DUP4 MSTORE PUSH1 0xD DUP3 MSTORE PUSH1 0xFF PUSH2 0x104C DUP7 DUP6 KECCAK256 PUSH2 0xFCC DUP5 PUSH2 0x1F1C JUMP JUMPDEST SLOAD AND PUSH2 0x1061 JUMPI JUMPDEST PUSH2 0x105C SWAP1 PUSH2 0x20D6 JUMP JUMPDEST PUSH2 0xF61 JUMP JUMPDEST SWAP5 PUSH2 0x106E PUSH2 0x105C SWAP2 PUSH2 0x20D6 JUMP JUMPDEST SWAP6 SWAP1 POP PUSH2 0x1053 JUMP JUMPDEST POP DUP3 CALLVALUE PUSH2 0x397 JUMPI DUP2 PUSH1 0x3 NOT CALLDATASIZE ADD SLT PUSH2 0x397 JUMPI PUSH1 0x20 SWAP1 PUSH1 0x8 SLOAD SWAP1 MLOAD SWAP1 DUP2 MSTORE RETURN JUMPDEST POP DUP3 CALLVALUE PUSH2 0x397 JUMPI PUSH1 0x60 CALLDATASIZE PUSH1 0x3 NOT ADD SLT PUSH2 0x397 JUMPI PUSH8 0xFFFFFFFFFFFFFFFF DUP4 CALLDATALOAD DUP2 DUP2 GT PUSH2 0xD75 JUMPI PUSH2 0x10C7 SWAP1 CALLDATASIZE SWAP1 DUP7 ADD PUSH2 0x172A JUMP JUMPDEST SWAP1 PUSH1 0x24 CALLDATALOAD DUP2 DUP2 GT PUSH2 0x592 JUMPI PUSH2 0x10DF SWAP1 CALLDATASIZE SWAP1 DUP8 ADD PUSH2 0x172A JUMP JUMPDEST SWAP1 PUSH1 0x44 CALLDATALOAD SWAP1 DUP2 GT PUSH2 0x592 JUMPI PUSH2 0x10F7 SWAP1 CALLDATASIZE SWAP1 DUP8 ADD PUSH2 0x172A JUMP JUMPDEST SWAP1 PUSH1 0x8 SLOAD SWAP5 PUSH1 0x1 DUP7 ADD DUP1 SWAP7 GT PUSH2 0x124E JUMPI SWAP2 PUSH32 0xBFEA28971E5B14DC726E61C1E9F2313CAC35E2310466883D141839096037037A SWAP2 PUSH2 0x11CA DUP7 DUP9 SWAP7 SWAP6 PUSH2 0x113B DUP9 CALLER PUSH2 0x226B JUMP JUMPDEST DUP8 DUP3 MLOAD SWAP12 PUSH2 0x1148 DUP14 PUSH2 0x1683 JUMP JUMPDEST DUP9 DUP14 MSTORE PUSH1 0x20 SWAP13 DUP14 PUSH2 0x1199 DUP2 DUP4 ADD DUP10 DUP2 MSTORE PUSH2 0x118F DUP9 DUP6 ADD SWAP2 DUP13 DUP4 MSTORE PUSH1 0xC PUSH1 0x60 DUP8 ADD SWAP6 TIMESTAMP DUP8 MSTORE PUSH1 0x80 DUP9 ADD SWAP10 CALLER DUP12 MSTORE DUP12 MSTORE MSTORE PUSH2 0x1185 DUP11 DUP11 KECCAK256 SWAP7 MLOAD DUP8 PUSH2 0x1FA0 JUMP JUMPDEST MLOAD PUSH1 0x1 DUP7 ADD PUSH2 0x1FA0 JUMP JUMPDEST MLOAD PUSH1 0x2 DUP5 ADD PUSH2 0x1FA0 JUMP JUMPDEST MLOAD PUSH1 0x3 DUP3 ADD SSTORE ADD SWAP1 PUSH1 0x1 DUP1 PUSH1 0xA0 SHL SUB SWAP1 MLOAD AND PUSH1 0x1 PUSH1 0x1 PUSH1 0x60 SHL SUB PUSH1 0xA0 SHL DUP3 SLOAD AND OR SWAP1 SSTORE CALLER DUP2 MSTORE PUSH1 0xD DUP12 MSTORE KECCAK256 DUP6 PUSH2 0x20B0 JUMP JUMPDEST PUSH1 0xFF NOT SWAP1 PUSH1 0x1 DUP3 DUP3 SLOAD AND OR SWAP1 SSTORE DUP9 DUP8 MLOAD PUSH1 0xFF DUP8 MLOAD SWAP2 DUP4 DUP2 DUP2 DUP12 ADD SWAP5 PUSH2 0x11F0 DUP2 DUP4 DUP9 PUSH2 0x15A8 JUMP JUMPDEST DUP2 ADD PUSH1 0xF DUP2 MSTORE SUB ADD SWAP1 KECCAK256 SLOAD AND ISZERO PUSH2 0x1215 JUMPI JUMPDEST POP POP POP PUSH2 0x539 DUP7 MLOAD SWAP3 DUP4 SWAP3 CALLER SWAP7 DUP5 PUSH2 0x21E8 JUMP JUMPDEST PUSH1 0x1 SWAP2 PUSH2 0x1235 SWAP2 PUSH2 0x1225 DUP10 PUSH2 0x21A3 JUMP JUMPDEST DUP11 MLOAD DUP1 SWAP4 DUP2 SWAP3 DUP12 MLOAD SWAP3 DUP4 SWAP2 PUSH2 0x15A8 JUMP JUMPDEST DUP2 ADD PUSH1 0xF DUP2 MSTORE SUB ADD SWAP1 KECCAK256 SWAP2 DUP3 SLOAD AND OR SWAP1 SSTORE DUP9 DUP9 DUP2 PUSH2 0x1202 JUMP JUMPDEST PUSH4 0x4E487B71 PUSH1 0xE0 SHL DUP2 MSTORE PUSH1 0x11 DUP8 MSTORE PUSH1 0x24 SWAP1 REVERT JUMPDEST DUP4 DUP3 CALLVALUE PUSH2 0x27A JUMPI DUP1 PUSH1 0x3 NOT CALLDATASIZE ADD SLT PUSH2 0x27A JUMPI PUSH1 0xE SLOAD PUSH2 0x127F DUP2 PUSH2 0x2177 JUMP JUMPDEST SWAP2 PUSH2 0x128C DUP5 MLOAD SWAP4 DUP5 PUSH2 0x16B5 JUMP JUMPDEST DUP2 DUP4 MSTORE PUSH1 0xE DUP2 MSTORE PUSH1 0x20 PUSH32 0xBB7B4A454DC3493923482F07822329ED19E8244EFF582CC204F8554C3620C3FD DUP2 DUP6 ADD JUMPDEST DUP5 DUP5 LT PUSH2 0x12CE JUMPI DUP7 MLOAD DUP1 PUSH2 0x73D DUP9 DUP3 PUSH2 0x1621 JUMP JUMPDEST PUSH1 0x1 DUP4 DUP2 SWAP3 PUSH2 0x12DC DUP6 PUSH2 0x18F5 JUMP JUMPDEST DUP2 MSTORE ADD SWAP3 ADD SWAP4 ADD SWAP3 SWAP1 PUSH2 0x12BA JUMP JUMPDEST POP SWAP2 SWAP1 CALLVALUE PUSH2 0x345 JUMPI DUP2 PUSH1 0x3 NOT CALLDATASIZE ADD SLT PUSH2 0x345 JUMPI PUSH2 0x1305 PUSH2 0x15F0 JUMP JUMPDEST PUSH1 0x24 CALLDATALOAD SWAP3 SWAP1 SWAP2 PUSH1 0x1 PUSH1 0x1 PUSH1 0xA0 SHL SUB SWAP2 SWAP1 DUP3 DUP1 PUSH2 0x1320 DUP8 PUSH2 0x1898 JUMP JUMPDEST AND SWAP5 AND SWAP4 DUP1 DUP6 EQ PUSH2 0x140C JUMPI DUP1 CALLER EQ SWAP1 DUP2 ISZERO PUSH2 0x13ED JUMPI JUMPDEST POP ISZERO PUSH2 0x1385 JUMPI DUP5 DUP7 MSTORE PUSH1 0x20 MSTORE DUP5 KECCAK256 DUP1 SLOAD PUSH1 0x1 PUSH1 0x1 PUSH1 0xA0 SHL SUB NOT AND DUP4 OR SWAP1 SSTORE PUSH2 0x135D DUP4 PUSH2 0x1898 JUMP JUMPDEST AND PUSH32 0x8C5BE1E5EBEC7D5BD14F71427D1E84F3DD0314C0F7B2291E5B200AC8C7C3B925 DUP5 DUP1 LOG4 DUP1 RETURN JUMPDEST PUSH1 0x20 PUSH1 0x84 SWAP3 MLOAD SWAP2 PUSH3 0x461BCD PUSH1 0xE5 SHL DUP4 MSTORE DUP3 ADD MSTORE PUSH1 0x3D PUSH1 0x24 DUP3 ADD MSTORE PUSH32 0x4552433732313A20617070726F76652063616C6C6572206973206E6F7420746F PUSH1 0x44 DUP3 ADD MSTORE PUSH32 0x6B656E206F776E6572206F7220617070726F76656420666F7220616C6C000000 PUSH1 0x64 DUP3 ADD MSTORE REVERT JUMPDEST SWAP1 POP DUP7 MSTORE PUSH1 0x5 PUSH1 0x20 MSTORE DUP2 DUP7 KECCAK256 CALLER DUP8 MSTORE PUSH1 0x20 MSTORE PUSH1 0xFF DUP3 DUP8 KECCAK256 SLOAD AND CODESIZE PUSH2 0x1336 JUMP JUMPDEST POP PUSH1 0x20 PUSH1 0x84 SWAP3 MLOAD SWAP2 PUSH3 0x461BCD PUSH1 0xE5 SHL DUP4 MSTORE DUP3 ADD MSTORE PUSH1 0x21 PUSH1 0x24 DUP3 ADD MSTORE PUSH32 0x4552433732313A20617070726F76616C20746F2063757272656E74206F776E65 PUSH1 0x44 DUP3 ADD MSTORE PUSH1 0x39 PUSH1 0xF9 SHL PUSH1 0x64 DUP3 ADD MSTORE REVERT JUMPDEST POP DUP3 SWAP1 CALLVALUE PUSH2 0x27A JUMPI PUSH1 0x20 CALLDATASIZE PUSH1 0x3 NOT ADD SLT PUSH2 0x27A JUMPI POP PUSH2 0xBD9 PUSH1 0x20 SWAP3 CALLDATALOAD PUSH2 0x199B JUMP JUMPDEST POP DUP3 CALLVALUE PUSH2 0x397 JUMPI DUP2 PUSH1 0x3 NOT CALLDATASIZE ADD SLT PUSH2 0x397 JUMPI DUP1 MLOAD SWAP1 DUP3 DUP1 SLOAD PUSH2 0x149B DUP2 PUSH2 0x18BB JUMP JUMPDEST DUP1 DUP6 MSTORE SWAP2 PUSH1 0x1 SWAP2 DUP1 DUP4 AND SWAP1 DUP2 ISZERO PUSH2 0xADD JUMPI POP PUSH1 0x1 EQ PUSH2 0x14C6 JUMPI POP POP POP PUSH2 0xA6F DUP3 PUSH2 0x73D SWAP5 SUB DUP4 PUSH2 0x16B5 JUMP JUMPDEST DUP1 DUP1 SWAP7 POP MSTORE PUSH32 0x290DECD9548B62A8D60345A988386FC84BA6BC95484008F6362F93160EF3E563 JUMPDEST DUP3 DUP7 LT PUSH2 0x150A JUMPI POP POP POP PUSH2 0xA6F DUP3 PUSH1 0x20 PUSH2 0x73D SWAP6 DUP3 ADD ADD SWAP5 PUSH2 0xA5D JUMP JUMPDEST DUP1 SLOAD PUSH1 0x20 DUP8 DUP8 ADD DUP2 ADD SWAP2 SWAP1 SWAP2 MSTORE SWAP1 SWAP6 ADD SWAP5 DUP2 ADD PUSH2 0x14ED JUMP JUMPDEST SWAP1 POP DUP3 CALLVALUE PUSH2 0x345 JUMPI PUSH1 0x20 CALLDATASIZE PUSH1 0x3 NOT ADD SLT PUSH2 0x345 JUMPI CALLDATALOAD PUSH4 0xFFFFFFFF PUSH1 0xE0 SHL DUP2 AND DUP1 SWAP2 SUB PUSH2 0x345 JUMPI PUSH1 0x20 SWAP3 POP PUSH4 0x780E9D63 PUSH1 0xE0 SHL DUP2 EQ SWAP1 DUP2 ISZERO PUSH2 0x1565 JUMPI JUMPDEST POP ISZERO ISZERO DUP2 MSTORE RETURN JUMPDEST PUSH4 0x80AC58CD PUSH1 0xE0 SHL DUP2 EQ SWAP2 POP DUP2 ISZERO PUSH2 0x1597 JUMPI JUMPDEST DUP2 ISZERO PUSH2 0x1586 JUMPI JUMPDEST POP DUP4 PUSH2 0x155E JUMP JUMPDEST PUSH4 0x1FFC9A7 PUSH1 0xE0 SHL EQ SWAP1 POP DUP4 PUSH2 0x157F JUMP JUMPDEST PUSH4 0x5B5E139F PUSH1 0xE0 SHL DUP2 EQ SWAP2 POP PUSH2 0x1578 JUMP JUMPDEST PUSH1 0x0 JUMPDEST DUP4 DUP2 LT PUSH2 0x15BB JUMPI POP POP PUSH1 0x0 SWAP2 ADD MSTORE JUMP JUMPDEST DUP2 DUP2 ADD MLOAD DUP4 DUP3 ADD MSTORE PUSH1 0x20 ADD PUSH2 0x15AB JUMP JUMPDEST SWAP1 PUSH1 0x20 SWAP2 PUSH2 0x15E4 DUP2 MLOAD DUP1 SWAP3 DUP2 DUP6 MSTORE DUP6 DUP1 DUP7 ADD SWAP2 ADD PUSH2 0x15A8 JUMP JUMPDEST PUSH1 0x1F ADD PUSH1 0x1F NOT AND ADD ADD SWAP1 JUMP JUMPDEST PUSH1 0x4 CALLDATALOAD SWAP1 PUSH1 0x1 PUSH1 0x1 PUSH1 0xA0 SHL SUB DUP3 AND DUP3 SUB PUSH2 0x1606 JUMPI JUMP JUMPDEST PUSH1 0x0 DUP1 REVERT JUMPDEST PUSH1 0x24 CALLDATALOAD SWAP1 PUSH1 0x1 PUSH1 0x1 PUSH1 0xA0 SHL SUB DUP3 AND DUP3 SUB PUSH2 0x1606 JUMPI JUMP JUMPDEST PUSH1 0x20 DUP1 DUP3 ADD SWAP1 DUP1 DUP4 MSTORE DUP4 MLOAD DUP1 SWAP3 MSTORE PUSH1 0x40 DUP4 ADD SWAP3 DUP2 PUSH1 0x40 DUP5 PUSH1 0x5 SHL DUP4 ADD ADD SWAP6 ADD SWAP4 PUSH1 0x0 SWAP2 JUMPDEST DUP5 DUP4 LT PUSH2 0x1655 JUMPI POP POP POP POP POP POP SWAP1 JUMP JUMPDEST SWAP1 SWAP2 SWAP3 SWAP4 SWAP5 SWAP6 DUP5 DUP1 PUSH2 0x1673 PUSH1 0x1 SWAP4 PUSH1 0x3F NOT DUP7 DUP3 SUB ADD DUP8 MSTORE DUP11 MLOAD PUSH2 0x15CB JUMP JUMPDEST SWAP9 ADD SWAP4 ADD SWAP4 ADD SWAP2 SWAP5 SWAP4 SWAP3 SWAP1 PUSH2 0x1645 JUMP JUMPDEST PUSH1 0xA0 DUP2 ADD SWAP1 DUP2 LT PUSH8 0xFFFFFFFFFFFFFFFF DUP3 GT OR PUSH2 0x169F JUMPI PUSH1 0x40 MSTORE JUMP JUMPDEST PUSH4 0x4E487B71 PUSH1 0xE0 SHL PUSH1 0x0 MSTORE PUSH1 0x41 PUSH1 0x4 MSTORE PUSH1 0x24 PUSH1 0x0 REVERT JUMPDEST SWAP1 PUSH1 0x1F DUP1 NOT SWAP2 ADD AND DUP2 ADD SWAP1 DUP2 LT PUSH8 0xFFFFFFFFFFFFFFFF DUP3 GT OR PUSH2 0x169F JUMPI PUSH1 0x40 MSTORE JUMP JUMPDEST PUSH8 0xFFFFFFFFFFFFFFFF DUP2 GT PUSH2 0x169F JUMPI PUSH1 0x1F ADD PUSH1 0x1F NOT AND PUSH1 0x20 ADD SWAP1 JUMP JUMPDEST SWAP3 SWAP2 SWAP3 PUSH2 0x16FF DUP3 PUSH2 0x16D7 JUMP JUMPDEST SWAP2 PUSH2 0x170D PUSH1 0x40 MLOAD SWAP4 DUP5 PUSH2 0x16B5 JUMP JUMPDEST DUP3 SWAP5 DUP2 DUP5 MSTORE DUP2 DUP4 ADD GT PUSH2 0x1606 JUMPI DUP3 DUP2 PUSH1 0x20 SWAP4 DUP5 PUSH1 0x0 SWAP7 ADD CALLDATACOPY ADD ADD MSTORE JUMP JUMPDEST SWAP1 DUP1 PUSH1 0x1F DUP4 ADD SLT ISZERO PUSH2 0x1606 JUMPI DUP2 PUSH1 0x20 PUSH2 0x1745 SWAP4 CALLDATALOAD SWAP2 ADD PUSH2 0x16F3 JUMP JUMPDEST SWAP1 JUMP JUMPDEST PUSH1 0x60 SWAP1 PUSH1 0x3 NOT ADD SLT PUSH2 0x1606 JUMPI PUSH1 0x1 PUSH1 0x1 PUSH1 0xA0 SHL SUB SWAP1 PUSH1 0x4 CALLDATALOAD DUP3 DUP2 AND DUP2 SUB PUSH2 0x1606 JUMPI SWAP2 PUSH1 0x24 CALLDATALOAD SWAP1 DUP2 AND DUP2 SUB PUSH2 0x1606 JUMPI SWAP1 PUSH1 0x44 CALLDATALOAD SWAP1 JUMP JUMPDEST PUSH1 0xA SLOAD PUSH1 0x1 PUSH1 0x1 PUSH1 0xA0 SHL SUB AND CALLER SUB PUSH2 0x1791 JUMPI JUMP JUMPDEST PUSH1 0x64 PUSH1 0x40 MLOAD PUSH3 0x461BCD PUSH1 0xE5 SHL DUP2 MSTORE PUSH1 0x20 PUSH1 0x4 DUP3 ADD MSTORE PUSH1 0x20 PUSH1 0x24 DUP3 ADD MSTORE PUSH32 0x4F776E61626C653A2063616C6C6572206973206E6F7420746865206F776E6572 PUSH1 0x44 DUP3 ADD MSTORE REVERT JUMPDEST PUSH1 0x1 PUSH1 0x1 PUSH1 0xA0 SHL SUB AND DUP1 ISZERO PUSH2 0x17F5 JUMPI PUSH1 0x0 MSTORE PUSH1 0x3 PUSH1 0x20 MSTORE PUSH1 0x40 PUSH1 0x0 KECCAK256 SLOAD SWAP1 JUMP JUMPDEST PUSH1 0x40 MLOAD PUSH3 0x461BCD PUSH1 0xE5 SHL DUP2 MSTORE PUSH1 0x20 PUSH1 0x4 DUP3 ADD MSTORE PUSH1 0x29 PUSH1 0x24 DUP3 ADD MSTORE PUSH32 0x4552433732313A2061646472657373207A65726F206973206E6F742061207661 PUSH1 0x44 DUP3 ADD MSTORE PUSH9 0x3634B21037BBB732B9 PUSH1 0xB9 SHL PUSH1 0x64 DUP3 ADD MSTORE PUSH1 0x84 SWAP1 REVERT JUMPDEST ISZERO PUSH2 0x1853 JUMPI JUMP JUMPDEST PUSH1 0x40 MLOAD PUSH3 0x461BCD PUSH1 0xE5 SHL DUP2 MSTORE PUSH1 0x20 PUSH1 0x4 DUP3 ADD MSTORE PUSH1 0x18 PUSH1 0x24 DUP3 ADD MSTORE PUSH32 0x4552433732313A20696E76616C696420746F6B656E2049440000000000000000 PUSH1 0x44 DUP3 ADD MSTORE PUSH1 0x64 SWAP1 REVERT JUMPDEST PUSH1 0x0 SWAP1 DUP2 MSTORE PUSH1 0x2 PUSH1 0x20 MSTORE PUSH1 0x40 SWAP1 KECCAK256 SLOAD PUSH1 0x1 PUSH1 0x1 PUSH1 0xA0 SHL SUB AND PUSH2 0x1745 DUP2 ISZERO ISZERO PUSH2 0x184C JUMP JUMPDEST SWAP1 PUSH1 0x1 DUP3 DUP2 SHR SWAP3 AND DUP1 ISZERO PUSH2 0x18EB JUMPI JUMPDEST PUSH1 0x20 DUP4 LT EQ PUSH2 0x18D5 JUMPI JUMP JUMPDEST PUSH4 0x4E487B71 PUSH1 0xE0 SHL PUSH1 0x0 MSTORE PUSH1 0x22 PUSH1 0x4 MSTORE PUSH1 0x24 PUSH1 0x0 REVERT JUMPDEST SWAP2 PUSH1 0x7F AND SWAP2 PUSH2 0x18CA JUMP JUMPDEST SWAP1 PUSH1 0x40 MLOAD SWAP2 DUP3 PUSH1 0x0 DUP3 SLOAD SWAP3 PUSH2 0x1909 DUP5 PUSH2 0x18BB JUMP JUMPDEST SWAP1 DUP2 DUP5 MSTORE PUSH1 0x1 SWAP5 DUP6 DUP2 AND SWAP1 DUP2 PUSH1 0x0 EQ PUSH2 0x1978 JUMPI POP PUSH1 0x1 EQ PUSH2 0x1935 JUMPI JUMPDEST POP POP PUSH2 0x1933 SWAP3 POP SUB DUP4 PUSH2 0x16B5 JUMP JUMPDEST JUMP JUMPDEST SWAP1 SWAP4 SWAP2 POP PUSH1 0x0 MSTORE PUSH1 0x20 SWAP1 DUP2 PUSH1 0x0 KECCAK256 SWAP4 PUSH1 0x0 SWAP2 JUMPDEST DUP2 DUP4 LT PUSH2 0x1960 JUMPI POP POP PUSH2 0x1933 SWAP4 POP DUP3 ADD ADD CODESIZE DUP1 PUSH2 0x1925 JUMP JUMPDEST DUP6 SLOAD DUP9 DUP5 ADD DUP6 ADD MSTORE SWAP5 DUP6 ADD SWAP5 DUP8 SWAP5 POP SWAP2 DUP4 ADD SWAP2 PUSH2 0x1948 JUMP JUMPDEST SWAP2 POP POP PUSH2 0x1933 SWAP5 POP PUSH1 0x20 SWAP3 POP PUSH1 0xFF NOT AND DUP3 DUP5 ADD MSTORE ISZERO ISZERO PUSH1 0x5 SHL DUP3 ADD ADD CODESIZE DUP1 PUSH2 0x1925 JUMP JUMPDEST PUSH1 0x0 DUP2 DUP2 MSTORE PUSH1 0x2 PUSH1 0x20 MSTORE PUSH1 0x40 SWAP1 KECCAK256 SLOAD PUSH2 0x19BE SWAP1 PUSH1 0x1 PUSH1 0x1 PUSH1 0xA0 SHL SUB AND ISZERO ISZERO PUSH2 0x184C JUMP JUMPDEST PUSH1 0x0 SWAP1 DUP2 MSTORE PUSH1 0x4 PUSH1 0x20 MSTORE PUSH1 0x40 SWAP1 KECCAK256 SLOAD PUSH1 0x1 PUSH1 0x1 PUSH1 0xA0 SHL SUB AND SWAP1 JUMP JUMPDEST ISZERO PUSH2 0x19E0 JUMPI JUMP JUMPDEST PUSH1 0x40 MLOAD PUSH3 0x461BCD PUSH1 0xE5 SHL DUP2 MSTORE PUSH1 0x20 PUSH1 0x4 DUP3 ADD MSTORE PUSH1 0x2D PUSH1 0x24 DUP3 ADD MSTORE PUSH32 0x4552433732313A2063616C6C6572206973206E6F7420746F6B656E206F776E65 PUSH1 0x44 DUP3 ADD MSTORE PUSH13 0x1C881BDC88185C1C1C9BDD9959 PUSH1 0x9A SHL PUSH1 0x64 DUP3 ADD MSTORE PUSH1 0x84 SWAP1 REVERT JUMPDEST SWAP1 PUSH2 0x1A5F SWAP4 SWAP3 SWAP2 PUSH2 0x1A4F PUSH2 0xF26 DUP5 CALLER PUSH2 0x1AD6 JUMP JUMPDEST PUSH2 0x1A5A DUP4 DUP4 DUP4 PUSH2 0x1B9E JUMP JUMPDEST PUSH2 0x1DFB JUMP JUMPDEST ISZERO PUSH2 0x1A66 JUMPI JUMP JUMPDEST PUSH1 0x40 MLOAD PUSH3 0x461BCD PUSH1 0xE5 SHL DUP2 MSTORE DUP1 PUSH2 0x1A7F PUSH1 0x4 DUP3 ADD PUSH2 0x1A83 JUMP JUMPDEST SUB SWAP1 REVERT JUMPDEST PUSH1 0x80 SWAP1 PUSH1 0x20 DUP2 MSTORE PUSH1 0x32 PUSH1 0x20 DUP3 ADD MSTORE PUSH32 0x4552433732313A207472616E7366657220746F206E6F6E204552433732315265 PUSH1 0x40 DUP3 ADD MSTORE PUSH18 0x31B2B4BB32B91034B6B83632B6B2B73A32B9 PUSH1 0x71 SHL PUSH1 0x60 DUP3 ADD MSTORE ADD SWAP1 JUMP JUMPDEST SWAP1 PUSH1 0x1 PUSH1 0x1 PUSH1 0xA0 SHL SUB DUP1 DUP1 PUSH2 0x1AEA DUP5 PUSH2 0x1898 JUMP JUMPDEST AND SWAP4 AND SWAP2 DUP4 DUP4 EQ SWAP4 DUP5 ISZERO PUSH2 0x1B1D JUMPI JUMPDEST POP DUP4 ISZERO PUSH2 0x1B07 JUMPI JUMPDEST POP POP POP SWAP1 JUMP JUMPDEST PUSH2 0x1B13 SWAP2 SWAP3 SWAP4 POP PUSH2 0x199B JUMP JUMPDEST AND EQ CODESIZE DUP1 DUP1 PUSH2 0x1B01 JUMP JUMPDEST SWAP1 SWAP4 POP PUSH1 0x0 MSTORE PUSH1 0x5 PUSH1 0x20 MSTORE PUSH1 0x40 PUSH1 0x0 KECCAK256 DUP3 PUSH1 0x0 MSTORE PUSH1 0x20 MSTORE PUSH1 0xFF PUSH1 0x40 PUSH1 0x0 KECCAK256 SLOAD AND SWAP3 CODESIZE PUSH2 0x1AF9 JUMP JUMPDEST ISZERO PUSH2 0x1B4B JUMPI JUMP JUMPDEST PUSH1 0x40 MLOAD PUSH3 0x461BCD PUSH1 0xE5 SHL DUP2 MSTORE PUSH1 0x20 PUSH1 0x4 DUP3 ADD MSTORE PUSH1 0x25 PUSH1 0x24 DUP3 ADD MSTORE PUSH32 0x4552433732313A207472616E736665722066726F6D20696E636F727265637420 PUSH1 0x44 DUP3 ADD MSTORE PUSH5 0x37BBB732B9 PUSH1 0xD9 SHL PUSH1 0x64 DUP3 ADD MSTORE PUSH1 0x84 SWAP1 REVERT JUMPDEST PUSH2 0x1BC2 SWAP2 PUSH2 0x1BAB DUP5 PUSH2 0x1898 JUMP JUMPDEST PUSH1 0x1 PUSH1 0x1 PUSH1 0xA0 SHL SUB SWAP4 DUP5 DUP5 AND SWAP4 SWAP2 DUP6 AND DUP5 EQ PUSH2 0x1B44 JUMP JUMPDEST DUP4 DUP3 AND SWAP4 DUP5 ISZERO PUSH2 0x1DAA JUMPI DUP4 SWAP2 DUP3 PUSH2 0x1CF1 JUMPI POP SWAP1 POP PUSH1 0x8 SLOAD SWAP1 DUP6 PUSH1 0x0 MSTORE PUSH1 0x9 PUSH1 0x20 MSTORE DUP2 PUSH1 0x40 PUSH1 0x0 KECCAK256 SSTORE PUSH1 0x1 PUSH1 0x40 SHL DUP3 LT ISZERO PUSH2 0x169F JUMPI PUSH2 0x1C43 SWAP3 PUSH2 0x1C2A DUP8 PUSH2 0x1C0F DUP6 PUSH1 0x1 DUP10 SWAP8 ADD PUSH1 0x8 SSTORE PUSH2 0x1F69 JUMP JUMPDEST SWAP1 SWAP2 SWAP1 DUP3 SLOAD SWAP1 PUSH1 0x3 SHL PUSH1 0x0 NOT DUP2 SHL SWAP3 DUP4 SWAP2 SHL AND SWAP2 NOT AND OR SWAP1 SSTORE JUMP JUMPDEST DUP3 DUP7 SUB PUSH2 0x1CBE JUMPI JUMPDEST POP PUSH2 0x1C3C DUP7 PUSH2 0x1898 JUMP JUMPDEST AND EQ PUSH2 0x1B44 JUMP JUMPDEST PUSH32 0xDDF252AD1BE2C89B69C2B068FC378DAA952BA7F163C4A11628F55A4DF523B3EF PUSH1 0x0 DUP5 DUP2 MSTORE PUSH1 0x4 PUSH1 0x20 MSTORE PUSH1 0x40 DUP2 KECCAK256 PUSH1 0x1 PUSH1 0x1 PUSH1 0x60 SHL SUB PUSH1 0xA0 SHL SWAP1 DUP2 DUP2 SLOAD AND SWAP1 SSTORE DUP4 DUP3 MSTORE PUSH1 0x3 PUSH1 0x20 MSTORE PUSH1 0x40 DUP3 KECCAK256 PUSH1 0x0 NOT DUP2 SLOAD ADD SWAP1 SSTORE DUP5 DUP3 MSTORE PUSH1 0x40 DUP3 KECCAK256 PUSH1 0x1 DUP2 SLOAD ADD SWAP1 SSTORE DUP6 DUP3 MSTORE PUSH1 0x2 PUSH1 0x20 MSTORE DUP5 PUSH1 0x40 DUP4 KECCAK256 SWAP2 DUP3 SLOAD AND OR SWAP1 SSTORE DUP1 LOG4 JUMP JUMPDEST PUSH2 0x1CC7 SWAP1 PUSH2 0x17D5 JUMP JUMPDEST PUSH1 0x40 PUSH1 0x0 DUP8 DUP2 MSTORE PUSH1 0x6 PUSH1 0x20 MSTORE DUP2 DUP2 KECCAK256 DUP4 DUP3 MSTORE PUSH1 0x20 MSTORE DUP9 DUP3 DUP3 KECCAK256 SSTORE DUP9 DUP2 MSTORE PUSH1 0x7 PUSH1 0x20 MSTORE KECCAK256 SSTORE CODESIZE PUSH2 0x1C32 JUMP JUMPDEST DUP6 DUP4 SUB PUSH2 0x1D03 JUMPI JUMPDEST POP PUSH2 0x1C43 SWAP3 PUSH2 0x1C2A JUMP JUMPDEST PUSH2 0x1D0E SWAP2 SWAP3 POP PUSH2 0x17D5 JUMP JUMPDEST PUSH1 0x0 NOT DUP2 ADD SWAP2 SWAP1 DUP3 GT PUSH2 0x1D94 JUMPI PUSH2 0x1C43 SWAP3 DUP5 SWAP3 PUSH1 0x0 SWAP1 DUP9 DUP3 MSTORE PUSH1 0x20 SWAP1 PUSH1 0x7 DUP3 MSTORE PUSH1 0x40 SWAP2 DUP3 DUP5 KECCAK256 SLOAD DUP3 DUP2 SUB PUSH2 0x1D5D JUMPI JUMPDEST POP DUP11 DUP5 MSTORE DUP4 DUP4 DUP2 KECCAK256 SSTORE DUP7 DUP5 MSTORE PUSH1 0x6 DUP2 MSTORE DUP3 DUP5 KECCAK256 SWAP2 DUP5 MSTORE MSTORE DUP2 KECCAK256 SSTORE SWAP3 PUSH2 0x1CF9 JUMP JUMPDEST DUP8 DUP6 MSTORE PUSH1 0x6 DUP3 MSTORE DUP4 DUP6 KECCAK256 DUP4 DUP7 MSTORE DUP3 MSTORE DUP4 DUP6 KECCAK256 SLOAD DUP9 DUP7 MSTORE PUSH1 0x6 DUP4 MSTORE DUP5 DUP7 KECCAK256 DUP3 DUP8 MSTORE DUP4 MSTORE DUP1 DUP6 DUP8 KECCAK256 SSTORE DUP6 MSTORE PUSH1 0x7 DUP3 MSTORE DUP4 DUP6 KECCAK256 SSTORE CODESIZE PUSH2 0x1D3D JUMP JUMPDEST PUSH4 0x4E487B71 PUSH1 0xE0 SHL PUSH1 0x0 MSTORE PUSH1 0x11 PUSH1 0x4 MSTORE PUSH1 0x24 PUSH1 0x0 REVERT JUMPDEST PUSH1 0x40 MLOAD PUSH3 0x461BCD PUSH1 0xE5 SHL DUP2 MSTORE PUSH1 0x20 PUSH1 0x4 DUP3 ADD MSTORE PUSH1 0x24 DUP1 DUP3 ADD MSTORE PUSH32 0x4552433732313A207472616E7366657220746F20746865207A65726F20616464 PUSH1 0x44 DUP3 ADD MSTORE PUSH4 0x72657373 PUSH1 0xE0 SHL PUSH1 0x64 DUP3 ADD MSTORE PUSH1 0x84 SWAP1 REVERT JUMPDEST SWAP3 SWAP4 PUSH1 0x0 SWAP4 SWAP1 SWAP3 SWAP2 DUP1 EXTCODESIZE ISZERO PUSH2 0x1F11 JUMPI SWAP5 DUP5 SWAP2 PUSH2 0x1E55 SWAP7 PUSH1 0x40 MLOAD DUP1 SWAP5 DUP2 SWAP4 PUSH4 0xA85BD01 PUSH1 0xE1 SHL SWAP8 DUP9 DUP5 MSTORE CALLER PUSH1 0x4 DUP6 ADD MSTORE PUSH1 0x1 DUP1 PUSH1 0xA0 SHL SUB DUP1 SWAP3 AND PUSH1 0x24 DUP6 ADD MSTORE PUSH1 0x44 DUP5 ADD MSTORE PUSH1 0x80 PUSH1 0x64 DUP5 ADD MSTORE DUP3 PUSH1 0x20 SWAP12 DUP13 SWAP8 PUSH1 0x84 DUP4 ADD SWAP1 PUSH2 0x15CB JUMP JUMPDEST SUB SWAP4 AND GAS CALL DUP5 SWAP2 DUP2 PUSH2 0x1ED1 JUMPI JUMPDEST POP PUSH2 0x1EC0 JUMPI POP POP POP RETURNDATASIZE PUSH1 0x0 EQ PUSH2 0x1EB8 JUMPI RETURNDATASIZE PUSH2 0x1E7C DUP2 PUSH2 0x16D7 JUMP JUMPDEST SWAP1 PUSH2 0x1E8A PUSH1 0x40 MLOAD SWAP3 DUP4 PUSH2 0x16B5 JUMP JUMPDEST DUP2 MSTORE DUP1 SWAP2 DUP4 RETURNDATASIZE SWAP3 ADD RETURNDATACOPY JUMPDEST DUP1 MLOAD SWAP2 DUP3 PUSH2 0x1EB5 JUMPI PUSH1 0x40 MLOAD PUSH3 0x461BCD PUSH1 0xE5 SHL DUP2 MSTORE DUP1 PUSH2 0x1A7F PUSH1 0x4 DUP3 ADD PUSH2 0x1A83 JUMP JUMPDEST ADD REVERT JUMPDEST POP PUSH1 0x60 PUSH2 0x1E94 JUMP JUMPDEST PUSH1 0x1 PUSH1 0x1 PUSH1 0xE0 SHL SUB NOT AND EQ SWAP3 POP SWAP1 POP JUMP JUMPDEST SWAP1 SWAP2 POP DUP6 DUP2 DUP2 RETURNDATASIZE DUP4 GT PUSH2 0x1F0A JUMPI JUMPDEST PUSH2 0x1EE9 DUP2 DUP4 PUSH2 0x16B5 JUMP JUMPDEST DUP2 ADD SUB SLT PUSH2 0x592 JUMPI MLOAD PUSH1 0x1 PUSH1 0x1 PUSH1 0xE0 SHL SUB NOT DUP2 AND DUP2 SUB PUSH2 0x592 JUMPI SWAP1 CODESIZE PUSH2 0x1E62 JUMP JUMPDEST POP RETURNDATASIZE PUSH2 0x1EDF JUMP JUMPDEST POP POP POP SWAP2 POP POP PUSH1 0x1 SWAP1 JUMP JUMPDEST PUSH1 0xE SLOAD DUP2 LT ISZERO PUSH2 0x1F53 JUMPI PUSH1 0xE PUSH1 0x0 MSTORE PUSH32 0xBB7B4A454DC3493923482F07822329ED19E8244EFF582CC204F8554C3620C3FD ADD SWAP1 PUSH1 0x0 SWAP1 JUMP JUMPDEST PUSH4 0x4E487B71 PUSH1 0xE0 SHL PUSH1 0x0 MSTORE PUSH1 0x32 PUSH1 0x4 MSTORE PUSH1 0x24 PUSH1 0x0 REVERT JUMPDEST PUSH1 0x8 SLOAD DUP2 LT ISZERO PUSH2 0x1F53 JUMPI PUSH1 0x8 PUSH1 0x0 MSTORE PUSH32 0xF3F7A9FE364FAAB93B216DA50A3214154F22A0A2B415B23A84C8169E8B636EE3 ADD SWAP1 PUSH1 0x0 SWAP1 JUMP JUMPDEST SWAP2 SWAP1 SWAP2 DUP3 MLOAD PUSH8 0xFFFFFFFFFFFFFFFF DUP2 GT PUSH2 0x169F JUMPI PUSH2 0x1FBE DUP3 SLOAD PUSH2 0x18BB JUMP JUMPDEST PUSH1 0x1F DUP2 GT PUSH2 0x2068 JUMPI JUMPDEST POP PUSH1 0x20 DUP1 PUSH1 0x1F DUP4 GT PUSH1 0x1 EQ PUSH2 0x2004 JUMPI POP DUP2 SWAP3 SWAP4 SWAP5 PUSH1 0x0 SWAP3 PUSH2 0x1FF9 JUMPI JUMPDEST POP POP DUP2 PUSH1 0x1 SHL SWAP2 PUSH1 0x0 NOT SWAP1 PUSH1 0x3 SHL SHR NOT AND OR SWAP1 SSTORE JUMP JUMPDEST ADD MLOAD SWAP1 POP CODESIZE DUP1 PUSH2 0x1FE3 JUMP JUMPDEST SWAP1 PUSH1 0x1F NOT DUP4 AND SWAP6 DUP5 PUSH1 0x0 MSTORE DUP3 PUSH1 0x0 KECCAK256 SWAP3 PUSH1 0x0 SWAP1 JUMPDEST DUP9 DUP3 LT PUSH2 0x2050 JUMPI POP POP DUP4 PUSH1 0x1 SWAP6 SWAP7 SWAP8 LT PUSH2 0x2037 JUMPI JUMPDEST POP POP POP DUP2 SHL ADD SWAP1 SSTORE JUMP JUMPDEST ADD MLOAD PUSH1 0x0 NOT PUSH1 0xF8 DUP5 PUSH1 0x3 SHL AND SHR NOT AND SWAP1 SSTORE CODESIZE DUP1 DUP1 PUSH2 0x202D JUMP JUMPDEST DUP1 PUSH1 0x1 DUP6 SWAP7 DUP3 SWAP5 SWAP7 DUP7 ADD MLOAD DUP2 SSTORE ADD SWAP6 ADD SWAP4 ADD SWAP1 PUSH2 0x2018 JUMP JUMPDEST PUSH1 0x0 DUP4 DUP2 MSTORE PUSH1 0x20 DUP2 KECCAK256 PUSH1 0x1F DUP5 ADD PUSH1 0x5 SHR DUP2 ADD SWAP3 PUSH1 0x20 DUP6 LT PUSH2 0x20A6 JUMPI JUMPDEST PUSH1 0x1F ADD PUSH1 0x5 SHR ADD SWAP2 JUMPDEST DUP3 DUP2 LT PUSH2 0x209B JUMPI POP POP PUSH2 0x1FC7 JUMP JUMPDEST DUP2 DUP2 SSTORE PUSH1 0x1 ADD PUSH2 0x208D JUMP JUMPDEST SWAP1 SWAP3 POP DUP3 SWAP1 PUSH2 0x2084 JUMP JUMPDEST PUSH1 0x20 SWAP1 PUSH2 0x20CA SWAP3 DUP3 PUSH1 0x40 MLOAD SWAP5 DUP4 DUP7 DUP1 SWAP6 MLOAD SWAP4 DUP5 SWAP3 ADD PUSH2 0x15A8 JUMP JUMPDEST DUP3 ADD SWAP1 DUP2 MSTORE SUB ADD SWAP1 KECCAK256 SWAP1 JUMP JUMPDEST PUSH1 0x0 NOT DUP2 EQ PUSH2 0x1D94 JUMPI PUSH1 0x1 ADD SWAP1 JUMP JUMPDEST SWAP1 PUSH1 0x40 MLOAD DUP1 SWAP3 PUSH1 0x0 SWAP1 DUP1 SLOAD PUSH2 0x20F9 DUP2 PUSH2 0x18BB JUMP JUMPDEST SWAP2 PUSH1 0x1 SWAP2 DUP1 DUP4 AND SWAP1 DUP2 ISZERO PUSH2 0x215D JUMPI POP PUSH1 0x1 EQ PUSH2 0x211F JUMPI JUMPDEST POP POP POP PUSH1 0x20 SWAP3 DUP2 MSTORE SUB ADD SWAP1 KECCAK256 SWAP1 JUMP JUMPDEST PUSH1 0x0 SWAP1 DUP2 MSTORE PUSH1 0x20 DUP1 DUP3 KECCAK256 SWAP7 SWAP5 POP SWAP2 JUMPDEST DUP4 DUP3 LT PUSH2 0x2147 JUMPI POP POP POP PUSH1 0x20 SWAP4 POP DUP3 ADD SWAP1 SWAP3 CODESIZE DUP1 PUSH2 0x2110 JUMP JUMPDEST DUP7 SLOAD DUP9 DUP4 ADD MSTORE SWAP6 DUP7 ADD SWAP6 DUP8 SWAP6 POP SWAP1 DUP3 ADD SWAP1 PUSH2 0x212E JUMP JUMPDEST PUSH1 0xFF NOT AND DUP7 MSTORE POP POP POP DUP1 ISZERO ISZERO MUL DUP3 ADD SWAP1 POP PUSH1 0x20 CODESIZE DUP1 PUSH2 0x2110 JUMP JUMPDEST PUSH8 0xFFFFFFFFFFFFFFFF DUP2 GT PUSH2 0x169F JUMPI PUSH1 0x5 SHL PUSH1 0x20 ADD SWAP1 JUMP JUMPDEST DUP1 MLOAD DUP3 LT ISZERO PUSH2 0x1F53 JUMPI PUSH1 0x20 SWAP2 PUSH1 0x5 SHL ADD ADD SWAP1 JUMP JUMPDEST PUSH1 0xE SLOAD PUSH1 0x1 PUSH1 0x40 SHL DUP2 LT ISZERO PUSH2 0x169F JUMPI DUP1 PUSH1 0x1 PUSH2 0x21C2 SWAP3 ADD PUSH1 0xE SSTORE PUSH2 0x1F1C JUMP JUMPDEST SWAP2 SWAP1 SWAP2 PUSH2 0x21D2 JUMPI PUSH2 0x1933 SWAP2 PUSH2 0x1FA0 JUMP JUMPDEST PUSH4 0x4E487B71 PUSH1 0xE0 SHL PUSH1 0x0 MSTORE PUSH1 0x0 PUSH1 0x4 MSTORE PUSH1 0x24 PUSH1 0x0 REVERT JUMPDEST SWAP2 PUSH2 0x2211 SWAP1 PUSH2 0x2203 PUSH2 0x1745 SWAP6 SWAP4 PUSH1 0x60 DUP7 MSTORE PUSH1 0x60 DUP7 ADD SWAP1 PUSH2 0x15CB JUMP JUMPDEST SWAP1 DUP5 DUP3 SUB PUSH1 0x20 DUP7 ADD MSTORE PUSH2 0x15CB JUMP JUMPDEST SWAP2 PUSH1 0x40 DUP2 DUP5 SUB SWAP2 ADD MSTORE PUSH2 0x15CB JUMP JUMPDEST ISZERO PUSH2 0x2226 JUMPI JUMP JUMPDEST PUSH1 0x40 MLOAD PUSH3 0x461BCD PUSH1 0xE5 SHL DUP2 MSTORE PUSH1 0x20 PUSH1 0x4 DUP3 ADD MSTORE PUSH1 0x1C PUSH1 0x24 DUP3 ADD MSTORE PUSH32 0x4552433732313A20746F6B656E20616C7265616479206D696E74656400000000 PUSH1 0x44 DUP3 ADD MSTORE PUSH1 0x64 SWAP1 REVERT JUMPDEST PUSH1 0x1 PUSH1 0x1 PUSH1 0xA0 SHL SUB DUP2 AND SWAP1 DUP2 ISZERO PUSH2 0x2384 JUMPI PUSH1 0x0 DUP4 DUP2 MSTORE PUSH1 0x2 PUSH1 0x20 MSTORE PUSH1 0x40 SWAP1 KECCAK256 SLOAD PUSH2 0x22A1 SWAP1 PUSH1 0x1 PUSH1 0x1 PUSH1 0xA0 SHL SUB AND ISZERO ISZERO JUMPDEST ISZERO PUSH2 0x221F JUMP JUMPDEST PUSH1 0x8 SLOAD PUSH1 0x0 SWAP2 DUP5 DUP4 MSTORE PUSH1 0x20 SWAP1 PUSH1 0x9 DUP3 MSTORE PUSH1 0x40 SWAP3 DUP1 DUP5 DUP7 KECCAK256 SSTORE PUSH1 0x1 PUSH1 0x40 SHL DUP2 LT ISZERO PUSH2 0x2370 JUMPI PUSH1 0x2 SWAP3 SWAP2 PUSH2 0xBAC DUP9 PUSH2 0x1C0F DUP5 PUSH1 0x1 PUSH2 0x22E0 SWAP7 ADD PUSH1 0x8 SSTORE PUSH2 0x1F69 JUMP JUMPDEST DUP6 DUP6 MSTORE PUSH1 0x6 DUP3 MSTORE DUP4 DUP6 KECCAK256 DUP2 DUP7 MSTORE DUP3 MSTORE DUP4 DUP6 KECCAK256 DUP8 SWAP1 SSTORE DUP7 DUP6 MSTORE PUSH1 0x7 DUP3 MSTORE DUP4 DUP6 KECCAK256 SSTORE PUSH1 0x0 DUP7 DUP2 MSTORE PUSH1 0x2 PUSH1 0x20 MSTORE PUSH1 0x40 SWAP1 KECCAK256 SLOAD PUSH2 0x2323 SWAP1 PUSH1 0x1 PUSH1 0x1 PUSH1 0xA0 SHL SUB AND ISZERO ISZERO PUSH2 0x229B JUMP JUMPDEST DUP5 DUP5 MSTORE PUSH1 0x3 DUP2 MSTORE DUP3 DUP5 KECCAK256 DUP1 SLOAD PUSH1 0x1 ADD SWAP1 SSTORE DUP6 DUP5 MSTORE MSTORE DUP2 KECCAK256 DUP1 SLOAD PUSH1 0x1 PUSH1 0x1 PUSH1 0xA0 SHL SUB NOT AND DUP4 OR SWAP1 SSTORE PUSH32 0xDDF252AD1BE2C89B69C2B068FC378DAA952BA7F163C4A11628F55A4DF523B3EF DUP2 DUP1 LOG4 JUMP JUMPDEST PUSH4 0x4E487B71 PUSH1 0xE0 SHL DUP6 MSTORE PUSH1 0x41 PUSH1 0x4 MSTORE PUSH1 0x24 DUP6 REVERT JUMPDEST PUSH1 0x64 PUSH1 0x40 MLOAD PUSH3 0x461BCD PUSH1 0xE5 SHL DUP2 MSTORE PUSH1 0x20 PUSH1 0x4 DUP3 ADD MSTORE PUSH1 0x20 PUSH1 0x24 DUP3 ADD MSTORE PUSH32 0x4552433732313A206D696E7420746F20746865207A65726F2061646472657373 PUSH1 0x44 DUP3 ADD MSTORE REVERT INVALID LOG2 PUSH5 0x6970667358 0x22 SLT KECCAK256 0xB2 0xBB PUSH6 0x33F02C586E9D 0xE PUSH17 0x477B99644D895DBFE3AB867DFC0121776D PUSH14 0x79794C64736F6C63430008110033 "},"methodIdentifiers":{"adminMintPOAP(address,string,string,string)":"de9aeb31","approve(address,uint256)":"095ea7b3","balanceOf(address)":"70a08231","getAllCountries()":"0d4bf50d","getApproved(uint256)":"081812fc","getCountriesVisitedByUser(address)":"1ae1a479","getPOAPData(uint256)":"f728ff4b","hasVisitedCountry(address,string)":"99a681cf","isApprovedForAll(address,address)":"e985e9c5","mintPOAP(string,string,string)":"170c788d","name()":"06fdde03","owner()":"8da5cb5b","ownerOf(uint256)":"6352211e","renounceOwnership()":"715018a6","safeTransferFrom(address,address,uint256)":"42842e0e","safeTransferFrom(address,address,uint256,bytes)":"b88d4fde","setApprovalForAll(address,bool)":"a22cb465","setBaseURI(string)":"55f804b3","supportsInterface(bytes4)":"01ffc9a7","symbol()":"95d89b41","tokenByIndex(uint256)":"4f6ccce7","tokenOfOwnerByIndex(address,uint256)":"2f745c59","tokenURI(uint256)":"c87b56dd","totalSupply()":"18160ddd","transferFrom(address,address,uint256)":"23b872dd","transferOwnership(address)":"f2fde38b"}}}}}