{"contracts/POAPContract.sol":{"ZKStampsPOAP":{"abi":[{"inputs":[],"stateMutability":"nonpayable","type":"constructor"},{"anonymous":false,"inputs":[{"indexed":true,"internalType":"address","name":"owner","type":"address"},{"indexed":true,"internalType":"address","name":"approved","type":"address"},{"indexed":true,"internalType":"uint256","name":"tokenId","type":"uint256"}],"name":"Approval","type":"event"},{"anonymous":false,"inputs":[{"indexed":true,"internalType":"address","name":"owner","type":"address"},{"indexed":true,"internalType":"address","name":"operator","type":"address"},{"indexed":false,"internalType":"bool","name":"approved","type":"bool"}],"name":"ApprovalForAll","type":"event"},{"anonymous":false,"inputs":[{"indexed":false,"internalType":"uint256","name":"_fromTokenId","type":"uint256"},{"indexed":false,"internalType":"uint256","name":"_toTokenId","type":"uint256"}],"name":"BatchMetadataUpdate","type":"event"},{"anonymous":false,"inputs":[{"indexed":false,"internalType":"uint256","name":"_tokenId","type":"uint256"}],"name":"MetadataUpdate","type":"event"},{"anonymous":false,"inputs":[{"indexed":true,"internalType":"address","name":"previousOwner","type":"address"},{"indexed":true,"internalType":"address","name":"newOwner","type":"address"}],"name":"OwnershipTransferred","type":"event"},{"anonymous":false,"inputs":[{"indexed":true,"internalType":"address","name":"recipient","type":"address"},{"indexed":true,"internalType":"uint256","name":"tokenId","type":"uint256"},{"indexed":false,"internalType":"string","name":"countryCode","type":"string"},{"indexed":false,"internalType":"int256","name":"latitude","type":"int256"},{"indexed":false,"internalType":"int256","name":"longitude","type":"int256"}],"name":"POAPMinted","type":"event"},{"anonymous":false,"inputs":[{"indexed":true,"internalType":"address","name":"from","type":"address"},{"indexed":true,"internalType":"address","name":"to","type":"address"},{"indexed":true,"internalType":"uint256","name":"tokenId","type":"uint256"}],"name":"Transfer","type":"event"},{"inputs":[{"internalType":"address","name":"to","type":"address"},{"internalType":"uint256","name":"tokenId","type":"uint256"}],"name":"approve","outputs":[],"stateMutability":"nonpayable","type":"function"},{"inputs":[{"internalType":"address","name":"owner","type":"address"}],"name":"balanceOf","outputs":[{"internalType":"uint256","name":"","type":"uint256"}],"stateMutability":"view","type":"function"},{"inputs":[{"internalType":"uint256","name":"tokenId","type":"uint256"}],"name":"getApproved","outputs":[{"internalType":"address","name":"","type":"address"}],"stateMutability":"view","type":"function"},{"inputs":[{"internalType":"uint256","name":"tokenId","type":"uint256"}],"name":"getPOAPData","outputs":[{"components":[{"internalType":"string","name":"countryCode","type":"string"},{"internalType":"string","name":"countryName","type":"string"},{"internalType":"int256","name":"latitude","type":"int256"},{"internalType":"int256","name":"longitude","type":"int256"},{"internalType":"uint256","name":"timestamp","type":"uint256"},{"internalType":"address","name":"owner","type":"address"}],"internalType":"struct ZKStampsPOAP.POAPData","name":"","type":"tuple"}],"stateMutability":"view","type":"function"},{"inputs":[{"internalType":"address","name":"owner","type":"address"}],"name":"getPOAPsByOwner","outputs":[{"internalType":"uint256[]","name":"","type":"uint256[]"}],"stateMutability":"view","type":"function"},{"inputs":[{"internalType":"address","name":"owner","type":"address"},{"internalType":"string","name":"countryCode","type":"string"}],"name":"hasVisitedCountry","outputs":[{"internalType":"bool","name":"","type":"bool"}],"stateMutability":"view","type":"function"},{"inputs":[{"internalType":"address","name":"owner","type":"address"},{"internalType":"address","name":"operator","type":"address"}],"name":"isApprovedForAll","outputs":[{"internalType":"bool","name":"","type":"bool"}],"stateMutability":"view","type":"function"},{"inputs":[{"internalType":"address","name":"recipient","type":"address"},{"internalType":"string","name":"countryCode","type":"string"},{"internalType":"string","name":"countryName","type":"string"},{"internalType":"int256[2]","name":"coordinates","type":"int256[2]"},{"internalType":"uint256","name":"timestamp","type":"uint256"}],"name":"mintPOAP","outputs":[{"internalType":"uint256","name":"","type":"uint256"}],"stateMutability":"nonpayable","type":"function"},{"inputs":[],"name":"name","outputs":[{"internalType":"string","name":"","type":"string"}],"stateMutability":"view","type":"function"},{"inputs":[],"name":"owner","outputs":[{"internalType":"address","name":"","type":"address"}],"stateMutability":"view","type":"function"},{"inputs":[{"internalType":"uint256","name":"tokenId","type":"uint256"}],"name":"ownerOf","outputs":[{"internalType":"address","name":"","type":"address"}],"stateMutability":"view","type":"function"},{"inputs":[],"name":"renounceOwnership","outputs":[],"stateMutability":"nonpayable","type":"function"},{"inputs":[{"internalType":"address","name":"from","type":"address"},{"internalType":"address","name":"to","type":"address"},{"internalType":"uint256","name":"tokenId","type":"uint256"}],"name":"safeTransferFrom","outputs":[],"stateMutability":"nonpayable","type":"function"},{"inputs":[{"internalType":"address","name":"from","type":"address"},{"internalType":"address","name":"to","type":"address"},{"internalType":"uint256","name":"tokenId","type":"uint256"},{"internalType":"bytes","name":"data","type":"bytes"}],"name":"safeTransferFrom","outputs":[],"stateMutability":"nonpayable","type":"function"},{"inputs":[{"internalType":"address","name":"operator","type":"address"},{"internalType":"bool","name":"approved","type":"bool"}],"name":"setApprovalForAll","outputs":[],"stateMutability":"nonpayable","type":"function"},{"inputs":[{"internalType":"bytes4","name":"interfaceId","type":"bytes4"}],"name":"supportsInterface","outputs":[{"internalType":"bool","name":"","type":"bool"}],"stateMutability":"view","type":"function"},{"inputs":[],"name":"symbol","outputs":[{"internalType":"string","name":"","type":"string"}],"stateMutability":"view","type":"function"},{"inputs":[{"internalType":"uint256","name":"tokenId","type":"uint256"}],"name":"tokenURI","outputs":[{"internalType":"string","name":"","type":"string"}],"stateMutability":"view","type":"function"},{"inputs":[{"internalType":"address","name":"from","type":"address"},{"internalType":"address","name":"to","type":"address"},{"internalType":"uint256","name":"tokenId","type":"uint256"}],"name":"transferFrom","outputs":[],"stateMutability":"nonpayable","type":"function"},{"inputs":[{"internalType":"address","name":"newOwner","type":"address"}],"name":"transferOwnership","outputs":[],"stateMutability":"nonpayable","type":"function"}],"evm":{"bytecode":{"linkReferences":{},"object":"6080346200036e576001600160401b039060408181018381118382101762000358578152601482526020917f7a6b5374616d70732054726176656c20504f4150000000000000000000000000838201528151938285018581108282111762000358578352600785526605a4b5354414d560cc1b84860152815181811162000358576000948554916001948584811c941680156200034d575b8385101462000339578190601f94858111620002e6575b5083908583116001146200028257899262000276575b5050600019600383901b1c191690851b1786555b8651928311620002625783548481811c9116801562000257575b828210146200024357828111620001fb575b50809183116001146200019457508495829394959262000188575b5050600019600383901b1c191690821b1790555b60078054336001600160a01b03198216811790925591519290916001600160a01b0316907f8be0079c531659141344cd1fd0a4f28419497f9722a3daafe3b4186f6b6457e09080a36125069081620003748239f35b0151905038806200011f565b90601f198316968487528287209287905b898210620001e3575050838596979810620001c9575b505050811b01905562000133565b015160001960f88460031b161c19169055388080620001bb565b808785968294968601518155019501930190620001a5565b8487528187208380860160051c82019284871062000239575b0160051c019085905b8281106200022d57505062000104565b8881550185906200021d565b9250819262000214565b634e487b7160e01b87526022600452602487fd5b90607f1690620000f2565b634e487b7160e01b86526041600452602486fd5b015190503880620000c4565b898052848a208894509190601f1984168b5b87828210620002cf5750508411620002b5575b505050811b018655620000d8565b015160001960f88460031b161c19169055388080620002a7565b8385015186558b9790950194938401930162000294565b9091508880528389208580850160051c8201928686106200032f575b918991869594930160051c01915b82811062000320575050620000ae565b8b815585945089910162000310565b9250819262000302565b634e487b7160e01b88526022600452602488fd5b93607f169362000097565b634e487b7160e01b600052604160045260246000fd5b600080fdfe608080604052600436101561001357600080fd5b60003560e01c90816301ffc9a7146117855750806306fdde03146116e2578063081812fc146116c4578063095ea7b31461154a57806323b872dd1461152657806342842e0e146114f357806361875a051461143f5780636352211e1461140f57806370a0823114611378578063715018a61461131b5780638da5cb5b146112f257806395d89b411461121357806399a681cf146111955780639a0a672b14610573578063a22cb465146104a1578063b88d4fde1461041a578063c87b56dd146103a4578063e985e9c51461034e578063f2fde38b146102855763f728ff4b146100fb57600080fd5b34610280576020806003193601126102805760043590600060a0604051610121816118b3565b60608152606084820152826040820152826060820152826080820152015261015e82600052600260205260018060a01b0360406000205416151590565b1561022a5760c091600052600981526040600020600560405192610181846118b3565b61018a83611a7b565b845261019860018401611a7b565b928185019384526002810154936040860194855261020c600383015491606088019283526101f960048501549460808a0195865260018060a01b039788910154169560a08a019687526040519a8b9a828c5251918b015260e08a019061182d565b9051888203601f190160408a015261182d565b945160608701525160808601525160a0850152511660c08301520390f35b6084906040519062461bcd60e51b82526004820152602960248201527f5a4b5374616d7073504f41503a20517565727920666f72206e6f6e657869737460448201526832b73a103a37b5b2b760b91b6064820152fd5b600080fd5b346102805760203660031901126102805761029e611852565b6102a661197a565b6001600160a01b039081169081156102fa57600754826bffffffffffffffffffffffff60a01b821617600755167f8be0079c531659141344cd1fd0a4f28419497f9722a3daafe3b4186f6b6457e0600080a3005b60405162461bcd60e51b815260206004820152602660248201527f4f776e61626c653a206e6577206f776e657220697320746865207a65726f206160448201526564647265737360d01b6064820152608490fd5b3461028057604036600319011261028057610367611852565b61036f611868565b9060018060a01b03809116600052600560205260406000209116600052602052602060ff604060002054166040519015158152f35b34610280576020366003190112610280576004356000818152600260205260409020546103db906001600160a01b031615156119d2565b60005260066020526104166103f36040600020611a7b565b6000604051610401816118ce565b5260405191829160208352602083019061182d565b0390f35b3461028057608036600319011261028057610433611852565b61043b611868565b90606435906044356001600160401b03831161028057366023840112156102805761049f9361047761049a943690602481600401359101611925565b9261048a6104858433611c38565b611b5f565b610495838383611d00565b611f36565b611c14565b005b34610280576040366003190112610280576104ba611852565b60243590811515809203610280576001600160a01b03169033821461052e57336000526005602052604060002082600052602052604060002060ff1981541660ff83161790556040519081527f17307eab39ab6107e8899845ad3d59bd9653f200f220920489ca2b5937696c3160203392a3005b60405162461bcd60e51b815260206004820152601960248201527f4552433732313a20617070726f766520746f2063616c6c6572000000000000006044820152606490fd5b346102805760c03660031901126102805761058c611852565b6024356001600160401b038111610280576105ab90369060040161195c565b6044356001600160401b038111610280576105ca90369060040161195c565b366083121561028057604051604081018181106001600160401b03821117610ec957604052803660a411610280576064905b60a4821061118557505061060e61197a565b60018060a01b038416600052600b60205260ff604060002060206040518092875161063c8184868c0161180a565b8201908152030190205416611121576008549160018301600855604051602081018181106001600160401b03821117610ec957604052600081526001600160a01b038616156110dd5760008481526002602052604090205461073f9161049a916106b2906001600160a01b031615155b15611fc1565b6000868152600260205260409020546106d5906001600160a01b031615156106ac565b6001600160a01b0388166000818152600360209081526040808320805460010190558983526002909152812080546001600160a01b031916831790558791907fddf252ad1be2c89b69c2b068fc378daa952ba7f163c4a11628f55a4df523b3ef8180a48588611e16565b815160208301519060405192610754846118b3565b86845260208401526040830152606082015260a435608082015260018060a01b03851660a0820152826000526009602052604060002081518051906001600160401b038211610ec95781906107a98454611a41565b601f811161108d575b50602090601f831160011461102157600092611016575b50508160011b916000199060031b1c19161781555b60208201518051906001600160401b038211610ec9576108016001840154611a41565b601f8111610fcf575b50602090601f8311600114610f5c57600593929160009183610f51575b50508160011b916000199060031b1c19161760018201555b6040838101516002830155606084015160038301556080840151600483015560a090930151910180546001600160a01b0319166001600160a01b0392831617905585166000908152600a60205220805468010000000000000000811015610ec95760018101808355811015610f3b5783916000526020600020015560018060a01b038416600052600b60205260406000206020604051809286516108e68184868b0161180a565b820190815203019020600160ff19825416179055816000526009602052610c876040600020610c8261017e60405161091d816118b3565b61092684611a7b565b815261093460018501611a7b565b6020820190815260028501549485604084015261099361098861098160038401549860608701998a5260048501549460808801958652600560018060a01b039101541660a08801526122ee565b97516122ee565b9251935191516121ab565b9061099d426121ab565b926040519788957f7b226e616d65223a202254726176656c20504f4150202d2000000000000000006020880152805190610ab460208201926109e38160388c018661180a565b89016201116160ed1b60388201527f226465736372697074696f6e223a202250726f6f66206f662074726176656c20603b8201526203a37960ed1b605b820152825190610a3482605e83018761180a565b01917f207665726966696564206279207a6b5374616d7073222c200000000000000000605e8401526e2261747472696275746573223a205b60881b60768401527f7b2274726169745f74797065223a2022436f756e747279222c202276616c7565608584015263111d101160e11b60a584015251809360a984019061180a565b0192630113e96160e51b938460a98201527f7b2274726169745f74797065223a2022436f756e74727920436f6465222c202260ad820152683b30b63ab2911d101160b91b60cd820152610b1182518093602060d68501910161180a565b018360d68201527f7b2274726169745f74797065223a20224c61746974756465222c202276616c7560da8201526432911d101160d91b60fa820152610b6082518093602060ff8501910161180a565b018260ff8201527f7b2274726169745f74797065223a20224c6f6e676974756465222c202276616c61010382015282653ab2911d101160d11b9182610123820152835190610bb882610129966020888501910161180a565b01928301527f7b2274726169745f74797065223a202254696d657374616d70222c202276616c61012d83015261014d820152825190610c0182610153956020878501910161180a565b01918201527f7b2274726169745f74797065223a20224d696e746564222c202276616c756522610157820152621d101160e91b610177820152815190610c518261017a946020868501910161180a565b019061227d60f01b90820152605d60f81b61017c820152607d60f81b61017d8201520361015e8101845201826118e9565b61203f565b93610cdb603d60405180977f646174613a6170706c69636174696f6e2f6a736f6e3b6261736536342c0000006020830152610ccb815180926020868601910161180a565b810103601d8101885201866118e9565b6000838152600260205260409020546001600160a01b031615610edf57826000526006602052604060002085516001600160401b038111610ec957610d208254611a41565b96601f8811610e81575b602097508790601f8311600114610df35792828798937f94328d4953ed20dfdf211a2b453f97db346b75036622615629511ea5e7b82feb9693610dc796600092610de8575b50508160011b916000199060031b1c19161790555b7ff8e1a15aba9398e019f0b49df1a4fde98ee17ae345cb5f6b5e2c27f5033e8ce788604051888152a187855195015160405193849360608552606085019061182d565b838a019690965260408301526001600160a01b0316930390a3604051908152f35b015190508b80610d6f565b90601f1983169184600052896000209260005b818110610e6a5750937f94328d4953ed20dfdf211a2b453f97db346b75036622615629511ea5e7b82feb9693610dc79693600193838c9d9810610e51575b505050811b019055610d84565b015160001960f88460031b161c191690558b8080610e44565b92938b600181928786015181550195019301610e06565b826000526020600020601f830160051c81019860208410610ebf575b601f0160051c01975b888110610eb35750610d2a565b60008155600101610ea6565b9098508890610e9d565b634e487b7160e01b600052604160045260246000fd5b60405162461bcd60e51b815260206004820152602e60248201527f45524337323155524953746f726167653a2055524920736574206f66206e6f6e60448201526d32bc34b9ba32b73a103a37b5b2b760911b6064820152608490fd5b634e487b7160e01b600052603260045260246000fd5b015190508980610827565b906001840160005260206000209160005b601f1985168110610fb7575091839160019360059695601f19811610610f9e575b505050811b01600182015561083f565b015160001960f88460031b161c19169055898080610f8e565b91926020600181928685015181550194019201610f6d565b600184016000526020600020601f840160051c81016020851061100f575b601f830160051c8201811061100357505061080a565b60008155600101610fed565b5080610fed565b0151905088806107c9565b9250836000526020600020906000935b601f1984168510611072576001945083601f19811610611059575b505050811b0181556107de565b015160001960f88460031b161c1916905588808061104c565b81810151835560209485019460019093019290910190611031565b909150836000526020600020601f840160051c8101602085106110d6575b90849392915b601f830160051c820181106110c75750506107b2565b600081558594506001016110b1565b50806110ab565b606460405162461bcd60e51b815260206004820152602060248201527f4552433732313a206d696e7420746f20746865207a65726f20616464726573736044820152fd5b60405162461bcd60e51b815260206004820152603660248201527f5a4b5374616d7073504f41503a205573657220616c726561647920686173206160448201527520504f415020666f72207468697320636f756e74727960501b6064820152608490fd5b81358152602091820191016105fc565b34610280576040366003190112610280576111ae611852565b6024356001600160401b038111610280576111fe602080936111d660ff94369060040161195c565b9060018060a01b0316600052600b82526040600020826040519483868095519384920161180a565b82019081520301902054166040519015158152f35b34610280576000366003190112610280576040516000600180549061123782611a41565b808552918181169081156112cb5750600114611272575b6104168461125e818603826118e9565b60405191829160208352602083019061182d565b600081815292507fb10e2d527612073b26eecdfd717e6a320cf44b4afac2b0732d9fcbe2b7fa0cf65b8284106112b357505050810160200161125e8261124e565b8054602085870181019190915290930192810161129b565b60ff191660208087019190915292151560051b8501909201925061125e915083905061124e565b34610280576000366003190112610280576007546040516001600160a01b039091168152602090f35b346102805760003660031901126102805761133461197a565b600780546001600160a01b031981169091556000906001600160a01b03167f8be0079c531659141344cd1fd0a4f28419497f9722a3daafe3b4186f6b6457e08280a3005b34610280576020366003190112610280576001600160a01b03611399611852565b1680156113b85760005260036020526020604060002054604051908152f35b60405162461bcd60e51b815260206004820152602960248201527f4552433732313a2061646472657373207a65726f206973206e6f7420612076616044820152683634b21037bbb732b960b91b6064820152608490fd5b3461028057602036600319011261028057602061142d600435611a1e565b6040516001600160a01b039091168152f35b3461028057602080600319360112610280576001600160a01b03611461611852565b16600052600a8152604060002060405190818382549182815201908192600052846000209060005b868282106114df57868661149f828803836118e9565b604051928392818401908285525180915260408401929160005b8281106114c857505050500390f35b8351855286955093810193928101926001016114b9565b835485529093019260019283019201611489565b346102805761049f61049a6115073661187e565b9060405192611515846118ce565b6000845261048a6104858433611c38565b346102805761049f6115373661187e565b916115456104858433611c38565b611d00565b3461028057604036600319011261028057611563611852565b602435906001600160a01b03808061157a85611a1e565b1692169180831461167557803314908115611650575b50156115e557600083815260046020526040902080546001600160a01b031916831790556115bd83611a1e565b167f8c5be1e5ebec7d5bd14f71427d1e84f3dd0314c0f7b2291e5b200ac8c7c3b925600080a4005b60405162461bcd60e51b815260206004820152603d60248201527f4552433732313a20617070726f76652063616c6c6572206973206e6f7420746f60448201527f6b656e206f776e6572206f7220617070726f76656420666f7220616c6c0000006064820152608490fd5b9050600052600560205260406000203360005260205260ff6040600020541684611590565b60405162461bcd60e51b815260206004820152602160248201527f4552433732313a20617070726f76616c20746f2063757272656e74206f776e656044820152603960f91b6064820152608490fd5b3461028057602036600319011261028057602061142d600435611b21565b34610280576000366003190112610280576040516000805461170381611a41565b808452906001908181169081156112cb575060011461172c576104168461125e818603826118e9565b600080805292507f290decd9548b62a8d60345a988386fc84ba6bc95484008f6362f93160ef3e5635b82841061176d57505050810160200161125e8261124e565b80546020858701810191909152909301928101611755565b34610280576020366003190112610280576004359063ffffffff60e01b821680920361028057602091632483248360e11b81149081156117c7575b5015158152f35b6380ac58cd60e01b8114915081156117f9575b81156117e8575b50836117c0565b6301ffc9a760e01b149050836117e1565b635b5e139f60e01b811491506117da565b60005b83811061181d5750506000910152565b818101518382015260200161180d565b906020916118468151809281855285808601910161180a565b601f01601f1916010190565b600435906001600160a01b038216820361028057565b602435906001600160a01b038216820361028057565b6060906003190112610280576001600160a01b0390600435828116810361028057916024359081168103610280579060443590565b60c081019081106001600160401b03821117610ec957604052565b602081019081106001600160401b03821117610ec957604052565b90601f801991011681019081106001600160401b03821117610ec957604052565b6001600160401b038111610ec957601f01601f191660200190565b9291926119318261190a565b9161193f60405193846118e9565b829481845281830111610280578281602093846000960137010152565b9080601f830112156102805781602061197793359101611925565b90565b6007546001600160a01b0316330361198e57565b606460405162461bcd60e51b815260206004820152602060248201527f4f776e61626c653a2063616c6c6572206973206e6f7420746865206f776e65726044820152fd5b156119d957565b60405162461bcd60e51b815260206004820152601860248201527f4552433732313a20696e76616c696420746f6b656e20494400000000000000006044820152606490fd5b6000908152600260205260409020546001600160a01b03166119778115156119d2565b90600182811c92168015611a71575b6020831014611a5b57565b634e487b7160e01b600052602260045260246000fd5b91607f1691611a50565b9060405191826000825492611a8f84611a41565b908184526001948581169081600014611afe5750600114611abb575b5050611ab9925003836118e9565b565b9093915060005260209081600020936000915b818310611ae6575050611ab993508201013880611aab565b85548884018501529485019487945091830191611ace565b915050611ab994506020925060ff191682840152151560051b8201013880611aab565b600081815260026020526040902054611b44906001600160a01b031615156119d2565b6000908152600460205260409020546001600160a01b031690565b15611b6657565b60405162461bcd60e51b815260206004820152602d60248201527f4552433732313a2063616c6c6572206973206e6f7420746f6b656e206f776e6560448201526c1c881bdc88185c1c1c9bdd9959609a1b6064820152608490fd5b60809060208152603260208201527f4552433732313a207472616e7366657220746f206e6f6e20455243373231526560408201527131b2b4bb32b91034b6b83632b6b2b73a32b960711b60608201520190565b15611c1b57565b60405162461bcd60e51b815280611c3460048201611bc1565b0390fd5b906001600160a01b038080611c4c84611a1e565b16931691838314938415611c7f575b508315611c69575b50505090565b611c7591929350611b21565b1614388080611c63565b909350600052600560205260406000208260005260205260ff604060002054169238611c5b565b15611cad57565b60405162461bcd60e51b815260206004820152602560248201527f4552433732313a207472616e736665722066726f6d20696e636f72726563742060448201526437bbb732b960d91b6064820152608490fd5b90611d2891611d0e84611a1e565b6001600160a01b0393918416928492909183168414611ca6565b16918215611dc55781611d4591611d3e86611a1e565b1614611ca6565b7fddf252ad1be2c89b69c2b068fc378daa952ba7f163c4a11628f55a4df523b3ef60008481526004602052604081206bffffffffffffffffffffffff60a01b9081815416905583825260036020526040822060001981540190558482526040822060018154019055858252600260205284604083209182541617905580a4565b60405162461bcd60e51b8152602060048201526024808201527f4552433732313a207472616e7366657220746f20746865207a65726f206164646044820152637265737360e01b6064820152608490fd5b9192600092909190803b15611f2c57611e64946040518092630a85bd0160e11b9485835233600484015287602484015260448301526080606483015281878160209a8b96608483019061182d565b03926001600160a01b03165af1849181611ee8575b50611ed7575050503d600014611ecf573d611e938161190a565b90611ea160405192836118e9565b81528091833d92013e5b80519182611ecc5760405162461bcd60e51b815280611c3460048201611bc1565b01fd5b506060611eab565b6001600160e01b0319161492509050565b9091508581813d8311611f25575b611f0081836118e9565b81010312611f2157516001600160e01b031981168103611f21579038611e79565b8480fd5b503d611ef6565b5050915050600190565b9293600093909291803b15611fb657948491611f909660405180948193630a85bd0160e11b9788845233600485015260018060a01b0380921660248501526044840152608060648401528260209b8c97608483019061182d565b0393165af1849181611ee85750611ed7575050503d600014611ecf573d611e938161190a565b505050915050600190565b15611fc857565b60405162461bcd60e51b815260206004820152601c60248201527f4552433732313a20746f6b656e20616c7265616479206d696e746564000000006044820152606490fd5b906120178261190a565b61202460405191826118e9565b8281528092612035601f199161190a565b0190602036910137565b80511561219757604051606081018181106001600160401b03821117610ec957604052604081527f4142434445464748494a4b4c4d4e4f505152535455565758595a61626364656660208201527f6768696a6b6c6d6e6f707172737475767778797a303132333435363738392b2f60408201528151600292838201809211612181576003918290046001600160fe1b0381168103612181576120e4908594951b61200d565b936020850193829183518401925b838110612130575050505051068060011461211d57600214612112575090565b603d90600019015390565b50603d9081600019820153600119015390565b85600491979293949701918251600190603f9082828260121c16880101518453828282600c1c16880101518385015382828260061c16880101518885015316850101518782015301959291906120f2565b634e487b7160e01b600052601160045260246000fd5b506040516121a4816118ce565b6000815290565b806000917a184f03e93ff9f4daa797ed6e38ed64bf6a1f010000000000000000808210156122e0575b506d04ee2d6d415b85acef8100000000808310156122d1575b50662386f26fc10000808310156122c2575b506305f5e100808310156122b3575b50612710808310156122a4575b506064821015612294575b600a8092101561228a575b60019081602161224282870161200d565b95860101905b612254575b5050505090565b600019019083906f181899199a1a9b1b9c1cb0b131b232b360811b8282061a83530491821561228557919082612248565b61224d565b9160010191612231565b9190606460029104910191612226565b6004919392049101913861221b565b6008919392049101913861220e565b601091939204910191386121ff565b602091939204910191386121ed565b6040935081049150386121d4565b6000908181129081156124cb57600160ff1b81146124b75782035b62989680906123198282066121ab565b91825194604094855161232b816118ce565b8281529660078110612422575b50156123fe57845190858201908282106001600160401b038311176123ea5750612381602195938795936123db93611977995260018152602d60f81b6020820152935b046121ab565b9351968794835161239a8160209687808b01910161180a565b86016123ae8251809387808501910161180a565b01601760f91b848201526123ca82518093868a8501910161180a565b01918351938491878501910161180a565b010360018101845201826118e9565b634e487b7160e01b81526041600452602490fd5b916123db61238160219593879561197798519061241a826118ce565b81529361237b565b9594929082979894929660070360078111998a5b612492578160ff8a1610156124a65761247b6021895183600360fc1b8295516124678160209485808801910161180a565b8301918201520360018101845201826118e9565b9760ff80911690811461249257600101978a612436565b634e487b7160e01b8a52601160045260248afd5b989395995050909294955038612338565b634e487b7160e01b83526011600452602483fd5b61230956fea26469706673582212203af7f351bf4531c6f75cb27a7a50a5d83d52193c5107bbcd73aa80fbe80162a164736f6c63430008110033","opcodes":"PUSH1 0x80 CALLVALUE PUSH3 0x36E JUMPI PUSH1 0x1 PUSH1 0x1 PUSH1 0x40 SHL SUB SWAP1 PUSH1 0x40 DUP2 DUP2 ADD DUP4 DUP2 GT DUP4 DUP3 LT OR PUSH3 0x358 JUMPI DUP2 MSTORE PUSH1 0x14 DUP3 MSTORE PUSH1 0x20 SWAP2 PUSH32 0x7A6B5374616D70732054726176656C20504F4150000000000000000000000000 DUP4 DUP3 ADD MSTORE DUP2 MLOAD SWAP4 DUP3 DUP6 ADD DUP6 DUP2 LT DUP3 DUP3 GT OR PUSH3 0x358 JUMPI DUP4 MSTORE PUSH1 0x7 DUP6 MSTORE PUSH7 0x5A4B5354414D5 PUSH1 0xCC SHL DUP5 DUP7 ADD MSTORE DUP2 MLOAD DUP2 DUP2 GT PUSH3 0x358 JUMPI PUSH1 0x0 SWAP5 DUP6 SLOAD SWAP2 PUSH1 0x1 SWAP5 DUP6 DUP5 DUP2 SHR SWAP5 AND DUP1 ISZERO PUSH3 0x34D JUMPI JUMPDEST DUP4 DUP6 LT EQ PUSH3 0x339 JUMPI DUP2 SWAP1 PUSH1 0x1F SWAP5 DUP6 DUP2 GT PUSH3 0x2E6 JUMPI JUMPDEST POP DUP4 SWAP1 DUP6 DUP4 GT PUSH1 0x1 EQ PUSH3 0x282 JUMPI DUP10 SWAP3 PUSH3 0x276 JUMPI JUMPDEST POP POP PUSH1 0x0 NOT PUSH1 0x3 DUP4 SWAP1 SHL SHR NOT AND SWAP1 DUP6 SHL OR DUP7 SSTORE JUMPDEST DUP7 MLOAD SWAP3 DUP4 GT PUSH3 0x262 JUMPI DUP4 SLOAD DUP5 DUP2 DUP2 SHR SWAP2 AND DUP1 ISZERO PUSH3 0x257 JUMPI JUMPDEST DUP3 DUP3 LT EQ PUSH3 0x243 JUMPI DUP3 DUP2 GT PUSH3 0x1FB JUMPI JUMPDEST POP DUP1 SWAP2 DUP4 GT PUSH1 0x1 EQ PUSH3 0x194 JUMPI POP DUP5 SWAP6 DUP3 SWAP4 SWAP5 SWAP6 SWAP3 PUSH3 0x188 JUMPI JUMPDEST POP POP PUSH1 0x0 NOT PUSH1 0x3 DUP4 SWAP1 SHL SHR NOT AND SWAP1 DUP3 SHL OR SWAP1 SSTORE JUMPDEST PUSH1 0x7 DUP1 SLOAD CALLER PUSH1 0x1 PUSH1 0x1 PUSH1 0xA0 SHL SUB NOT DUP3 AND DUP2 OR SWAP1 SWAP3 SSTORE SWAP2 MLOAD SWAP3 SWAP1 SWAP2 PUSH1 0x1 PUSH1 0x1 PUSH1 0xA0 SHL SUB AND SWAP1 PUSH32 0x8BE0079C531659141344CD1FD0A4F28419497F9722A3DAAFE3B4186F6B6457E0 SWAP1 DUP1 LOG3 PUSH2 0x2506 SWAP1 DUP2 PUSH3 0x374 DUP3 CODECOPY RETURN JUMPDEST ADD MLOAD SWAP1 POP CODESIZE DUP1 PUSH3 0x11F JUMP JUMPDEST SWAP1 PUSH1 0x1F NOT DUP4 AND SWAP7 DUP5 DUP8 MSTORE DUP3 DUP8 KECCAK256 SWAP3 DUP8 SWAP1 JUMPDEST DUP10 DUP3 LT PUSH3 0x1E3 JUMPI POP POP DUP4 DUP6 SWAP7 SWAP8 SWAP9 LT PUSH3 0x1C9 JUMPI JUMPDEST POP POP POP DUP2 SHL ADD SWAP1 SSTORE PUSH3 0x133 JUMP JUMPDEST ADD MLOAD PUSH1 0x0 NOT PUSH1 0xF8 DUP5 PUSH1 0x3 SHL AND SHR NOT AND SWAP1 SSTORE CODESIZE DUP1 DUP1 PUSH3 0x1BB JUMP JUMPDEST DUP1 DUP8 DUP6 SWAP7 DUP3 SWAP5 SWAP7 DUP7 ADD MLOAD DUP2 SSTORE ADD SWAP6 ADD SWAP4 ADD SWAP1 PUSH3 0x1A5 JUMP JUMPDEST DUP5 DUP8 MSTORE DUP2 DUP8 KECCAK256 DUP4 DUP1 DUP7 ADD PUSH1 0x5 SHR DUP3 ADD SWAP3 DUP5 DUP8 LT PUSH3 0x239 JUMPI JUMPDEST ADD PUSH1 0x5 SHR ADD SWAP1 DUP6 SWAP1 JUMPDEST DUP3 DUP2 LT PUSH3 0x22D JUMPI POP POP PUSH3 0x104 JUMP JUMPDEST DUP9 DUP2 SSTORE ADD DUP6 SWAP1 PUSH3 0x21D JUMP JUMPDEST SWAP3 POP DUP2 SWAP3 PUSH3 0x214 JUMP JUMPDEST PUSH4 0x4E487B71 PUSH1 0xE0 SHL DUP8 MSTORE PUSH1 0x22 PUSH1 0x4 MSTORE PUSH1 0x24 DUP8 REVERT JUMPDEST SWAP1 PUSH1 0x7F AND SWAP1 PUSH3 0xF2 JUMP JUMPDEST PUSH4 0x4E487B71 PUSH1 0xE0 SHL DUP7 MSTORE PUSH1 0x41 PUSH1 0x4 MSTORE PUSH1 0x24 DUP7 REVERT JUMPDEST ADD MLOAD SWAP1 POP CODESIZE DUP1 PUSH3 0xC4 JUMP JUMPDEST DUP10 DUP1 MSTORE DUP5 DUP11 KECCAK256 DUP9 SWAP5 POP SWAP2 SWAP1 PUSH1 0x1F NOT DUP5 AND DUP12 JUMPDEST DUP8 DUP3 DUP3 LT PUSH3 0x2CF JUMPI POP POP DUP5 GT PUSH3 0x2B5 JUMPI JUMPDEST POP POP POP DUP2 SHL ADD DUP7 SSTORE PUSH3 0xD8 JUMP JUMPDEST ADD MLOAD PUSH1 0x0 NOT PUSH1 0xF8 DUP5 PUSH1 0x3 SHL AND SHR NOT AND SWAP1 SSTORE CODESIZE DUP1 DUP1 PUSH3 0x2A7 JUMP JUMPDEST DUP4 DUP6 ADD MLOAD DUP7 SSTORE DUP12 SWAP8 SWAP1 SWAP6 ADD SWAP5 SWAP4 DUP5 ADD SWAP4 ADD PUSH3 0x294 JUMP JUMPDEST SWAP1 SWAP2 POP DUP9 DUP1 MSTORE DUP4 DUP10 KECCAK256 DUP6 DUP1 DUP6 ADD PUSH1 0x5 SHR DUP3 ADD SWAP3 DUP7 DUP7 LT PUSH3 0x32F JUMPI JUMPDEST SWAP2 DUP10 SWAP2 DUP7 SWAP6 SWAP5 SWAP4 ADD PUSH1 0x5 SHR ADD SWAP2 JUMPDEST DUP3 DUP2 LT PUSH3 0x320 JUMPI POP POP PUSH3 0xAE JUMP JUMPDEST DUP12 DUP2 SSTORE DUP6 SWAP5 POP DUP10 SWAP2 ADD PUSH3 0x310 JUMP JUMPDEST SWAP3 POP DUP2 SWAP3 PUSH3 0x302 JUMP JUMPDEST PUSH4 0x4E487B71 PUSH1 0xE0 SHL DUP9 MSTORE PUSH1 0x22 PUSH1 0x4 MSTORE PUSH1 0x24 DUP9 REVERT JUMPDEST SWAP4 PUSH1 0x7F AND SWAP4 PUSH3 0x97 JUMP JUMPDEST PUSH4 0x4E487B71 PUSH1 0xE0 SHL PUSH1 0x0 MSTORE PUSH1 0x41 PUSH1 0x4 MSTORE PUSH1 0x24 PUSH1 0x0 REVERT JUMPDEST PUSH1 0x0 DUP1 REVERT INVALID PUSH1 0x80 DUP1 PUSH1 0x40 MSTORE PUSH1 0x4 CALLDATASIZE LT ISZERO PUSH2 0x13 JUMPI PUSH1 0x0 DUP1 REVERT JUMPDEST PUSH1 0x0 CALLDATALOAD PUSH1 0xE0 SHR SWAP1 DUP2 PUSH4 0x1FFC9A7 EQ PUSH2 0x1785 JUMPI POP DUP1 PUSH4 0x6FDDE03 EQ PUSH2 0x16E2 JUMPI DUP1 PUSH4 0x81812FC EQ PUSH2 0x16C4 JUMPI DUP1 PUSH4 0x95EA7B3 EQ PUSH2 0x154A JUMPI DUP1 PUSH4 0x23B872DD EQ PUSH2 0x1526 JUMPI DUP1 PUSH4 0x42842E0E EQ PUSH2 0x14F3 JUMPI DUP1 PUSH4 0x61875A05 EQ PUSH2 0x143F JUMPI DUP1 PUSH4 0x6352211E EQ PUSH2 0x140F JUMPI DUP1 PUSH4 0x70A08231 EQ PUSH2 0x1378 JUMPI DUP1 PUSH4 0x715018A6 EQ PUSH2 0x131B JUMPI DUP1 PUSH4 0x8DA5CB5B EQ PUSH2 0x12F2 JUMPI DUP1 PUSH4 0x95D89B41 EQ PUSH2 0x1213 JUMPI DUP1 PUSH4 0x99A681CF EQ PUSH2 0x1195 JUMPI DUP1 PUSH4 0x9A0A672B EQ PUSH2 0x573 JUMPI DUP1 PUSH4 0xA22CB465 EQ PUSH2 0x4A1 JUMPI DUP1 PUSH4 0xB88D4FDE EQ PUSH2 0x41A JUMPI DUP1 PUSH4 0xC87B56DD EQ PUSH2 0x3A4 JUMPI DUP1 PUSH4 0xE985E9C5 EQ PUSH2 0x34E JUMPI DUP1 PUSH4 0xF2FDE38B EQ PUSH2 0x285 JUMPI PUSH4 0xF728FF4B EQ PUSH2 0xFB JUMPI PUSH1 0x0 DUP1 REVERT JUMPDEST CALLVALUE PUSH2 0x280 JUMPI PUSH1 0x20 DUP1 PUSH1 0x3 NOT CALLDATASIZE ADD SLT PUSH2 0x280 JUMPI PUSH1 0x4 CALLDATALOAD SWAP1 PUSH1 0x0 PUSH1 0xA0 PUSH1 0x40 MLOAD PUSH2 0x121 DUP2 PUSH2 0x18B3 JUMP JUMPDEST PUSH1 0x60 DUP2 MSTORE PUSH1 0x60 DUP5 DUP3 ADD MSTORE DUP3 PUSH1 0x40 DUP3 ADD MSTORE DUP3 PUSH1 0x60 DUP3 ADD MSTORE DUP3 PUSH1 0x80 DUP3 ADD MSTORE ADD MSTORE PUSH2 0x15E DUP3 PUSH1 0x0 MSTORE PUSH1 0x2 PUSH1 0x20 MSTORE PUSH1 0x1 DUP1 PUSH1 0xA0 SHL SUB PUSH1 0x40 PUSH1 0x0 KECCAK256 SLOAD AND ISZERO ISZERO SWAP1 JUMP JUMPDEST ISZERO PUSH2 0x22A JUMPI PUSH1 0xC0 SWAP2 PUSH1 0x0 MSTORE PUSH1 0x9 DUP2 MSTORE PUSH1 0x40 PUSH1 0x0 KECCAK256 PUSH1 0x5 PUSH1 0x40 MLOAD SWAP3 PUSH2 0x181 DUP5 PUSH2 0x18B3 JUMP JUMPDEST PUSH2 0x18A DUP4 PUSH2 0x1A7B JUMP JUMPDEST DUP5 MSTORE PUSH2 0x198 PUSH1 0x1 DUP5 ADD PUSH2 0x1A7B JUMP JUMPDEST SWAP3 DUP2 DUP6 ADD SWAP4 DUP5 MSTORE PUSH1 0x2 DUP2 ADD SLOAD SWAP4 PUSH1 0x40 DUP7 ADD SWAP5 DUP6 MSTORE PUSH2 0x20C PUSH1 0x3 DUP4 ADD SLOAD SWAP2 PUSH1 0x60 DUP9 ADD SWAP3 DUP4 MSTORE PUSH2 0x1F9 PUSH1 0x4 DUP6 ADD SLOAD SWAP5 PUSH1 0x80 DUP11 ADD SWAP6 DUP7 MSTORE PUSH1 0x1 DUP1 PUSH1 0xA0 SHL SUB SWAP8 DUP9 SWAP2 ADD SLOAD AND SWAP6 PUSH1 0xA0 DUP11 ADD SWAP7 DUP8 MSTORE PUSH1 0x40 MLOAD SWAP11 DUP12 SWAP11 DUP3 DUP13 MSTORE MLOAD SWAP2 DUP12 ADD MSTORE PUSH1 0xE0 DUP11 ADD SWAP1 PUSH2 0x182D JUMP JUMPDEST SWAP1 MLOAD DUP9 DUP3 SUB PUSH1 0x1F NOT ADD PUSH1 0x40 DUP11 ADD MSTORE PUSH2 0x182D JUMP JUMPDEST SWAP5 MLOAD PUSH1 0x60 DUP8 ADD MSTORE MLOAD PUSH1 0x80 DUP7 ADD MSTORE MLOAD PUSH1 0xA0 DUP6 ADD MSTORE MLOAD AND PUSH1 0xC0 DUP4 ADD MSTORE SUB SWAP1 RETURN JUMPDEST PUSH1 0x84 SWAP1 PUSH1 0x40 MLOAD SWAP1 PUSH3 0x461BCD PUSH1 0xE5 SHL DUP3 MSTORE PUSH1 0x4 DUP3 ADD MSTORE PUSH1 0x29 PUSH1 0x24 DUP3 ADD MSTORE PUSH32 0x5A4B5374616D7073504F41503A20517565727920666F72206E6F6E6578697374 PUSH1 0x44 DUP3 ADD MSTORE PUSH9 0x32B73A103A37B5B2B7 PUSH1 0xB9 SHL PUSH1 0x64 DUP3 ADD MSTORE REVERT JUMPDEST PUSH1 0x0 DUP1 REVERT JUMPDEST CALLVALUE PUSH2 0x280 JUMPI PUSH1 0x20 CALLDATASIZE PUSH1 0x3 NOT ADD SLT PUSH2 0x280 JUMPI PUSH2 0x29E PUSH2 0x1852 JUMP JUMPDEST PUSH2 0x2A6 PUSH2 0x197A JUMP JUMPDEST PUSH1 0x1 PUSH1 0x1 PUSH1 0xA0 SHL SUB SWAP1 DUP2 AND SWAP1 DUP2 ISZERO PUSH2 0x2FA JUMPI PUSH1 0x7 SLOAD DUP3 PUSH12 0xFFFFFFFFFFFFFFFFFFFFFFFF PUSH1 0xA0 SHL DUP3 AND OR PUSH1 0x7 SSTORE AND PUSH32 0x8BE0079C531659141344CD1FD0A4F28419497F9722A3DAAFE3B4186F6B6457E0 PUSH1 0x0 DUP1 LOG3 STOP JUMPDEST PUSH1 0x40 MLOAD PUSH3 0x461BCD PUSH1 0xE5 SHL DUP2 MSTORE PUSH1 0x20 PUSH1 0x4 DUP3 ADD MSTORE PUSH1 0x26 PUSH1 0x24 DUP3 ADD MSTORE PUSH32 0x4F776E61626C653A206E6577206F776E657220697320746865207A65726F2061 PUSH1 0x44 DUP3 ADD MSTORE PUSH6 0x646472657373 PUSH1 0xD0 SHL PUSH1 0x64 DUP3 ADD MSTORE PUSH1 0x84 SWAP1 REVERT JUMPDEST CALLVALUE PUSH2 0x280 JUMPI PUSH1 0x40 CALLDATASIZE PUSH1 0x3 NOT ADD SLT PUSH2 0x280 JUMPI PUSH2 0x367 PUSH2 0x1852 JUMP JUMPDEST PUSH2 0x36F PUSH2 0x1868 JUMP JUMPDEST SWAP1 PUSH1 0x1 DUP1 PUSH1 0xA0 SHL SUB DUP1 SWAP2 AND PUSH1 0x0 MSTORE PUSH1 0x5 PUSH1 0x20 MSTORE PUSH1 0x40 PUSH1 0x0 KECCAK256 SWAP2 AND PUSH1 0x0 MSTORE PUSH1 0x20 MSTORE PUSH1 0x20 PUSH1 0xFF PUSH1 0x40 PUSH1 0x0 KECCAK256 SLOAD AND PUSH1 0x40 MLOAD SWAP1 ISZERO ISZERO DUP2 MSTORE RETURN JUMPDEST CALLVALUE PUSH2 0x280 JUMPI PUSH1 0x20 CALLDATASIZE PUSH1 0x3 NOT ADD SLT PUSH2 0x280 JUMPI PUSH1 0x4 CALLDATALOAD PUSH1 0x0 DUP2 DUP2 MSTORE PUSH1 0x2 PUSH1 0x20 MSTORE PUSH1 0x40 SWAP1 KECCAK256 SLOAD PUSH2 0x3DB SWAP1 PUSH1 0x1 PUSH1 0x1 PUSH1 0xA0 SHL SUB AND ISZERO ISZERO PUSH2 0x19D2 JUMP JUMPDEST PUSH1 0x0 MSTORE PUSH1 0x6 PUSH1 0x20 MSTORE PUSH2 0x416 PUSH2 0x3F3 PUSH1 0x40 PUSH1 0x0 KECCAK256 PUSH2 0x1A7B JUMP JUMPDEST PUSH1 0x0 PUSH1 0x40 MLOAD PUSH2 0x401 DUP2 PUSH2 0x18CE JUMP JUMPDEST MSTORE PUSH1 0x40 MLOAD SWAP2 DUP3 SWAP2 PUSH1 0x20 DUP4 MSTORE PUSH1 0x20 DUP4 ADD SWAP1 PUSH2 0x182D JUMP JUMPDEST SUB SWAP1 RETURN JUMPDEST CALLVALUE PUSH2 0x280 JUMPI PUSH1 0x80 CALLDATASIZE PUSH1 0x3 NOT ADD SLT PUSH2 0x280 JUMPI PUSH2 0x433 PUSH2 0x1852 JUMP JUMPDEST PUSH2 0x43B PUSH2 0x1868 JUMP JUMPDEST SWAP1 PUSH1 0x64 CALLDATALOAD SWAP1 PUSH1 0x44 CALLDATALOAD PUSH1 0x1 PUSH1 0x1 PUSH1 0x40 SHL SUB DUP4 GT PUSH2 0x280 JUMPI CALLDATASIZE PUSH1 0x23 DUP5 ADD SLT ISZERO PUSH2 0x280 JUMPI PUSH2 0x49F SWAP4 PUSH2 0x477 PUSH2 0x49A SWAP5 CALLDATASIZE SWAP1 PUSH1 0x24 DUP2 PUSH1 0x4 ADD CALLDATALOAD SWAP2 ADD PUSH2 0x1925 JUMP JUMPDEST SWAP3 PUSH2 0x48A PUSH2 0x485 DUP5 CALLER PUSH2 0x1C38 JUMP JUMPDEST PUSH2 0x1B5F JUMP JUMPDEST PUSH2 0x495 DUP4 DUP4 DUP4 PUSH2 0x1D00 JUMP JUMPDEST PUSH2 0x1F36 JUMP JUMPDEST PUSH2 0x1C14 JUMP JUMPDEST STOP JUMPDEST CALLVALUE PUSH2 0x280 JUMPI PUSH1 0x40 CALLDATASIZE PUSH1 0x3 NOT ADD SLT PUSH2 0x280 JUMPI PUSH2 0x4BA PUSH2 0x1852 JUMP JUMPDEST PUSH1 0x24 CALLDATALOAD SWAP1 DUP2 ISZERO ISZERO DUP1 SWAP3 SUB PUSH2 0x280 JUMPI PUSH1 0x1 PUSH1 0x1 PUSH1 0xA0 SHL SUB AND SWAP1 CALLER DUP3 EQ PUSH2 0x52E JUMPI CALLER PUSH1 0x0 MSTORE PUSH1 0x5 PUSH1 0x20 MSTORE PUSH1 0x40 PUSH1 0x0 KECCAK256 DUP3 PUSH1 0x0 MSTORE PUSH1 0x20 MSTORE PUSH1 0x40 PUSH1 0x0 KECCAK256 PUSH1 0xFF NOT DUP2 SLOAD AND PUSH1 0xFF DUP4 AND OR SWAP1 SSTORE PUSH1 0x40 MLOAD SWAP1 DUP2 MSTORE PUSH32 0x17307EAB39AB6107E8899845AD3D59BD9653F200F220920489CA2B5937696C31 PUSH1 0x20 CALLER SWAP3 LOG3 STOP JUMPDEST PUSH1 0x40 MLOAD PUSH3 0x461BCD PUSH1 0xE5 SHL DUP2 MSTORE PUSH1 0x20 PUSH1 0x4 DUP3 ADD MSTORE PUSH1 0x19 PUSH1 0x24 DUP3 ADD MSTORE PUSH32 0x4552433732313A20617070726F766520746F2063616C6C657200000000000000 PUSH1 0x44 DUP3 ADD MSTORE PUSH1 0x64 SWAP1 REVERT JUMPDEST CALLVALUE PUSH2 0x280 JUMPI PUSH1 0xC0 CALLDATASIZE PUSH1 0x3 NOT ADD SLT PUSH2 0x280 JUMPI PUSH2 0x58C PUSH2 0x1852 JUMP JUMPDEST PUSH1 0x24 CALLDATALOAD PUSH1 0x1 PUSH1 0x1 PUSH1 0x40 SHL SUB DUP2 GT PUSH2 0x280 JUMPI PUSH2 0x5AB SWAP1 CALLDATASIZE SWAP1 PUSH1 0x4 ADD PUSH2 0x195C JUMP JUMPDEST PUSH1 0x44 CALLDATALOAD PUSH1 0x1 PUSH1 0x1 PUSH1 0x40 SHL SUB DUP2 GT PUSH2 0x280 JUMPI PUSH2 0x5CA SWAP1 CALLDATASIZE SWAP1 PUSH1 0x4 ADD PUSH2 0x195C JUMP JUMPDEST CALLDATASIZE PUSH1 0x83 SLT ISZERO PUSH2 0x280 JUMPI PUSH1 0x40 MLOAD PUSH1 0x40 DUP2 ADD DUP2 DUP2 LT PUSH1 0x1 PUSH1 0x1 PUSH1 0x40 SHL SUB DUP3 GT OR PUSH2 0xEC9 JUMPI PUSH1 0x40 MSTORE DUP1 CALLDATASIZE PUSH1 0xA4 GT PUSH2 0x280 JUMPI PUSH1 0x64 SWAP1 JUMPDEST PUSH1 0xA4 DUP3 LT PUSH2 0x1185 JUMPI POP POP PUSH2 0x60E PUSH2 0x197A JUMP JUMPDEST PUSH1 0x1 DUP1 PUSH1 0xA0 SHL SUB DUP5 AND PUSH1 0x0 MSTORE PUSH1 0xB PUSH1 0x20 MSTORE PUSH1 0xFF PUSH1 0x40 PUSH1 0x0 KECCAK256 PUSH1 0x20 PUSH1 0x40 MLOAD DUP1 SWAP3 DUP8 MLOAD PUSH2 0x63C DUP2 DUP5 DUP7 DUP13 ADD PUSH2 0x180A JUMP JUMPDEST DUP3 ADD SWAP1 DUP2 MSTORE SUB ADD SWAP1 KECCAK256 SLOAD AND PUSH2 0x1121 JUMPI PUSH1 0x8 SLOAD SWAP2 PUSH1 0x1 DUP4 ADD PUSH1 0x8 SSTORE PUSH1 0x40 MLOAD PUSH1 0x20 DUP2 ADD DUP2 DUP2 LT PUSH1 0x1 PUSH1 0x1 PUSH1 0x40 SHL SUB DUP3 GT OR PUSH2 0xEC9 JUMPI PUSH1 0x40 MSTORE PUSH1 0x0 DUP2 MSTORE PUSH1 0x1 PUSH1 0x1 PUSH1 0xA0 SHL SUB DUP7 AND ISZERO PUSH2 0x10DD JUMPI PUSH1 0x0 DUP5 DUP2 MSTORE PUSH1 0x2 PUSH1 0x20 MSTORE PUSH1 0x40 SWAP1 KECCAK256 SLOAD PUSH2 0x73F SWAP2 PUSH2 0x49A SWAP2 PUSH2 0x6B2 SWAP1 PUSH1 0x1 PUSH1 0x1 PUSH1 0xA0 SHL SUB AND ISZERO ISZERO JUMPDEST ISZERO PUSH2 0x1FC1 JUMP JUMPDEST PUSH1 0x0 DUP7 DUP2 MSTORE PUSH1 0x2 PUSH1 0x20 MSTORE PUSH1 0x40 SWAP1 KECCAK256 SLOAD PUSH2 0x6D5 SWAP1 PUSH1 0x1 PUSH1 0x1 PUSH1 0xA0 SHL SUB AND ISZERO ISZERO PUSH2 0x6AC JUMP JUMPDEST PUSH1 0x1 PUSH1 0x1 PUSH1 0xA0 SHL SUB DUP9 AND PUSH1 0x0 DUP2 DUP2 MSTORE PUSH1 0x3 PUSH1 0x20 SWAP1 DUP2 MSTORE PUSH1 0x40 DUP1 DUP4 KECCAK256 DUP1 SLOAD PUSH1 0x1 ADD SWAP1 SSTORE DUP10 DUP4 MSTORE PUSH1 0x2 SWAP1 SWAP2 MSTORE DUP2 KECCAK256 DUP1 SLOAD PUSH1 0x1 PUSH1 0x1 PUSH1 0xA0 SHL SUB NOT AND DUP4 OR SWAP1 SSTORE DUP8 SWAP2 SWAP1 PUSH32 0xDDF252AD1BE2C89B69C2B068FC378DAA952BA7F163C4A11628F55A4DF523B3EF DUP2 DUP1 LOG4 DUP6 DUP9 PUSH2 0x1E16 JUMP JUMPDEST DUP2 MLOAD PUSH1 0x20 DUP4 ADD MLOAD SWAP1 PUSH1 0x40 MLOAD SWAP3 PUSH2 0x754 DUP5 PUSH2 0x18B3 JUMP JUMPDEST DUP7 DUP5 MSTORE PUSH1 0x20 DUP5 ADD MSTORE PUSH1 0x40 DUP4 ADD MSTORE PUSH1 0x60 DUP3 ADD MSTORE PUSH1 0xA4 CALLDATALOAD PUSH1 0x80 DUP3 ADD MSTORE PUSH1 0x1 DUP1 PUSH1 0xA0 SHL SUB DUP6 AND PUSH1 0xA0 DUP3 ADD MSTORE DUP3 PUSH1 0x0 MSTORE PUSH1 0x9 PUSH1 0x20 MSTORE PUSH1 0x40 PUSH1 0x0 KECCAK256 DUP2 MLOAD DUP1 MLOAD SWAP1 PUSH1 0x1 PUSH1 0x1 PUSH1 0x40 SHL SUB DUP3 GT PUSH2 0xEC9 JUMPI DUP2 SWAP1 PUSH2 0x7A9 DUP5 SLOAD PUSH2 0x1A41 JUMP JUMPDEST PUSH1 0x1F DUP2 GT PUSH2 0x108D JUMPI JUMPDEST POP PUSH1 0x20 SWAP1 PUSH1 0x1F DUP4 GT PUSH1 0x1 EQ PUSH2 0x1021 JUMPI PUSH1 0x0 SWAP3 PUSH2 0x1016 JUMPI JUMPDEST POP POP DUP2 PUSH1 0x1 SHL SWAP2 PUSH1 0x0 NOT SWAP1 PUSH1 0x3 SHL SHR NOT AND OR DUP2 SSTORE JUMPDEST PUSH1 0x20 DUP3 ADD MLOAD DUP1 MLOAD SWAP1 PUSH1 0x1 PUSH1 0x1 PUSH1 0x40 SHL SUB DUP3 GT PUSH2 0xEC9 JUMPI PUSH2 0x801 PUSH1 0x1 DUP5 ADD SLOAD PUSH2 0x1A41 JUMP JUMPDEST PUSH1 0x1F DUP2 GT PUSH2 0xFCF JUMPI JUMPDEST POP PUSH1 0x20 SWAP1 PUSH1 0x1F DUP4 GT PUSH1 0x1 EQ PUSH2 0xF5C JUMPI PUSH1 0x5 SWAP4 SWAP3 SWAP2 PUSH1 0x0 SWAP2 DUP4 PUSH2 0xF51 JUMPI JUMPDEST POP POP DUP2 PUSH1 0x1 SHL SWAP2 PUSH1 0x0 NOT SWAP1 PUSH1 0x3 SHL SHR NOT AND OR PUSH1 0x1 DUP3 ADD SSTORE JUMPDEST PUSH1 0x40 DUP4 DUP2 ADD MLOAD PUSH1 0x2 DUP4 ADD SSTORE PUSH1 0x60 DUP5 ADD MLOAD PUSH1 0x3 DUP4 ADD SSTORE PUSH1 0x80 DUP5 ADD MLOAD PUSH1 0x4 DUP4 ADD SSTORE PUSH1 0xA0 SWAP1 SWAP4 ADD MLOAD SWAP2 ADD DUP1 SLOAD PUSH1 0x1 PUSH1 0x1 PUSH1 0xA0 SHL SUB NOT AND PUSH1 0x1 PUSH1 0x1 PUSH1 0xA0 SHL SUB SWAP3 DUP4 AND OR SWAP1 SSTORE DUP6 AND PUSH1 0x0 SWAP1 DUP2 MSTORE PUSH1 0xA PUSH1 0x20 MSTORE KECCAK256 DUP1 SLOAD PUSH9 0x10000000000000000 DUP2 LT ISZERO PUSH2 0xEC9 JUMPI PUSH1 0x1 DUP2 ADD DUP1 DUP4 SSTORE DUP2 LT ISZERO PUSH2 0xF3B JUMPI DUP4 SWAP2 PUSH1 0x0 MSTORE PUSH1 0x20 PUSH1 0x0 KECCAK256 ADD SSTORE PUSH1 0x1 DUP1 PUSH1 0xA0 SHL SUB DUP5 AND PUSH1 0x0 MSTORE PUSH1 0xB PUSH1 0x20 MSTORE PUSH1 0x40 PUSH1 0x0 KECCAK256 PUSH1 0x20 PUSH1 0x40 MLOAD DUP1 SWAP3 DUP7 MLOAD PUSH2 0x8E6 DUP2 DUP5 DUP7 DUP12 ADD PUSH2 0x180A JUMP JUMPDEST DUP3 ADD SWAP1 DUP2 MSTORE SUB ADD SWAP1 KECCAK256 PUSH1 0x1 PUSH1 0xFF NOT DUP3 SLOAD AND OR SWAP1 SSTORE DUP2 PUSH1 0x0 MSTORE PUSH1 0x9 PUSH1 0x20 MSTORE PUSH2 0xC87 PUSH1 0x40 PUSH1 0x0 KECCAK256 PUSH2 0xC82 PUSH2 0x17E PUSH1 0x40 MLOAD PUSH2 0x91D DUP2 PUSH2 0x18B3 JUMP JUMPDEST PUSH2 0x926 DUP5 PUSH2 0x1A7B JUMP JUMPDEST DUP2 MSTORE PUSH2 0x934 PUSH1 0x1 DUP6 ADD PUSH2 0x1A7B JUMP JUMPDEST PUSH1 0x20 DUP3 ADD SWAP1 DUP2 MSTORE PUSH1 0x2 DUP6 ADD SLOAD SWAP5 DUP6 PUSH1 0x40 DUP5 ADD MSTORE PUSH2 0x993 PUSH2 0x988 PUSH2 0x981 PUSH1 0x3 DUP5 ADD SLOAD SWAP9 PUSH1 0x60 DUP8 ADD SWAP10 DUP11 MSTORE PUSH1 0x4 DUP6 ADD SLOAD SWAP5 PUSH1 0x80 DUP9 ADD SWAP6 DUP7 MSTORE PUSH1 0x5 PUSH1 0x1 DUP1 PUSH1 0xA0 SHL SUB SWAP2 ADD SLOAD AND PUSH1 0xA0 DUP9 ADD MSTORE PUSH2 0x22EE JUMP JUMPDEST SWAP8 MLOAD PUSH2 0x22EE JUMP JUMPDEST SWAP3 MLOAD SWAP4 MLOAD SWAP2 MLOAD PUSH2 0x21AB JUMP JUMPDEST SWAP1 PUSH2 0x99D TIMESTAMP PUSH2 0x21AB JUMP JUMPDEST SWAP3 PUSH1 0x40 MLOAD SWAP8 DUP9 SWAP6 PUSH32 0x7B226E616D65223A202254726176656C20504F4150202D200000000000000000 PUSH1 0x20 DUP9 ADD MSTORE DUP1 MLOAD SWAP1 PUSH2 0xAB4 PUSH1 0x20 DUP3 ADD SWAP3 PUSH2 0x9E3 DUP2 PUSH1 0x38 DUP13 ADD DUP7 PUSH2 0x180A JUMP JUMPDEST DUP10 ADD PUSH3 0x11161 PUSH1 0xED SHL PUSH1 0x38 DUP3 ADD MSTORE PUSH32 0x226465736372697074696F6E223A202250726F6F66206F662074726176656C20 PUSH1 0x3B DUP3 ADD MSTORE PUSH3 0x3A379 PUSH1 0xED SHL PUSH1 0x5B DUP3 ADD MSTORE DUP3 MLOAD SWAP1 PUSH2 0xA34 DUP3 PUSH1 0x5E DUP4 ADD DUP8 PUSH2 0x180A JUMP JUMPDEST ADD SWAP2 PUSH32 0x207665726966696564206279207A6B5374616D7073222C200000000000000000 PUSH1 0x5E DUP5 ADD MSTORE PUSH15 0x2261747472696275746573223A205B PUSH1 0x88 SHL PUSH1 0x76 DUP5 ADD MSTORE PUSH32 0x7B2274726169745F74797065223A2022436F756E747279222C202276616C7565 PUSH1 0x85 DUP5 ADD MSTORE PUSH4 0x111D1011 PUSH1 0xE1 SHL PUSH1 0xA5 DUP5 ADD MSTORE MLOAD DUP1 SWAP4 PUSH1 0xA9 DUP5 ADD SWAP1 PUSH2 0x180A JUMP JUMPDEST ADD SWAP3 PUSH4 0x113E961 PUSH1 0xE5 SHL SWAP4 DUP5 PUSH1 0xA9 DUP3 ADD MSTORE PUSH32 0x7B2274726169745F74797065223A2022436F756E74727920436F6465222C2022 PUSH1 0xAD DUP3 ADD MSTORE PUSH9 0x3B30B63AB2911D1011 PUSH1 0xB9 SHL PUSH1 0xCD DUP3 ADD MSTORE PUSH2 0xB11 DUP3 MLOAD DUP1 SWAP4 PUSH1 0x20 PUSH1 0xD6 DUP6 ADD SWAP2 ADD PUSH2 0x180A JUMP JUMPDEST ADD DUP4 PUSH1 0xD6 DUP3 ADD MSTORE PUSH32 0x7B2274726169745F74797065223A20224C61746974756465222C202276616C75 PUSH1 0xDA DUP3 ADD MSTORE PUSH5 0x32911D1011 PUSH1 0xD9 SHL PUSH1 0xFA DUP3 ADD MSTORE PUSH2 0xB60 DUP3 MLOAD DUP1 SWAP4 PUSH1 0x20 PUSH1 0xFF DUP6 ADD SWAP2 ADD PUSH2 0x180A JUMP JUMPDEST ADD DUP3 PUSH1 0xFF DUP3 ADD MSTORE PUSH32 0x7B2274726169745F74797065223A20224C6F6E676974756465222C202276616C PUSH2 0x103 DUP3 ADD MSTORE DUP3 PUSH6 0x3AB2911D1011 PUSH1 0xD1 SHL SWAP2 DUP3 PUSH2 0x123 DUP3 ADD MSTORE DUP4 MLOAD SWAP1 PUSH2 0xBB8 DUP3 PUSH2 0x129 SWAP7 PUSH1 0x20 DUP9 DUP6 ADD SWAP2 ADD PUSH2 0x180A JUMP JUMPDEST ADD SWAP3 DUP4 ADD MSTORE PUSH32 0x7B2274726169745F74797065223A202254696D657374616D70222C202276616C PUSH2 0x12D DUP4 ADD MSTORE PUSH2 0x14D DUP3 ADD MSTORE DUP3 MLOAD SWAP1 PUSH2 0xC01 DUP3 PUSH2 0x153 SWAP6 PUSH1 0x20 DUP8 DUP6 ADD SWAP2 ADD PUSH2 0x180A JUMP JUMPDEST ADD SWAP2 DUP3 ADD MSTORE PUSH32 0x7B2274726169745F74797065223A20224D696E746564222C202276616C756522 PUSH2 0x157 DUP3 ADD MSTORE PUSH3 0x1D1011 PUSH1 0xE9 SHL PUSH2 0x177 DUP3 ADD MSTORE DUP2 MLOAD SWAP1 PUSH2 0xC51 DUP3 PUSH2 0x17A SWAP5 PUSH1 0x20 DUP7 DUP6 ADD SWAP2 ADD PUSH2 0x180A JUMP JUMPDEST ADD SWAP1 PUSH2 0x227D PUSH1 0xF0 SHL SWAP1 DUP3 ADD MSTORE PUSH1 0x5D PUSH1 0xF8 SHL PUSH2 0x17C DUP3 ADD MSTORE PUSH1 0x7D PUSH1 0xF8 SHL PUSH2 0x17D DUP3 ADD MSTORE SUB PUSH2 0x15E DUP2 ADD DUP5 MSTORE ADD DUP3 PUSH2 0x18E9 JUMP JUMPDEST PUSH2 0x203F JUMP JUMPDEST SWAP4 PUSH2 0xCDB PUSH1 0x3D PUSH1 0x40 MLOAD DUP1 SWAP8 PUSH32 0x646174613A6170706C69636174696F6E2F6A736F6E3B6261736536342C000000 PUSH1 0x20 DUP4 ADD MSTORE PUSH2 0xCCB DUP2 MLOAD DUP1 SWAP3 PUSH1 0x20 DUP7 DUP7 ADD SWAP2 ADD PUSH2 0x180A JUMP JUMPDEST DUP2 ADD SUB PUSH1 0x1D DUP2 ADD DUP9 MSTORE ADD DUP7 PUSH2 0x18E9 JUMP JUMPDEST PUSH1 0x0 DUP4 DUP2 MSTORE PUSH1 0x2 PUSH1 0x20 MSTORE PUSH1 0x40 SWAP1 KECCAK256 SLOAD PUSH1 0x1 PUSH1 0x1 PUSH1 0xA0 SHL SUB AND ISZERO PUSH2 0xEDF JUMPI DUP3 PUSH1 0x0 MSTORE PUSH1 0x6 PUSH1 0x20 MSTORE PUSH1 0x40 PUSH1 0x0 KECCAK256 DUP6 MLOAD PUSH1 0x1 PUSH1 0x1 PUSH1 0x40 SHL SUB DUP2 GT PUSH2 0xEC9 JUMPI PUSH2 0xD20 DUP3 SLOAD PUSH2 0x1A41 JUMP JUMPDEST SWAP7 PUSH1 0x1F DUP9 GT PUSH2 0xE81 JUMPI JUMPDEST PUSH1 0x20 SWAP8 POP DUP8 SWAP1 PUSH1 0x1F DUP4 GT PUSH1 0x1 EQ PUSH2 0xDF3 JUMPI SWAP3 DUP3 DUP8 SWAP9 SWAP4 PUSH32 0x94328D4953ED20DFDF211A2B453F97DB346B75036622615629511EA5E7B82FEB SWAP7 SWAP4 PUSH2 0xDC7 SWAP7 PUSH1 0x0 SWAP3 PUSH2 0xDE8 JUMPI JUMPDEST POP POP DUP2 PUSH1 0x1 SHL SWAP2 PUSH1 0x0 NOT SWAP1 PUSH1 0x3 SHL SHR NOT AND OR SWAP1 SSTORE JUMPDEST PUSH32 0xF8E1A15ABA9398E019F0B49DF1A4FDE98EE17AE345CB5F6B5E2C27F5033E8CE7 DUP9 PUSH1 0x40 MLOAD DUP9 DUP2 MSTORE LOG1 DUP8 DUP6 MLOAD SWAP6 ADD MLOAD PUSH1 0x40 MLOAD SWAP4 DUP5 SWAP4 PUSH1 0x60 DUP6 MSTORE PUSH1 0x60 DUP6 ADD SWAP1 PUSH2 0x182D JUMP JUMPDEST DUP4 DUP11 ADD SWAP7 SWAP1 SWAP7 MSTORE PUSH1 0x40 DUP4 ADD MSTORE PUSH1 0x1 PUSH1 0x1 PUSH1 0xA0 SHL SUB AND SWAP4 SUB SWAP1 LOG3 PUSH1 0x40 MLOAD SWAP1 DUP2 MSTORE RETURN JUMPDEST ADD MLOAD SWAP1 POP DUP12 DUP1 PUSH2 0xD6F JUMP JUMPDEST SWAP1 PUSH1 0x1F NOT DUP4 AND SWAP2 DUP5 PUSH1 0x0 MSTORE DUP10 PUSH1 0x0 KECCAK256 SWAP3 PUSH1 0x0 JUMPDEST DUP2 DUP2 LT PUSH2 0xE6A JUMPI POP SWAP4 PUSH32 0x94328D4953ED20DFDF211A2B453F97DB346B75036622615629511EA5E7B82FEB SWAP7 SWAP4 PUSH2 0xDC7 SWAP7 SWAP4 PUSH1 0x1 SWAP4 DUP4 DUP13 SWAP14 SWAP9 LT PUSH2 0xE51 JUMPI JUMPDEST POP POP POP DUP2 SHL ADD SWAP1 SSTORE PUSH2 0xD84 JUMP JUMPDEST ADD MLOAD PUSH1 0x0 NOT PUSH1 0xF8 DUP5 PUSH1 0x3 SHL AND SHR NOT AND SWAP1 SSTORE DUP12 DUP1 DUP1 PUSH2 0xE44 JUMP JUMPDEST SWAP3 SWAP4 DUP12 PUSH1 0x1 DUP2 SWAP3 DUP8 DUP7 ADD MLOAD DUP2 SSTORE ADD SWAP6 ADD SWAP4 ADD PUSH2 0xE06 JUMP JUMPDEST DUP3 PUSH1 0x0 MSTORE PUSH1 0x20 PUSH1 0x0 KECCAK256 PUSH1 0x1F DUP4 ADD PUSH1 0x5 SHR DUP2 ADD SWAP9 PUSH1 0x20 DUP5 LT PUSH2 0xEBF JUMPI JUMPDEST PUSH1 0x1F ADD PUSH1 0x5 SHR ADD SWAP8 JUMPDEST DUP9 DUP2 LT PUSH2 0xEB3 JUMPI POP PUSH2 0xD2A JUMP JUMPDEST PUSH1 0x0 DUP2 SSTORE PUSH1 0x1 ADD PUSH2 0xEA6 JUMP JUMPDEST SWAP1 SWAP9 POP DUP9 SWAP1 PUSH2 0xE9D JUMP JUMPDEST PUSH4 0x4E487B71 PUSH1 0xE0 SHL PUSH1 0x0 MSTORE PUSH1 0x41 PUSH1 0x4 MSTORE PUSH1 0x24 PUSH1 0x0 REVERT JUMPDEST PUSH1 0x40 MLOAD PUSH3 0x461BCD PUSH1 0xE5 SHL DUP2 MSTORE PUSH1 0x20 PUSH1 0x4 DUP3 ADD MSTORE PUSH1 0x2E PUSH1 0x24 DUP3 ADD MSTORE PUSH32 0x45524337323155524953746F726167653A2055524920736574206F66206E6F6E PUSH1 0x44 DUP3 ADD MSTORE PUSH14 0x32BC34B9BA32B73A103A37B5B2B7 PUSH1 0x91 SHL PUSH1 0x64 DUP3 ADD MSTORE PUSH1 0x84 SWAP1 REVERT JUMPDEST PUSH4 0x4E487B71 PUSH1 0xE0 SHL PUSH1 0x0 MSTORE PUSH1 0x32 PUSH1 0x4 MSTORE PUSH1 0x24 PUSH1 0x0 REVERT JUMPDEST ADD MLOAD SWAP1 POP DUP10 DUP1 PUSH2 0x827 JUMP JUMPDEST SWAP1 PUSH1 0x1 DUP5 ADD PUSH1 0x0 MSTORE PUSH1 0x20 PUSH1 0x0 KECCAK256 SWAP2 PUSH1 0x0 JUMPDEST PUSH1 0x1F NOT DUP6 AND DUP2 LT PUSH2 0xFB7 JUMPI POP SWAP2 DUP4 SWAP2 PUSH1 0x1 SWAP4 PUSH1 0x5 SWAP7 SWAP6 PUSH1 0x1F NOT DUP2 AND LT PUSH2 0xF9E JUMPI JUMPDEST POP POP POP DUP2 SHL ADD PUSH1 0x1 DUP3 ADD SSTORE PUSH2 0x83F JUMP JUMPDEST ADD MLOAD PUSH1 0x0 NOT PUSH1 0xF8 DUP5 PUSH1 0x3 SHL AND SHR NOT AND SWAP1 SSTORE DUP10 DUP1 DUP1 PUSH2 0xF8E JUMP JUMPDEST SWAP2 SWAP3 PUSH1 0x20 PUSH1 0x1 DUP2 SWAP3 DUP7 DUP6 ADD MLOAD DUP2 SSTORE ADD SWAP5 ADD SWAP3 ADD PUSH2 0xF6D JUMP JUMPDEST PUSH1 0x1 DUP5 ADD PUSH1 0x0 MSTORE PUSH1 0x20 PUSH1 0x0 KECCAK256 PUSH1 0x1F DUP5 ADD PUSH1 0x5 SHR DUP2 ADD PUSH1 0x20 DUP6 LT PUSH2 0x100F JUMPI JUMPDEST PUSH1 0x1F DUP4 ADD PUSH1 0x5 SHR DUP3 ADD DUP2 LT PUSH2 0x1003 JUMPI POP POP PUSH2 0x80A JUMP JUMPDEST PUSH1 0x0 DUP2 SSTORE PUSH1 0x1 ADD PUSH2 0xFED JUMP JUMPDEST POP DUP1 PUSH2 0xFED JUMP JUMPDEST ADD MLOAD SWAP1 POP DUP9 DUP1 PUSH2 0x7C9 JUMP JUMPDEST SWAP3 POP DUP4 PUSH1 0x0 MSTORE PUSH1 0x20 PUSH1 0x0 KECCAK256 SWAP1 PUSH1 0x0 SWAP4 JUMPDEST PUSH1 0x1F NOT DUP5 AND DUP6 LT PUSH2 0x1072 JUMPI PUSH1 0x1 SWAP5 POP DUP4 PUSH1 0x1F NOT DUP2 AND LT PUSH2 0x1059 JUMPI JUMPDEST POP POP POP DUP2 SHL ADD DUP2 SSTORE PUSH2 0x7DE JUMP JUMPDEST ADD MLOAD PUSH1 0x0 NOT PUSH1 0xF8 DUP5 PUSH1 0x3 SHL AND SHR NOT AND SWAP1 SSTORE DUP9 DUP1 DUP1 PUSH2 0x104C JUMP JUMPDEST DUP2 DUP2 ADD MLOAD DUP4 SSTORE PUSH1 0x20 SWAP5 DUP6 ADD SWAP5 PUSH1 0x1 SWAP1 SWAP4 ADD SWAP3 SWAP1 SWAP2 ADD SWAP1 PUSH2 0x1031 JUMP JUMPDEST SWAP1 SWAP2 POP DUP4 PUSH1 0x0 MSTORE PUSH1 0x20 PUSH1 0x0 KECCAK256 PUSH1 0x1F DUP5 ADD PUSH1 0x5 SHR DUP2 ADD PUSH1 0x20 DUP6 LT PUSH2 0x10D6 JUMPI JUMPDEST SWAP1 DUP5 SWAP4 SWAP3 SWAP2 JUMPDEST PUSH1 0x1F DUP4 ADD PUSH1 0x5 SHR DUP3 ADD DUP2 LT PUSH2 0x10C7 JUMPI POP POP PUSH2 0x7B2 JUMP JUMPDEST PUSH1 0x0 DUP2 SSTORE DUP6 SWAP5 POP PUSH1 0x1 ADD PUSH2 0x10B1 JUMP JUMPDEST POP DUP1 PUSH2 0x10AB JUMP JUMPDEST PUSH1 0x64 PUSH1 0x40 MLOAD PUSH3 0x461BCD PUSH1 0xE5 SHL DUP2 MSTORE PUSH1 0x20 PUSH1 0x4 DUP3 ADD MSTORE PUSH1 0x20 PUSH1 0x24 DUP3 ADD MSTORE PUSH32 0x4552433732313A206D696E7420746F20746865207A65726F2061646472657373 PUSH1 0x44 DUP3 ADD MSTORE REVERT JUMPDEST PUSH1 0x40 MLOAD PUSH3 0x461BCD PUSH1 0xE5 SHL DUP2 MSTORE PUSH1 0x20 PUSH1 0x4 DUP3 ADD MSTORE PUSH1 0x36 PUSH1 0x24 DUP3 ADD MSTORE PUSH32 0x5A4B5374616D7073504F41503A205573657220616C7265616479206861732061 PUSH1 0x44 DUP3 ADD MSTORE PUSH22 0x20504F415020666F72207468697320636F756E747279 PUSH1 0x50 SHL PUSH1 0x64 DUP3 ADD MSTORE PUSH1 0x84 SWAP1 REVERT JUMPDEST DUP2 CALLDATALOAD DUP2 MSTORE PUSH1 0x20 SWAP2 DUP3 ADD SWAP2 ADD PUSH2 0x5FC JUMP JUMPDEST CALLVALUE PUSH2 0x280 JUMPI PUSH1 0x40 CALLDATASIZE PUSH1 0x3 NOT ADD SLT PUSH2 0x280 JUMPI PUSH2 0x11AE PUSH2 0x1852 JUMP JUMPDEST PUSH1 0x24 CALLDATALOAD PUSH1 0x1 PUSH1 0x1 PUSH1 0x40 SHL SUB DUP2 GT PUSH2 0x280 JUMPI PUSH2 0x11FE PUSH1 0x20 DUP1 SWAP4 PUSH2 0x11D6 PUSH1 0xFF SWAP5 CALLDATASIZE SWAP1 PUSH1 0x4 ADD PUSH2 0x195C JUMP JUMPDEST SWAP1 PUSH1 0x1 DUP1 PUSH1 0xA0 SHL SUB AND PUSH1 0x0 MSTORE PUSH1 0xB DUP3 MSTORE PUSH1 0x40 PUSH1 0x0 KECCAK256 DUP3 PUSH1 0x40 MLOAD SWAP5 DUP4 DUP7 DUP1 SWAP6 MLOAD SWAP4 DUP5 SWAP3 ADD PUSH2 0x180A JUMP JUMPDEST DUP3 ADD SWAP1 DUP2 MSTORE SUB ADD SWAP1 KECCAK256 SLOAD AND PUSH1 0x40 MLOAD SWAP1 ISZERO ISZERO DUP2 MSTORE RETURN JUMPDEST CALLVALUE PUSH2 0x280 JUMPI PUSH1 0x0 CALLDATASIZE PUSH1 0x3 NOT ADD SLT PUSH2 0x280 JUMPI PUSH1 0x40 MLOAD PUSH1 0x0 PUSH1 0x1 DUP1 SLOAD SWAP1 PUSH2 0x1237 DUP3 PUSH2 0x1A41 JUMP JUMPDEST DUP1 DUP6 MSTORE SWAP2 DUP2 DUP2 AND SWAP1 DUP2 ISZERO PUSH2 0x12CB JUMPI POP PUSH1 0x1 EQ PUSH2 0x1272 JUMPI JUMPDEST PUSH2 0x416 DUP5 PUSH2 0x125E DUP2 DUP7 SUB DUP3 PUSH2 0x18E9 JUMP JUMPDEST PUSH1 0x40 MLOAD SWAP2 DUP3 SWAP2 PUSH1 0x20 DUP4 MSTORE PUSH1 0x20 DUP4 ADD SWAP1 PUSH2 0x182D JUMP JUMPDEST PUSH1 0x0 DUP2 DUP2 MSTORE SWAP3 POP PUSH32 0xB10E2D527612073B26EECDFD717E6A320CF44B4AFAC2B0732D9FCBE2B7FA0CF6 JUMPDEST DUP3 DUP5 LT PUSH2 0x12B3 JUMPI POP POP POP DUP2 ADD PUSH1 0x20 ADD PUSH2 0x125E DUP3 PUSH2 0x124E JUMP JUMPDEST DUP1 SLOAD PUSH1 0x20 DUP6 DUP8 ADD DUP2 ADD SWAP2 SWAP1 SWAP2 MSTORE SWAP1 SWAP4 ADD SWAP3 DUP2 ADD PUSH2 0x129B JUMP JUMPDEST PUSH1 0xFF NOT AND PUSH1 0x20 DUP1 DUP8 ADD SWAP2 SWAP1 SWAP2 MSTORE SWAP3 ISZERO ISZERO PUSH1 0x5 SHL DUP6 ADD SWAP1 SWAP3 ADD SWAP3 POP PUSH2 0x125E SWAP2 POP DUP4 SWAP1 POP PUSH2 0x124E JUMP JUMPDEST CALLVALUE PUSH2 0x280 JUMPI PUSH1 0x0 CALLDATASIZE PUSH1 0x3 NOT ADD SLT PUSH2 0x280 JUMPI PUSH1 0x7 SLOAD PUSH1 0x40 MLOAD PUSH1 0x1 PUSH1 0x1 PUSH1 0xA0 SHL SUB SWAP1 SWAP2 AND DUP2 MSTORE PUSH1 0x20 SWAP1 RETURN JUMPDEST CALLVALUE PUSH2 0x280 JUMPI PUSH1 0x0 CALLDATASIZE PUSH1 0x3 NOT ADD SLT PUSH2 0x280 JUMPI PUSH2 0x1334 PUSH2 0x197A JUMP JUMPDEST PUSH1 0x7 DUP1 SLOAD PUSH1 0x1 PUSH1 0x1 PUSH1 0xA0 SHL SUB NOT DUP2 AND SWAP1 SWAP2 SSTORE PUSH1 0x0 SWAP1 PUSH1 0x1 PUSH1 0x1 PUSH1 0xA0 SHL SUB AND PUSH32 0x8BE0079C531659141344CD1FD0A4F28419497F9722A3DAAFE3B4186F6B6457E0 DUP3 DUP1 LOG3 STOP JUMPDEST CALLVALUE PUSH2 0x280 JUMPI PUSH1 0x20 CALLDATASIZE PUSH1 0x3 NOT ADD SLT PUSH2 0x280 JUMPI PUSH1 0x1 PUSH1 0x1 PUSH1 0xA0 SHL SUB PUSH2 0x1399 PUSH2 0x1852 JUMP JUMPDEST AND DUP1 ISZERO PUSH2 0x13B8 JUMPI PUSH1 0x0 MSTORE PUSH1 0x3 PUSH1 0x20 MSTORE PUSH1 0x20 PUSH1 0x40 PUSH1 0x0 KECCAK256 SLOAD PUSH1 0x40 MLOAD SWAP1 DUP2 MSTORE RETURN JUMPDEST PUSH1 0x40 MLOAD PUSH3 0x461BCD PUSH1 0xE5 SHL DUP2 MSTORE PUSH1 0x20 PUSH1 0x4 DUP3 ADD MSTORE PUSH1 0x29 PUSH1 0x24 DUP3 ADD MSTORE PUSH32 0x4552433732313A2061646472657373207A65726F206973206E6F742061207661 PUSH1 0x44 DUP3 ADD MSTORE PUSH9 0x3634B21037BBB732B9 PUSH1 0xB9 SHL PUSH1 0x64 DUP3 ADD MSTORE PUSH1 0x84 SWAP1 REVERT JUMPDEST CALLVALUE PUSH2 0x280 JUMPI PUSH1 0x20 CALLDATASIZE PUSH1 0x3 NOT ADD SLT PUSH2 0x280 JUMPI PUSH1 0x20 PUSH2 0x142D PUSH1 0x4 CALLDATALOAD PUSH2 0x1A1E JUMP JUMPDEST PUSH1 0x40 MLOAD PUSH1 0x1 PUSH1 0x1 PUSH1 0xA0 SHL SUB SWAP1 SWAP2 AND DUP2 MSTORE RETURN JUMPDEST CALLVALUE PUSH2 0x280 JUMPI PUSH1 0x20 DUP1 PUSH1 0x3 NOT CALLDATASIZE ADD SLT PUSH2 0x280 JUMPI PUSH1 0x1 PUSH1 0x1 PUSH1 0xA0 SHL SUB PUSH2 0x1461 PUSH2 0x1852 JUMP JUMPDEST AND PUSH1 0x0 MSTORE PUSH1 0xA DUP2 MSTORE PUSH1 0x40 PUSH1 0x0 KECCAK256 PUSH1 0x40 MLOAD SWAP1 DUP2 DUP4 DUP3 SLOAD SWAP2 DUP3 DUP2 MSTORE ADD SWAP1 DUP2 SWAP3 PUSH1 0x0 MSTORE DUP5 PUSH1 0x0 KECCAK256 SWAP1 PUSH1 0x0 JUMPDEST DUP7 DUP3 DUP3 LT PUSH2 0x14DF JUMPI DUP7 DUP7 PUSH2 0x149F DUP3 DUP9 SUB DUP4 PUSH2 0x18E9 JUMP JUMPDEST PUSH1 0x40 MLOAD SWAP3 DUP4 SWAP3 DUP2 DUP5 ADD SWAP1 DUP3 DUP6 MSTORE MLOAD DUP1 SWAP2 MSTORE PUSH1 0x40 DUP5 ADD SWAP3 SWAP2 PUSH1 0x0 JUMPDEST DUP3 DUP2 LT PUSH2 0x14C8 JUMPI POP POP POP POP SUB SWAP1 RETURN JUMPDEST DUP4 MLOAD DUP6 MSTORE DUP7 SWAP6 POP SWAP4 DUP2 ADD SWAP4 SWAP3 DUP2 ADD SWAP3 PUSH1 0x1 ADD PUSH2 0x14B9 JUMP JUMPDEST DUP4 SLOAD DUP6 MSTORE SWAP1 SWAP4 ADD SWAP3 PUSH1 0x1 SWAP3 DUP4 ADD SWAP3 ADD PUSH2 0x1489 JUMP JUMPDEST CALLVALUE PUSH2 0x280 JUMPI PUSH2 0x49F PUSH2 0x49A PUSH2 0x1507 CALLDATASIZE PUSH2 0x187E JUMP JUMPDEST SWAP1 PUSH1 0x40 MLOAD SWAP3 PUSH2 0x1515 DUP5 PUSH2 0x18CE JUMP JUMPDEST PUSH1 0x0 DUP5 MSTORE PUSH2 0x48A PUSH2 0x485 DUP5 CALLER PUSH2 0x1C38 JUMP JUMPDEST CALLVALUE PUSH2 0x280 JUMPI PUSH2 0x49F PUSH2 0x1537 CALLDATASIZE PUSH2 0x187E JUMP JUMPDEST SWAP2 PUSH2 0x1545 PUSH2 0x485 DUP5 CALLER PUSH2 0x1C38 JUMP JUMPDEST PUSH2 0x1D00 JUMP JUMPDEST CALLVALUE PUSH2 0x280 JUMPI PUSH1 0x40 CALLDATASIZE PUSH1 0x3 NOT ADD SLT PUSH2 0x280 JUMPI PUSH2 0x1563 PUSH2 0x1852 JUMP JUMPDEST PUSH1 0x24 CALLDATALOAD SWAP1 PUSH1 0x1 PUSH1 0x1 PUSH1 0xA0 SHL SUB DUP1 DUP1 PUSH2 0x157A DUP6 PUSH2 0x1A1E JUMP JUMPDEST AND SWAP3 AND SWAP2 DUP1 DUP4 EQ PUSH2 0x1675 JUMPI DUP1 CALLER EQ SWAP1 DUP2 ISZERO PUSH2 0x1650 JUMPI JUMPDEST POP ISZERO PUSH2 0x15E5 JUMPI PUSH1 0x0 DUP4 DUP2 MSTORE PUSH1 0x4 PUSH1 0x20 MSTORE PUSH1 0x40 SWAP1 KECCAK256 DUP1 SLOAD PUSH1 0x1 PUSH1 0x1 PUSH1 0xA0 SHL SUB NOT AND DUP4 OR SWAP1 SSTORE PUSH2 0x15BD DUP4 PUSH2 0x1A1E JUMP JUMPDEST AND PUSH32 0x8C5BE1E5EBEC7D5BD14F71427D1E84F3DD0314C0F7B2291E5B200AC8C7C3B925 PUSH1 0x0 DUP1 LOG4 STOP JUMPDEST PUSH1 0x40 MLOAD PUSH3 0x461BCD PUSH1 0xE5 SHL DUP2 MSTORE PUSH1 0x20 PUSH1 0x4 DUP3 ADD MSTORE PUSH1 0x3D PUSH1 0x24 DUP3 ADD MSTORE PUSH32 0x4552433732313A20617070726F76652063616C6C6572206973206E6F7420746F PUSH1 0x44 DUP3 ADD MSTORE PUSH32 0x6B656E206F776E6572206F7220617070726F76656420666F7220616C6C000000 PUSH1 0x64 DUP3 ADD MSTORE PUSH1 0x84 SWAP1 REVERT JUMPDEST SWAP1 POP PUSH1 0x0 MSTORE PUSH1 0x5 PUSH1 0x20 MSTORE PUSH1 0x40 PUSH1 0x0 KECCAK256 CALLER PUSH1 0x0 MSTORE PUSH1 0x20 MSTORE PUSH1 0xFF PUSH1 0x40 PUSH1 0x0 KECCAK256 SLOAD AND DUP5 PUSH2 0x1590 JUMP JUMPDEST PUSH1 0x40 MLOAD PUSH3 0x461BCD PUSH1 0xE5 SHL DUP2 MSTORE PUSH1 0x20 PUSH1 0x4 DUP3 ADD MSTORE PUSH1 0x21 PUSH1 0x24 DUP3 ADD MSTORE PUSH32 0x4552433732313A20617070726F76616C20746F2063757272656E74206F776E65 PUSH1 0x44 DUP3 ADD MSTORE PUSH1 0x39 PUSH1 0xF9 SHL PUSH1 0x64 DUP3 ADD MSTORE PUSH1 0x84 SWAP1 REVERT JUMPDEST CALLVALUE PUSH2 0x280 JUMPI PUSH1 0x20 CALLDATASIZE PUSH1 0x3 NOT ADD SLT PUSH2 0x280 JUMPI PUSH1 0x20 PUSH2 0x142D PUSH1 0x4 CALLDATALOAD PUSH2 0x1B21 JUMP JUMPDEST CALLVALUE PUSH2 0x280 JUMPI PUSH1 0x0 CALLDATASIZE PUSH1 0x3 NOT ADD SLT PUSH2 0x280 JUMPI PUSH1 0x40 MLOAD PUSH1 0x0 DUP1 SLOAD PUSH2 0x1703 DUP2 PUSH2 0x1A41 JUMP JUMPDEST DUP1 DUP5 MSTORE SWAP1 PUSH1 0x1 SWAP1 DUP2 DUP2 AND SWAP1 DUP2 ISZERO PUSH2 0x12CB JUMPI POP PUSH1 0x1 EQ PUSH2 0x172C JUMPI PUSH2 0x416 DUP5 PUSH2 0x125E DUP2 DUP7 SUB DUP3 PUSH2 0x18E9 JUMP JUMPDEST PUSH1 0x0 DUP1 DUP1 MSTORE SWAP3 POP PUSH32 0x290DECD9548B62A8D60345A988386FC84BA6BC95484008F6362F93160EF3E563 JUMPDEST DUP3 DUP5 LT PUSH2 0x176D JUMPI POP POP POP DUP2 ADD PUSH1 0x20 ADD PUSH2 0x125E DUP3 PUSH2 0x124E JUMP JUMPDEST DUP1 SLOAD PUSH1 0x20 DUP6 DUP8 ADD DUP2 ADD SWAP2 SWAP1 SWAP2 MSTORE SWAP1 SWAP4 ADD SWAP3 DUP2 ADD PUSH2 0x1755 JUMP JUMPDEST CALLVALUE PUSH2 0x280 JUMPI PUSH1 0x20 CALLDATASIZE PUSH1 0x3 NOT ADD SLT PUSH2 0x280 JUMPI PUSH1 0x4 CALLDATALOAD SWAP1 PUSH4 0xFFFFFFFF PUSH1 0xE0 SHL DUP3 AND DUP1 SWAP3 SUB PUSH2 0x280 JUMPI PUSH1 0x20 SWAP2 PUSH4 0x24832483 PUSH1 0xE1 SHL DUP2 EQ SWAP1 DUP2 ISZERO PUSH2 0x17C7 JUMPI JUMPDEST POP ISZERO ISZERO DUP2 MSTORE RETURN JUMPDEST PUSH4 0x80AC58CD PUSH1 0xE0 SHL DUP2 EQ SWAP2 POP DUP2 ISZERO PUSH2 0x17F9 JUMPI JUMPDEST DUP2 ISZERO PUSH2 0x17E8 JUMPI JUMPDEST POP DUP4 PUSH2 0x17C0 JUMP JUMPDEST PUSH4 0x1FFC9A7 PUSH1 0xE0 SHL EQ SWAP1 POP DUP4 PUSH2 0x17E1 JUMP JUMPDEST PUSH4 0x5B5E139F PUSH1 0xE0 SHL DUP2 EQ SWAP2 POP PUSH2 0x17DA JUMP JUMPDEST PUSH1 0x0 JUMPDEST DUP4 DUP2 LT PUSH2 0x181D JUMPI POP POP PUSH1 0x0 SWAP2 ADD MSTORE JUMP JUMPDEST DUP2 DUP2 ADD MLOAD DUP4 DUP3 ADD MSTORE PUSH1 0x20 ADD PUSH2 0x180D JUMP JUMPDEST SWAP1 PUSH1 0x20 SWAP2 PUSH2 0x1846 DUP2 MLOAD DUP1 SWAP3 DUP2 DUP6 MSTORE DUP6 DUP1 DUP7 ADD SWAP2 ADD PUSH2 0x180A JUMP JUMPDEST PUSH1 0x1F ADD PUSH1 0x1F NOT AND ADD ADD SWAP1 JUMP JUMPDEST PUSH1 0x4 CALLDATALOAD SWAP1 PUSH1 0x1 PUSH1 0x1 PUSH1 0xA0 SHL SUB DUP3 AND DUP3 SUB PUSH2 0x280 JUMPI JUMP JUMPDEST PUSH1 0x24 CALLDATALOAD SWAP1 PUSH1 0x1 PUSH1 0x1 PUSH1 0xA0 SHL SUB DUP3 AND DUP3 SUB PUSH2 0x280 JUMPI JUMP JUMPDEST PUSH1 0x60 SWAP1 PUSH1 0x3 NOT ADD SLT PUSH2 0x280 JUMPI PUSH1 0x1 PUSH1 0x1 PUSH1 0xA0 SHL SUB SWAP1 PUSH1 0x4 CALLDATALOAD DUP3 DUP2 AND DUP2 SUB PUSH2 0x280 JUMPI SWAP2 PUSH1 0x24 CALLDATALOAD SWAP1 DUP2 AND DUP2 SUB PUSH2 0x280 JUMPI SWAP1 PUSH1 0x44 CALLDATALOAD SWAP1 JUMP JUMPDEST PUSH1 0xC0 DUP2 ADD SWAP1 DUP2 LT PUSH1 0x1 PUSH1 0x1 PUSH1 0x40 SHL SUB DUP3 GT OR PUSH2 0xEC9 JUMPI PUSH1 0x40 MSTORE JUMP JUMPDEST PUSH1 0x20 DUP2 ADD SWAP1 DUP2 LT PUSH1 0x1 PUSH1 0x1 PUSH1 0x40 SHL SUB DUP3 GT OR PUSH2 0xEC9 JUMPI PUSH1 0x40 MSTORE JUMP JUMPDEST SWAP1 PUSH1 0x1F DUP1 NOT SWAP2 ADD AND DUP2 ADD SWAP1 DUP2 LT PUSH1 0x1 PUSH1 0x1 PUSH1 0x40 SHL SUB DUP3 GT OR PUSH2 0xEC9 JUMPI PUSH1 0x40 MSTORE JUMP JUMPDEST PUSH1 0x1 PUSH1 0x1 PUSH1 0x40 SHL SUB DUP2 GT PUSH2 0xEC9 JUMPI PUSH1 0x1F ADD PUSH1 0x1F NOT AND PUSH1 0x20 ADD SWAP1 JUMP JUMPDEST SWAP3 SWAP2 SWAP3 PUSH2 0x1931 DUP3 PUSH2 0x190A JUMP JUMPDEST SWAP2 PUSH2 0x193F PUSH1 0x40 MLOAD SWAP4 DUP5 PUSH2 0x18E9 JUMP JUMPDEST DUP3 SWAP5 DUP2 DUP5 MSTORE DUP2 DUP4 ADD GT PUSH2 0x280 JUMPI DUP3 DUP2 PUSH1 0x20 SWAP4 DUP5 PUSH1 0x0 SWAP7 ADD CALLDATACOPY ADD ADD MSTORE JUMP JUMPDEST SWAP1 DUP1 PUSH1 0x1F DUP4 ADD SLT ISZERO PUSH2 0x280 JUMPI DUP2 PUSH1 0x20 PUSH2 0x1977 SWAP4 CALLDATALOAD SWAP2 ADD PUSH2 0x1925 JUMP JUMPDEST SWAP1 JUMP JUMPDEST PUSH1 0x7 SLOAD PUSH1 0x1 PUSH1 0x1 PUSH1 0xA0 SHL SUB AND CALLER SUB PUSH2 0x198E JUMPI JUMP JUMPDEST PUSH1 0x64 PUSH1 0x40 MLOAD PUSH3 0x461BCD PUSH1 0xE5 SHL DUP2 MSTORE PUSH1 0x20 PUSH1 0x4 DUP3 ADD MSTORE PUSH1 0x20 PUSH1 0x24 DUP3 ADD MSTORE PUSH32 0x4F776E61626C653A2063616C6C6572206973206E6F7420746865206F776E6572 PUSH1 0x44 DUP3 ADD MSTORE REVERT JUMPDEST ISZERO PUSH2 0x19D9 JUMPI JUMP JUMPDEST PUSH1 0x40 MLOAD PUSH3 0x461BCD PUSH1 0xE5 SHL DUP2 MSTORE PUSH1 0x20 PUSH1 0x4 DUP3 ADD MSTORE PUSH1 0x18 PUSH1 0x24 DUP3 ADD MSTORE PUSH32 0x4552433732313A20696E76616C696420746F6B656E2049440000000000000000 PUSH1 0x44 DUP3 ADD MSTORE PUSH1 0x64 SWAP1 REVERT JUMPDEST PUSH1 0x0 SWAP1 DUP2 MSTORE PUSH1 0x2 PUSH1 0x20 MSTORE PUSH1 0x40 SWAP1 KECCAK256 SLOAD PUSH1 0x1 PUSH1 0x1 PUSH1 0xA0 SHL SUB AND PUSH2 0x1977 DUP2 ISZERO ISZERO PUSH2 0x19D2 JUMP JUMPDEST SWAP1 PUSH1 0x1 DUP3 DUP2 SHR SWAP3 AND DUP1 ISZERO PUSH2 0x1A71 JUMPI JUMPDEST PUSH1 0x20 DUP4 LT EQ PUSH2 0x1A5B JUMPI JUMP JUMPDEST PUSH4 0x4E487B71 PUSH1 0xE0 SHL PUSH1 0x0 MSTORE PUSH1 0x22 PUSH1 0x4 MSTORE PUSH1 0x24 PUSH1 0x0 REVERT JUMPDEST SWAP2 PUSH1 0x7F AND SWAP2 PUSH2 0x1A50 JUMP JUMPDEST SWAP1 PUSH1 0x40 MLOAD SWAP2 DUP3 PUSH1 0x0 DUP3 SLOAD SWAP3 PUSH2 0x1A8F DUP5 PUSH2 0x1A41 JUMP JUMPDEST SWAP1 DUP2 DUP5 MSTORE PUSH1 0x1 SWAP5 DUP6 DUP2 AND SWAP1 DUP2 PUSH1 0x0 EQ PUSH2 0x1AFE JUMPI POP PUSH1 0x1 EQ PUSH2 0x1ABB JUMPI JUMPDEST POP POP PUSH2 0x1AB9 SWAP3 POP SUB DUP4 PUSH2 0x18E9 JUMP JUMPDEST JUMP JUMPDEST SWAP1 SWAP4 SWAP2 POP PUSH1 0x0 MSTORE PUSH1 0x20 SWAP1 DUP2 PUSH1 0x0 KECCAK256 SWAP4 PUSH1 0x0 SWAP2 JUMPDEST DUP2 DUP4 LT PUSH2 0x1AE6 JUMPI POP POP PUSH2 0x1AB9 SWAP4 POP DUP3 ADD ADD CODESIZE DUP1 PUSH2 0x1AAB JUMP JUMPDEST DUP6 SLOAD DUP9 DUP5 ADD DUP6 ADD MSTORE SWAP5 DUP6 ADD SWAP5 DUP8 SWAP5 POP SWAP2 DUP4 ADD SWAP2 PUSH2 0x1ACE JUMP JUMPDEST SWAP2 POP POP PUSH2 0x1AB9 SWAP5 POP PUSH1 0x20 SWAP3 POP PUSH1 0xFF NOT AND DUP3 DUP5 ADD MSTORE ISZERO ISZERO PUSH1 0x5 SHL DUP3 ADD ADD CODESIZE DUP1 PUSH2 0x1AAB JUMP JUMPDEST PUSH1 0x0 DUP2 DUP2 MSTORE PUSH1 0x2 PUSH1 0x20 MSTORE PUSH1 0x40 SWAP1 KECCAK256 SLOAD PUSH2 0x1B44 SWAP1 PUSH1 0x1 PUSH1 0x1 PUSH1 0xA0 SHL SUB AND ISZERO ISZERO PUSH2 0x19D2 JUMP JUMPDEST PUSH1 0x0 SWAP1 DUP2 MSTORE PUSH1 0x4 PUSH1 0x20 MSTORE PUSH1 0x40 SWAP1 KECCAK256 SLOAD PUSH1 0x1 PUSH1 0x1 PUSH1 0xA0 SHL SUB AND SWAP1 JUMP JUMPDEST ISZERO PUSH2 0x1B66 JUMPI JUMP JUMPDEST PUSH1 0x40 MLOAD PUSH3 0x461BCD PUSH1 0xE5 SHL DUP2 MSTORE PUSH1 0x20 PUSH1 0x4 DUP3 ADD MSTORE PUSH1 0x2D PUSH1 0x24 DUP3 ADD MSTORE PUSH32 0x4552433732313A2063616C6C6572206973206E6F7420746F6B656E206F776E65 PUSH1 0x44 DUP3 ADD MSTORE PUSH13 0x1C881BDC88185C1C1C9BDD9959 PUSH1 0x9A SHL PUSH1 0x64 DUP3 ADD MSTORE PUSH1 0x84 SWAP1 REVERT JUMPDEST PUSH1 0x80 SWAP1 PUSH1 0x20 DUP2 MSTORE PUSH1 0x32 PUSH1 0x20 DUP3 ADD MSTORE PUSH32 0x4552433732313A207472616E7366657220746F206E6F6E204552433732315265 PUSH1 0x40 DUP3 ADD MSTORE PUSH18 0x31B2B4BB32B91034B6B83632B6B2B73A32B9 PUSH1 0x71 SHL PUSH1 0x60 DUP3 ADD MSTORE ADD SWAP1 JUMP JUMPDEST ISZERO PUSH2 0x1C1B JUMPI JUMP JUMPDEST PUSH1 0x40 MLOAD PUSH3 0x461BCD PUSH1 0xE5 SHL DUP2 MSTORE DUP1 PUSH2 0x1C34 PUSH1 0x4 DUP3 ADD PUSH2 0x1BC1 JUMP JUMPDEST SUB SWAP1 REVERT JUMPDEST SWAP1 PUSH1 0x1 PUSH1 0x1 PUSH1 0xA0 SHL SUB DUP1 DUP1 PUSH2 0x1C4C DUP5 PUSH2 0x1A1E JUMP JUMPDEST AND SWAP4 AND SWAP2 DUP4 DUP4 EQ SWAP4 DUP5 ISZERO PUSH2 0x1C7F JUMPI JUMPDEST POP DUP4 ISZERO PUSH2 0x1C69 JUMPI JUMPDEST POP POP POP SWAP1 JUMP JUMPDEST PUSH2 0x1C75 SWAP2 SWAP3 SWAP4 POP PUSH2 0x1B21 JUMP JUMPDEST AND EQ CODESIZE DUP1 DUP1 PUSH2 0x1C63 JUMP JUMPDEST SWAP1 SWAP4 POP PUSH1 0x0 MSTORE PUSH1 0x5 PUSH1 0x20 MSTORE PUSH1 0x40 PUSH1 0x0 KECCAK256 DUP3 PUSH1 0x0 MSTORE PUSH1 0x20 MSTORE PUSH1 0xFF PUSH1 0x40 PUSH1 0x0 KECCAK256 SLOAD AND SWAP3 CODESIZE PUSH2 0x1C5B JUMP JUMPDEST ISZERO PUSH2 0x1CAD JUMPI JUMP JUMPDEST PUSH1 0x40 MLOAD PUSH3 0x461BCD PUSH1 0xE5 SHL DUP2 MSTORE PUSH1 0x20 PUSH1 0x4 DUP3 ADD MSTORE PUSH1 0x25 PUSH1 0x24 DUP3 ADD MSTORE PUSH32 0x4552433732313A207472616E736665722066726F6D20696E636F727265637420 PUSH1 0x44 DUP3 ADD MSTORE PUSH5 0x37BBB732B9 PUSH1 0xD9 SHL PUSH1 0x64 DUP3 ADD MSTORE PUSH1 0x84 SWAP1 REVERT JUMPDEST SWAP1 PUSH2 0x1D28 SWAP2 PUSH2 0x1D0E DUP5 PUSH2 0x1A1E JUMP JUMPDEST PUSH1 0x1 PUSH1 0x1 PUSH1 0xA0 SHL SUB SWAP4 SWAP2 DUP5 AND SWAP3 DUP5 SWAP3 SWAP1 SWAP2 DUP4 AND DUP5 EQ PUSH2 0x1CA6 JUMP JUMPDEST AND SWAP2 DUP3 ISZERO PUSH2 0x1DC5 JUMPI DUP2 PUSH2 0x1D45 SWAP2 PUSH2 0x1D3E DUP7 PUSH2 0x1A1E JUMP JUMPDEST AND EQ PUSH2 0x1CA6 JUMP JUMPDEST PUSH32 0xDDF252AD1BE2C89B69C2B068FC378DAA952BA7F163C4A11628F55A4DF523B3EF PUSH1 0x0 DUP5 DUP2 MSTORE PUSH1 0x4 PUSH1 0x20 MSTORE PUSH1 0x40 DUP2 KECCAK256 PUSH12 0xFFFFFFFFFFFFFFFFFFFFFFFF PUSH1 0xA0 SHL SWAP1 DUP2 DUP2 SLOAD AND SWAP1 SSTORE DUP4 DUP3 MSTORE PUSH1 0x3 PUSH1 0x20 MSTORE PUSH1 0x40 DUP3 KECCAK256 PUSH1 0x0 NOT DUP2 SLOAD ADD SWAP1 SSTORE DUP5 DUP3 MSTORE PUSH1 0x40 DUP3 KECCAK256 PUSH1 0x1 DUP2 SLOAD ADD SWAP1 SSTORE DUP6 DUP3 MSTORE PUSH1 0x2 PUSH1 0x20 MSTORE DUP5 PUSH1 0x40 DUP4 KECCAK256 SWAP2 DUP3 SLOAD AND OR SWAP1 SSTORE DUP1 LOG4 JUMP JUMPDEST PUSH1 0x40 MLOAD PUSH3 0x461BCD PUSH1 0xE5 SHL DUP2 MSTORE PUSH1 0x20 PUSH1 0x4 DUP3 ADD MSTORE PUSH1 0x24 DUP1 DUP3 ADD MSTORE PUSH32 0x4552433732313A207472616E7366657220746F20746865207A65726F20616464 PUSH1 0x44 DUP3 ADD MSTORE PUSH4 0x72657373 PUSH1 0xE0 SHL PUSH1 0x64 DUP3 ADD MSTORE PUSH1 0x84 SWAP1 REVERT JUMPDEST SWAP2 SWAP3 PUSH1 0x0 SWAP3 SWAP1 SWAP2 SWAP1 DUP1 EXTCODESIZE ISZERO PUSH2 0x1F2C JUMPI PUSH2 0x1E64 SWAP5 PUSH1 0x40 MLOAD DUP1 SWAP3 PUSH4 0xA85BD01 PUSH1 0xE1 SHL SWAP5 DUP6 DUP4 MSTORE CALLER PUSH1 0x4 DUP5 ADD MSTORE DUP8 PUSH1 0x24 DUP5 ADD MSTORE PUSH1 0x44 DUP4 ADD MSTORE PUSH1 0x80 PUSH1 0x64 DUP4 ADD MSTORE DUP2 DUP8 DUP2 PUSH1 0x20 SWAP11 DUP12 SWAP7 PUSH1 0x84 DUP4 ADD SWAP1 PUSH2 0x182D JUMP JUMPDEST SUB SWAP3 PUSH1 0x1 PUSH1 0x1 PUSH1 0xA0 SHL SUB AND GAS CALL DUP5 SWAP2 DUP2 PUSH2 0x1EE8 JUMPI JUMPDEST POP PUSH2 0x1ED7 JUMPI POP POP POP RETURNDATASIZE PUSH1 0x0 EQ PUSH2 0x1ECF JUMPI RETURNDATASIZE PUSH2 0x1E93 DUP2 PUSH2 0x190A JUMP JUMPDEST SWAP1 PUSH2 0x1EA1 PUSH1 0x40 MLOAD SWAP3 DUP4 PUSH2 0x18E9 JUMP JUMPDEST DUP2 MSTORE DUP1 SWAP2 DUP4 RETURNDATASIZE SWAP3 ADD RETURNDATACOPY JUMPDEST DUP1 MLOAD SWAP2 DUP3 PUSH2 0x1ECC JUMPI PUSH1 0x40 MLOAD PUSH3 0x461BCD PUSH1 0xE5 SHL DUP2 MSTORE DUP1 PUSH2 0x1C34 PUSH1 0x4 DUP3 ADD PUSH2 0x1BC1 JUMP JUMPDEST ADD REVERT JUMPDEST POP PUSH1 0x60 PUSH2 0x1EAB JUMP JUMPDEST PUSH1 0x1 PUSH1 0x1 PUSH1 0xE0 SHL SUB NOT AND EQ SWAP3 POP SWAP1 POP JUMP JUMPDEST SWAP1 SWAP2 POP DUP6 DUP2 DUP2 RETURNDATASIZE DUP4 GT PUSH2 0x1F25 JUMPI JUMPDEST PUSH2 0x1F00 DUP2 DUP4 PUSH2 0x18E9 JUMP JUMPDEST DUP2 ADD SUB SLT PUSH2 0x1F21 JUMPI MLOAD PUSH1 0x1 PUSH1 0x1 PUSH1 0xE0 SHL SUB NOT DUP2 AND DUP2 SUB PUSH2 0x1F21 JUMPI SWAP1 CODESIZE PUSH2 0x1E79 JUMP JUMPDEST DUP5 DUP1 REVERT JUMPDEST POP RETURNDATASIZE PUSH2 0x1EF6 JUMP JUMPDEST POP POP SWAP2 POP POP PUSH1 0x1 SWAP1 JUMP JUMPDEST SWAP3 SWAP4 PUSH1 0x0 SWAP4 SWAP1 SWAP3 SWAP2 DUP1 EXTCODESIZE ISZERO PUSH2 0x1FB6 JUMPI SWAP5 DUP5 SWAP2 PUSH2 0x1F90 SWAP7 PUSH1 0x40 MLOAD DUP1 SWAP5 DUP2 SWAP4 PUSH4 0xA85BD01 PUSH1 0xE1 SHL SWAP8 DUP9 DUP5 MSTORE CALLER PUSH1 0x4 DUP6 ADD MSTORE PUSH1 0x1 DUP1 PUSH1 0xA0 SHL SUB DUP1 SWAP3 AND PUSH1 0x24 DUP6 ADD MSTORE PUSH1 0x44 DUP5 ADD MSTORE PUSH1 0x80 PUSH1 0x64 DUP5 ADD MSTORE DUP3 PUSH1 0x20 SWAP12 DUP13 SWAP8 PUSH1 0x84 DUP4 ADD SWAP1 PUSH2 0x182D JUMP JUMPDEST SUB SWAP4 AND GAS CALL DUP5 SWAP2 DUP2 PUSH2 0x1EE8 JUMPI POP PUSH2 0x1ED7 JUMPI POP POP POP RETURNDATASIZE PUSH1 0x0 EQ PUSH2 0x1ECF JUMPI RETURNDATASIZE PUSH2 0x1E93 DUP2 PUSH2 0x190A JUMP JUMPDEST POP POP POP SWAP2 POP POP PUSH1 0x1 SWAP1 JUMP JUMPDEST ISZERO PUSH2 0x1FC8 JUMPI JUMP JUMPDEST PUSH1 0x40 MLOAD PUSH3 0x461BCD PUSH1 0xE5 SHL DUP2 MSTORE PUSH1 0x20 PUSH1 0x4 DUP3 ADD MSTORE PUSH1 0x1C PUSH1 0x24 DUP3 ADD MSTORE PUSH32 0x4552433732313A20746F6B656E20616C7265616479206D696E74656400000000 PUSH1 0x44 DUP3 ADD MSTORE PUSH1 0x64 SWAP1 REVERT JUMPDEST SWAP1 PUSH2 0x2017 DUP3 PUSH2 0x190A JUMP JUMPDEST PUSH2 0x2024 PUSH1 0x40 MLOAD SWAP2 DUP3 PUSH2 0x18E9 JUMP JUMPDEST DUP3 DUP2 MSTORE DUP1 SWAP3 PUSH2 0x2035 PUSH1 0x1F NOT SWAP2 PUSH2 0x190A JUMP JUMPDEST ADD SWAP1 PUSH1 0x20 CALLDATASIZE SWAP2 ADD CALLDATACOPY JUMP JUMPDEST DUP1 MLOAD ISZERO PUSH2 0x2197 JUMPI PUSH1 0x40 MLOAD PUSH1 0x60 DUP2 ADD DUP2 DUP2 LT PUSH1 0x1 PUSH1 0x1 PUSH1 0x40 SHL SUB DUP3 GT OR PUSH2 0xEC9 JUMPI PUSH1 0x40 MSTORE PUSH1 0x40 DUP2 MSTORE PUSH32 0x4142434445464748494A4B4C4D4E4F505152535455565758595A616263646566 PUSH1 0x20 DUP3 ADD MSTORE PUSH32 0x6768696A6B6C6D6E6F707172737475767778797A303132333435363738392B2F PUSH1 0x40 DUP3 ADD MSTORE DUP2 MLOAD PUSH1 0x2 SWAP3 DUP4 DUP3 ADD DUP1 SWAP3 GT PUSH2 0x2181 JUMPI PUSH1 0x3 SWAP2 DUP3 SWAP1 DIV PUSH1 0x1 PUSH1 0x1 PUSH1 0xFE SHL SUB DUP2 AND DUP2 SUB PUSH2 0x2181 JUMPI PUSH2 0x20E4 SWAP1 DUP6 SWAP5 SWAP6 SHL PUSH2 0x200D JUMP JUMPDEST SWAP4 PUSH1 0x20 DUP6 ADD SWAP4 DUP3 SWAP2 DUP4 MLOAD DUP5 ADD SWAP3 JUMPDEST DUP4 DUP2 LT PUSH2 0x2130 JUMPI POP POP POP POP MLOAD MOD DUP1 PUSH1 0x1 EQ PUSH2 0x211D JUMPI PUSH1 0x2 EQ PUSH2 0x2112 JUMPI POP SWAP1 JUMP JUMPDEST PUSH1 0x3D SWAP1 PUSH1 0x0 NOT ADD MSTORE8 SWAP1 JUMP JUMPDEST POP PUSH1 0x3D SWAP1 DUP2 PUSH1 0x0 NOT DUP3 ADD MSTORE8 PUSH1 0x1 NOT ADD MSTORE8 SWAP1 JUMP JUMPDEST DUP6 PUSH1 0x4 SWAP2 SWAP8 SWAP3 SWAP4 SWAP5 SWAP8 ADD SWAP2 DUP3 MLOAD PUSH1 0x1 SWAP1 PUSH1 0x3F SWAP1 DUP3 DUP3 DUP3 PUSH1 0x12 SHR AND DUP9 ADD ADD MLOAD DUP5 MSTORE8 DUP3 DUP3 DUP3 PUSH1 0xC SHR AND DUP9 ADD ADD MLOAD DUP4 DUP6 ADD MSTORE8 DUP3 DUP3 DUP3 PUSH1 0x6 SHR AND DUP9 ADD ADD MLOAD DUP9 DUP6 ADD MSTORE8 AND DUP6 ADD ADD MLOAD DUP8 DUP3 ADD MSTORE8 ADD SWAP6 SWAP3 SWAP2 SWAP1 PUSH2 0x20F2 JUMP JUMPDEST PUSH4 0x4E487B71 PUSH1 0xE0 SHL PUSH1 0x0 MSTORE PUSH1 0x11 PUSH1 0x4 MSTORE PUSH1 0x24 PUSH1 0x0 REVERT JUMPDEST POP PUSH1 0x40 MLOAD PUSH2 0x21A4 DUP2 PUSH2 0x18CE JUMP JUMPDEST PUSH1 0x0 DUP2 MSTORE SWAP1 JUMP JUMPDEST DUP1 PUSH1 0x0 SWAP2 PUSH27 0x184F03E93FF9F4DAA797ED6E38ED64BF6A1F010000000000000000 DUP1 DUP3 LT ISZERO PUSH2 0x22E0 JUMPI JUMPDEST POP PUSH14 0x4EE2D6D415B85ACEF8100000000 DUP1 DUP4 LT ISZERO PUSH2 0x22D1 JUMPI JUMPDEST POP PUSH7 0x2386F26FC10000 DUP1 DUP4 LT ISZERO PUSH2 0x22C2 JUMPI JUMPDEST POP PUSH4 0x5F5E100 DUP1 DUP4 LT ISZERO PUSH2 0x22B3 JUMPI JUMPDEST POP PUSH2 0x2710 DUP1 DUP4 LT ISZERO PUSH2 0x22A4 JUMPI JUMPDEST POP PUSH1 0x64 DUP3 LT ISZERO PUSH2 0x2294 JUMPI JUMPDEST PUSH1 0xA DUP1 SWAP3 LT ISZERO PUSH2 0x228A JUMPI JUMPDEST PUSH1 0x1 SWAP1 DUP2 PUSH1 0x21 PUSH2 0x2242 DUP3 DUP8 ADD PUSH2 0x200D JUMP JUMPDEST SWAP6 DUP7 ADD ADD SWAP1 JUMPDEST PUSH2 0x2254 JUMPI JUMPDEST POP POP POP POP SWAP1 JUMP JUMPDEST PUSH1 0x0 NOT ADD SWAP1 DUP4 SWAP1 PUSH16 0x181899199A1A9B1B9C1CB0B131B232B3 PUSH1 0x81 SHL DUP3 DUP3 MOD BYTE DUP4 MSTORE8 DIV SWAP2 DUP3 ISZERO PUSH2 0x2285 JUMPI SWAP2 SWAP1 DUP3 PUSH2 0x2248 JUMP JUMPDEST PUSH2 0x224D JUMP JUMPDEST SWAP2 PUSH1 0x1 ADD SWAP2 PUSH2 0x2231 JUMP JUMPDEST SWAP2 SWAP1 PUSH1 0x64 PUSH1 0x2 SWAP2 DIV SWAP2 ADD SWAP2 PUSH2 0x2226 JUMP JUMPDEST PUSH1 0x4 SWAP2 SWAP4 SWAP3 DIV SWAP2 ADD SWAP2 CODESIZE PUSH2 0x221B JUMP JUMPDEST PUSH1 0x8 SWAP2 SWAP4 SWAP3 DIV SWAP2 ADD SWAP2 CODESIZE PUSH2 0x220E JUMP JUMPDEST PUSH1 0x10 SWAP2 SWAP4 SWAP3 DIV SWAP2 ADD SWAP2 CODESIZE PUSH2 0x21FF JUMP JUMPDEST PUSH1 0x20 SWAP2 SWAP4 SWAP3 DIV SWAP2 ADD SWAP2 CODESIZE PUSH2 0x21ED JUMP JUMPDEST PUSH1 0x40 SWAP4 POP DUP2 DIV SWAP2 POP CODESIZE PUSH2 0x21D4 JUMP JUMPDEST PUSH1 0x0 SWAP1 DUP2 DUP2 SLT SWAP1 DUP2 ISZERO PUSH2 0x24CB JUMPI PUSH1 0x1 PUSH1 0xFF SHL DUP2 EQ PUSH2 0x24B7 JUMPI DUP3 SUB JUMPDEST PUSH3 0x989680 SWAP1 PUSH2 0x2319 DUP3 DUP3 MOD PUSH2 0x21AB JUMP JUMPDEST SWAP2 DUP3 MLOAD SWAP5 PUSH1 0x40 SWAP5 DUP6 MLOAD PUSH2 0x232B DUP2 PUSH2 0x18CE JUMP JUMPDEST DUP3 DUP2 MSTORE SWAP7 PUSH1 0x7 DUP2 LT PUSH2 0x2422 JUMPI JUMPDEST POP ISZERO PUSH2 0x23FE JUMPI DUP5 MLOAD SWAP1 DUP6 DUP3 ADD SWAP1 DUP3 DUP3 LT PUSH1 0x1 PUSH1 0x1 PUSH1 0x40 SHL SUB DUP4 GT OR PUSH2 0x23EA JUMPI POP PUSH2 0x2381 PUSH1 0x21 SWAP6 SWAP4 DUP8 SWAP6 SWAP4 PUSH2 0x23DB SWAP4 PUSH2 0x1977 SWAP10 MSTORE PUSH1 0x1 DUP2 MSTORE PUSH1 0x2D PUSH1 0xF8 SHL PUSH1 0x20 DUP3 ADD MSTORE SWAP4 JUMPDEST DIV PUSH2 0x21AB JUMP JUMPDEST SWAP4 MLOAD SWAP7 DUP8 SWAP5 DUP4 MLOAD PUSH2 0x239A DUP2 PUSH1 0x20 SWAP7 DUP8 DUP1 DUP12 ADD SWAP2 ADD PUSH2 0x180A JUMP JUMPDEST DUP7 ADD PUSH2 0x23AE DUP3 MLOAD DUP1 SWAP4 DUP8 DUP1 DUP6 ADD SWAP2 ADD PUSH2 0x180A JUMP JUMPDEST ADD PUSH1 0x17 PUSH1 0xF9 SHL DUP5 DUP3 ADD MSTORE PUSH2 0x23CA DUP3 MLOAD DUP1 SWAP4 DUP7 DUP11 DUP6 ADD SWAP2 ADD PUSH2 0x180A JUMP JUMPDEST ADD SWAP2 DUP4 MLOAD SWAP4 DUP5 SWAP2 DUP8 DUP6 ADD SWAP2 ADD PUSH2 0x180A JUMP JUMPDEST ADD SUB PUSH1 0x1 DUP2 ADD DUP5 MSTORE ADD DUP3 PUSH2 0x18E9 JUMP JUMPDEST PUSH4 0x4E487B71 PUSH1 0xE0 SHL DUP2 MSTORE PUSH1 0x41 PUSH1 0x4 MSTORE PUSH1 0x24 SWAP1 REVERT JUMPDEST SWAP2 PUSH2 0x23DB PUSH2 0x2381 PUSH1 0x21 SWAP6 SWAP4 DUP8 SWAP6 PUSH2 0x1977 SWAP9 MLOAD SWAP1 PUSH2 0x241A DUP3 PUSH2 0x18CE JUMP JUMPDEST DUP2 MSTORE SWAP4 PUSH2 0x237B JUMP JUMPDEST SWAP6 SWAP5 SWAP3 SWAP1 DUP3 SWAP8 SWAP9 SWAP5 SWAP3 SWAP7 PUSH1 0x7 SUB PUSH1 0x7 DUP2 GT SWAP10 DUP11 JUMPDEST PUSH2 0x2492 JUMPI DUP2 PUSH1 0xFF DUP11 AND LT ISZERO PUSH2 0x24A6 JUMPI PUSH2 0x247B PUSH1 0x21 DUP10 MLOAD DUP4 PUSH1 0x3 PUSH1 0xFC SHL DUP3 SWAP6 MLOAD PUSH2 0x2467 DUP2 PUSH1 0x20 SWAP5 DUP6 DUP1 DUP9 ADD SWAP2 ADD PUSH2 0x180A JUMP JUMPDEST DUP4 ADD SWAP2 DUP3 ADD MSTORE SUB PUSH1 0x1 DUP2 ADD DUP5 MSTORE ADD DUP3 PUSH2 0x18E9 JUMP JUMPDEST SWAP8 PUSH1 0xFF DUP1 SWAP2 AND SWAP1 DUP2 EQ PUSH2 0x2492 JUMPI PUSH1 0x1 ADD SWAP8 DUP11 PUSH2 0x2436 JUMP JUMPDEST PUSH4 0x4E487B71 PUSH1 0xE0 SHL DUP11 MSTORE PUSH1 0x11 PUSH1 0x4 MSTORE PUSH1 0x24 DUP11 REVERT JUMPDEST SWAP9 SWAP4 SWAP6 SWAP10 POP POP SWAP1 SWAP3 SWAP5 SWAP6 POP CODESIZE PUSH2 0x2338 JUMP JUMPDEST PUSH4 0x4E487B71 PUSH1 0xE0 SHL DUP4 MSTORE PUSH1 0x11 PUSH1 0x4 MSTORE PUSH1 0x24 DUP4 REVERT JUMPDEST PUSH2 0x2309 JUMP INVALID LOG2 PUSH5 0x6970667358 0x22 SLT KECCAK256 GASPRICE 0xF7 RETURN MLOAD 0xBF GASLIMIT BALANCE 0xC6 0xF7 0x5C 0xB2 PUSH27 0x7A50A5D83D52193C5107BBCD73AA80FBE80162A164736F6C634300 ADDMOD GT STOP CALLER "},"methodIdentifiers":{"approve(address,uint256)":"095ea7b3","balanceOf(address)":"70a08231","getApproved(uint256)":"081812fc","getPOAPData(uint256)":"f728ff4b","getPOAPsByOwner(address)":"61875a05","hasVisitedCountry(address,string)":"99a681cf","isApprovedForAll(address,address)":"e985e9c5","mintPOAP(address,string,string,int256[2],uint256)":"9a0a672b","name()":"06fdde03","owner()":"8da5cb5b","ownerOf(uint256)":"6352211e","renounceOwnership()":"715018a6","safeTransferFrom(address,address,uint256)":"42842e0e","safeTransferFrom(address,address,uint256,bytes)":"b88d4fde","setApprovalForAll(address,bool)":"a22cb465","supportsInterface(bytes4)":"01ffc9a7","symbol()":"95d89b41","tokenURI(uint256)":"c87b56dd","transferFrom(address,address,uint256)":"23b872dd","transferOwnership(address)":"f2fde38b"}}}}}