{
  "_format": "hh-sol-artifact-1",
  "contractName": "ZKStampsPOAP",
  "sourceName": "contracts/ZKStampsPOAP.sol",
  "abi": [
    {
      "inputs": [
        {
          "internalType": "string",
          "name": "name",
          "type": "string"
        },
        {
          "internalType": "string",
          "name": "symbol",
          "type": "string"
        },
        {
          "internalType": "string",
          "name": "baseURI",
          "type": "string"
        }
      ],
      "stateMutability": "nonpayable",
      "type": "constructor"
    },
    {
      "anonymous": false,
      "inputs": [
        {
          "indexed": true,
          "internalType": "address",
          "name": "owner",
          "type": "address"
        },
        {
          "indexed": true,
          "internalType": "address",
          "name": "approved",
          "type": "address"
        },
        {
          "indexed": true,
          "internalType": "uint256",
          "name": "tokenId",
          "type": "uint256"
        }
      ],
      "name": "Approval",
      "type": "event"
    },
    {
      "anonymous": false,
      "inputs": [
        {
          "indexed": true,
          "internalType": "address",
          "name": "owner",
          "type": "address"
        },
        {
          "indexed": true,
          "internalType": "address",
          "name": "operator",
          "type": "address"
        },
        {
          "indexed": false,
          "internalType": "bool",
          "name": "approved",
          "type": "bool"
        }
      ],
      "name": "ApprovalForAll",
      "type": "event"
    },
    {
      "anonymous": false,
      "inputs": [
        {
          "indexed": true,
          "internalType": "address",
          "name": "previousOwner",
          "type": "address"
        },
        {
          "indexed": true,
          "internalType": "address",
          "name": "newOwner",
          "type": "address"
        }
      ],
      "name": "OwnershipTransferred",
      "type": "event"
    },
    {
      "anonymous": false,
      "inputs": [
        {
          "indexed": true,
          "internalType": "address",
          "name": "to",
          "type": "address"
        },
        {
          "indexed": true,
          "internalType": "uint256",
          "name": "tokenId",
          "type": "uint256"
        },
        {
          "indexed": false,
          "internalType": "string",
          "name": "countryCode",
          "type": "string"
        },
        {
          "indexed": false,
          "internalType": "string",
          "name": "countryName",
          "type": "string"
        },
        {
          "indexed": false,
          "internalType": "string",
          "name": "coordinates",
          "type": "string"
        }
      ],
      "name": "POAPMinted",
      "type": "event"
    },
    {
      "anonymous": false,
      "inputs": [
        {
          "indexed": true,
          "internalType": "address",
          "name": "from",
          "type": "address"
        },
        {
          "indexed": true,
          "internalType": "address",
          "name": "to",
          "type": "address"
        },
        {
          "indexed": true,
          "internalType": "uint256",
          "name": "tokenId",
          "type": "uint256"
        }
      ],
      "name": "Transfer",
      "type": "event"
    },
    {
      "inputs": [
        {
          "internalType": "address",
          "name": "to",
          "type": "address"
        },
        {
          "internalType": "string",
          "name": "countryCode",
          "type": "string"
        },
        {
          "internalType": "string",
          "name": "countryName",
          "type": "string"
        },
        {
          "internalType": "string",
          "name": "coordinates",
          "type": "string"
        }
      ],
      "name": "adminMintPOAP",
      "outputs": [
        {
          "internalType": "uint256",
          "name": "",
          "type": "uint256"
        }
      ],
      "stateMutability": "nonpayable",
      "type": "function"
    },
    {
      "inputs": [
        {
          "internalType": "address",
          "name": "to",
          "type": "address"
        },
        {
          "internalType": "uint256",
          "name": "tokenId",
          "type": "uint256"
        }
      ],
      "name": "approve",
      "outputs": [],
      "stateMutability": "nonpayable",
      "type": "function"
    },
    {
      "inputs": [
        {
          "internalType": "address",
          "name": "owner",
          "type": "address"
        }
      ],
      "name": "balanceOf",
      "outputs": [
        {
          "internalType": "uint256",
          "name": "",
          "type": "uint256"
        }
      ],
      "stateMutability": "view",
      "type": "function"
    },
    {
      "inputs": [],
      "name": "getAllCountries",
      "outputs": [
        {
          "internalType": "string[]",
          "name": "",
          "type": "string[]"
        }
      ],
      "stateMutability": "view",
      "type": "function"
    },
    {
      "inputs": [
        {
          "internalType": "uint256",
          "name": "tokenId",
          "type": "uint256"
        }
      ],
      "name": "getApproved",
      "outputs": [
        {
          "internalType": "address",
          "name": "",
          "type": "address"
        }
      ],
      "stateMutability": "view",
      "type": "function"
    },
    {
      "inputs": [
        {
          "internalType": "address",
          "name": "user",
          "type": "address"
        }
      ],
      "name": "getCountriesVisitedByUser",
      "outputs": [
        {
          "internalType": "string[]",
          "name": "",
          "type": "string[]"
        }
      ],
      "stateMutability": "view",
      "type": "function"
    },
    {
      "inputs": [
        {
          "internalType": "uint256",
          "name": "tokenId",
          "type": "uint256"
        }
      ],
      "name": "getPOAPData",
      "outputs": [
        {
          "internalType": "string",
          "name": "countryCode",
          "type": "string"
        },
        {
          "internalType": "string",
          "name": "countryName",
          "type": "string"
        },
        {
          "internalType": "string",
          "name": "coordinates",
          "type": "string"
        },
        {
          "internalType": "uint256",
          "name": "timestamp",
          "type": "uint256"
        },
        {
          "internalType": "address",
          "name": "minter",
          "type": "address"
        }
      ],
      "stateMutability": "view",
      "type": "function"
    },
    {
      "inputs": [
        {
          "internalType": "address",
          "name": "owner",
          "type": "address"
        },
        {
          "internalType": "string",
          "name": "countryCode",
          "type": "string"
        }
      ],
      "name": "hasVisitedCountry",
      "outputs": [
        {
          "internalType": "bool",
          "name": "",
          "type": "bool"
        }
      ],
      "stateMutability": "view",
      "type": "function"
    },
    {
      "inputs": [
        {
          "internalType": "address",
          "name": "owner",
          "type": "address"
        },
        {
          "internalType": "address",
          "name": "operator",
          "type": "address"
        }
      ],
      "name": "isApprovedForAll",
      "outputs": [
        {
          "internalType": "bool",
          "name": "",
          "type": "bool"
        }
      ],
      "stateMutability": "view",
      "type": "function"
    },
    {
      "inputs": [
        {
          "internalType": "string",
          "name": "countryCode",
          "type": "string"
        },
        {
          "internalType": "string",
          "name": "countryName",
          "type": "string"
        },
        {
          "internalType": "string",
          "name": "coordinates",
          "type": "string"
        }
      ],
      "name": "mintPOAP",
      "outputs": [
        {
          "internalType": "uint256",
          "name": "",
          "type": "uint256"
        }
      ],
      "stateMutability": "nonpayable",
      "type": "function"
    },
    {
      "inputs": [],
      "name": "name",
      "outputs": [
        {
          "internalType": "string",
          "name": "",
          "type": "string"
        }
      ],
      "stateMutability": "view",
      "type": "function"
    },
    {
      "inputs": [],
      "name": "owner",
      "outputs": [
        {
          "internalType": "address",
          "name": "",
          "type": "address"
        }
      ],
      "stateMutability": "view",
      "type": "function"
    },
    {
      "inputs": [
        {
          "internalType": "uint256",
          "name": "tokenId",
          "type": "uint256"
        }
      ],
      "name": "ownerOf",
      "outputs": [
        {
          "internalType": "address",
          "name": "",
          "type": "address"
        }
      ],
      "stateMutability": "view",
      "type": "function"
    },
    {
      "inputs": [],
      "name": "renounceOwnership",
      "outputs": [],
      "stateMutability": "nonpayable",
      "type": "function"
    },
    {
      "inputs": [
        {
          "internalType": "address",
          "name": "from",
          "type": "address"
        },
        {
          "internalType": "address",
          "name": "to",
          "type": "address"
        },
        {
          "internalType": "uint256",
          "name": "tokenId",
          "type": "uint256"
        }
      ],
      "name": "safeTransferFrom",
      "outputs": [],
      "stateMutability": "nonpayable",
      "type": "function"
    },
    {
      "inputs": [
        {
          "internalType": "address",
          "name": "from",
          "type": "address"
        },
        {
          "internalType": "address",
          "name": "to",
          "type": "address"
        },
        {
          "internalType": "uint256",
          "name": "tokenId",
          "type": "uint256"
        },
        {
          "internalType": "bytes",
          "name": "data",
          "type": "bytes"
        }
      ],
      "name": "safeTransferFrom",
      "outputs": [],
      "stateMutability": "nonpayable",
      "type": "function"
    },
    {
      "inputs": [
        {
          "internalType": "address",
          "name": "operator",
          "type": "address"
        },
        {
          "internalType": "bool",
          "name": "approved",
          "type": "bool"
        }
      ],
      "name": "setApprovalForAll",
      "outputs": [],
      "stateMutability": "nonpayable",
      "type": "function"
    },
    {
      "inputs": [
        {
          "internalType": "string",
          "name": "baseURI",
          "type": "string"
        }
      ],
      "name": "setBaseURI",
      "outputs": [],
      "stateMutability": "nonpayable",
      "type": "function"
    },
    {
      "inputs": [
        {
          "internalType": "bytes4",
          "name": "interfaceId",
          "type": "bytes4"
        }
      ],
      "name": "supportsInterface",
      "outputs": [
        {
          "internalType": "bool",
          "name": "",
          "type": "bool"
        }
      ],
      "stateMutability": "view",
      "type": "function"
    },
    {
      "inputs": [],
      "name": "symbol",
      "outputs": [
        {
          "internalType": "string",
          "name": "",
          "type": "string"
        }
      ],
      "stateMutability": "view",
      "type": "function"
    },
    {
      "inputs": [
        {
          "internalType": "uint256",
          "name": "index",
          "type": "uint256"
        }
      ],
      "name": "tokenByIndex",
      "outputs": [
        {
          "internalType": "uint256",
          "name": "",
          "type": "uint256"
        }
      ],
      "stateMutability": "view",
      "type": "function"
    },
    {
      "inputs": [
        {
          "internalType": "address",
          "name": "owner",
          "type": "address"
        },
        {
          "internalType": "uint256",
          "name": "index",
          "type": "uint256"
        }
      ],
      "name": "tokenOfOwnerByIndex",
      "outputs": [
        {
          "internalType": "uint256",
          "name": "",
          "type": "uint256"
        }
      ],
      "stateMutability": "view",
      "type": "function"
    },
    {
      "inputs": [
        {
          "internalType": "uint256",
          "name": "tokenId",
          "type": "uint256"
        }
      ],
      "name": "tokenURI",
      "outputs": [
        {
          "internalType": "string",
          "name": "",
          "type": "string"
        }
      ],
      "stateMutability": "view",
      "type": "function"
    },
    {
      "inputs": [],
      "name": "totalSupply",
      "outputs": [
        {
          "internalType": "uint256",
          "name": "",
          "type": "uint256"
        }
      ],
      "stateMutability": "view",
      "type": "function"
    },
    {
      "inputs": [
        {
          "internalType": "address",
          "name": "from",
          "type": "address"
        },
        {
          "internalType": "address",
          "name": "to",
          "type": "address"
        },
        {
          "internalType": "uint256",
          "name": "tokenId",
          "type": "uint256"
        }
      ],
      "name": "transferFrom",
      "outputs": [],
      "stateMutability": "nonpayable",
      "type": "function"
    },
    {
      "inputs": [
        {
          "internalType": "address",
          "name": "newOwner",
          "type": "address"
        }
      ],
      "name": "transferOwnership",
      "outputs": [],
      "stateMutability": "nonpayable",
      "type": "function"
    }
  ],
  "bytecode": "0x608060405234620004bc5762002958803803806200001d81620004c1565b9283398101606082820312620004bc5781516001600160401b039190828111620004bc57816200004f918501620004e7565b9060209384810151848111620004bc57826200006d918301620004e7565b916040820151858111620004bc57620000879201620004e7565b825191848311620004a6576000908154936001958686811c961680156200049b575b89871014620003a5578190601f9687811162000448575b508990878311600114620003e4578592620003d8575b5050600019600383901b1c191690861b1782555b805190868211620003c45785548681811c91168015620003b9575b89821014620003a55790818684931162000352575b508890868311600114620002ee578492620002e2575b5050600019600383901b1c191690851b1784555b600a8054336001600160a01b0319821681179092556001600160a01b03167f8be0079c531659141344cd1fd0a4f28419497f9722a3daafe3b4186f6b6457e08380a38151948511620002ce57600b548481811c91168015620002c3575b87821014620002af5783811162000266575b5085928511600114620001fd579394508492919083620001f1575b50501b916000199060031b1c191617600b555b6040516123fe90816200055a8239f35b015192503880620001ce565b600b815285812093958591601f198316915b888383106200024b575050501062000231575b505050811b01600b55620001e1565b015160001960f88460031b161c1916905538808062000222565b8587015188559096019594850194879350908101906200020f565b600b82528682208480880160051c820192898910620002a5575b0160051c019085905b82811062000299575050620001b3565b83815501859062000289565b9250819262000280565b634e487b7160e01b82526022600452602482fd5b90607f1690620001a1565b634e487b7160e01b81526041600452602490fd5b01519050388062000130565b8785528985208894509190601f198416865b8c8282106200033b575050841162000321575b505050811b01845562000144565b015160001960f88460031b161c1916905538808062000313565b8385015186558b9790950194938401930162000300565b9091508684528884208680850160051c8201928b86106200039b575b918991869594930160051c01915b8281106200038c5750506200011a565b8681558594508991016200037c565b925081926200036e565b634e487b7160e01b84526022600452602484fd5b90607f169062000105565b634e487b7160e01b83526041600452602483fd5b015190503880620000d6565b8580528a86208994509190601f198416875b8d82821062000431575050841162000417575b505050811b018255620000ea565b015160001960f88460031b161c1916905538808062000409565b8385015186558c97909501949384019301620003f6565b9091508480528985208780850160051c8201928c861062000491575b918a91869594930160051c01915b82811062000482575050620000c0565b8781558594508a910162000472565b9250819262000464565b95607f1695620000a9565b634e487b7160e01b600052604160045260246000fd5b600080fd5b6040519190601f01601f191682016001600160401b03811183821017620004a657604052565b919080601f84011215620004bc5782516001600160401b038111620004a6576020906200051d601f8201601f19168301620004c1565b92818452828287010111620004bc5760005b8181106200054557508260009394955001015290565b85810183015184820184015282016200052f56fe60806040908082526004908136101561001757600080fd5b600090813560e01c90816301ffc9a7146115225750806306fdde031461147a578063081812fc14611459578063095ea7b3146112ea5780630d4bf50d14611261578063170c788d1461109557806318160ddd146110765780631ae1a47914610f3057806323b872dd14610f065780632f745c5914610e5957806342842e0e14610e0b5780634f6ccce714610d7957806355f804b314610bea5780636352211e14610bb857806370a0823114610b8b578063715018a614610b2e5780638da5cb5b14610b0557806395d89b4114610a2257806399a681cf146109ba578063a22cb465146108ef578063b88d4fde1461088b578063c87b56dd14610596578063de9aeb311461039b578063e985e9c514610349578063f2fde38b1461027d5763f728ff4b1461014357600080fd5b3461027a57602036600319011261027a5781356000818152600260205260409020546001600160a01b0316156102255792816101fb9482949352600c602052209161021681519161019383611683565b61019c856118f5565b83526101aa600186016118f5565b94602084019586526102096101c1600283016118f5565b91828487015260038101549687606088015260018060a01b039101541694856080820152519651835198899860a08a5260a08a01906115cb565b9088820360208a01526115cb565b91868303908701526115cb565b91606084015260808301520390f35b835162461bcd60e51b8152602081850152602960248201527f5a4b5374616d7073504f41503a20517565727920666f72206e6f6e657869737460448201526832b73a103a37b5b2b760b91b6064820152608490fd5b80fd5b50919034610345576020366003190112610345576102996115f0565b906102a261177d565b6001600160a01b039182169283156102f3575050600a54826001600160601b0360a01b821617600a55167f8be0079c531659141344cd1fd0a4f28419497f9722a3daafe3b4186f6b6457e08380a380f35b906020608492519162461bcd60e51b8352820152602660248201527f4f776e61626c653a206e6577206f776e657220697320746865207a65726f206160448201526564647265737360d01b6064820152fd5b8280fd5b50823461039757806003193601126103975760ff816020936103696115f0565b61037161160b565b6001600160a01b0391821683526005875283832091168252855220549151911615158152f35b5080fd5b508234610397576080366003190112610397576103b66115f0565b9267ffffffffffffffff602435818111610592576103d7903690840161172a565b60443582811161058e576103ee903690850161172a565b9160643590811161058e57610406903690850161172a565b61040e61177d565b600854956001870180971161057b57918694929186869593610430878c61226b565b815161043b81611683565b84815260209b8c978883019288845285810187815260608201904282526080830195600160a01b600190038096169d8e88528852600c8d5288882093516104829085611fa0565b516104909060018501611fa0565b5161049e9060028401611fa0565b516003820155019151166001600160601b0360a01b825416179055868152600d8652206104cb90836120b0565b9060ff19918281541660011790558751918351928681818701956104f08183896115a8565b8101600f8152030190205460ff161595610539937fbfea28971e5b14dc726e61c1e9f2313cac35e2310466883d141839096037037a97610542575b5050508751938493846121e8565b0390a351908152f35b60019161056291610552886121a3565b8c51809381928a519283916115a8565b8101600f815203019020918254161790558a8a8161052b565b634e487b7160e01b815260118552602490fd5b8580fd5b8480fd5b509034610397576020918260031936011261027a5781356000818152600260205260409020546105d0906001600160a01b0316151561184c565b8451928291600b546105e1816118bb565b80875286888101956001938a8582169182600014610870575050600114610815575b61060f925003876116b5565b8551156107d2578694938893909291829186907a184f03e93ff9f4daa797ed6e38ed64bf6a1f01000000000000000084818110156107c5575b5050886d04ee2d6d415b85acef8100000000808710156107b6575b5050662386f26fc10000808610156107a7575b506305f5e10080861015610798575b506127108086101561078c575b5050606484101561077e575b60219082600a80961015610777575b939291906106d48382016106cc6106c3826116d7565b9a519a8b6116b5565b808a526116d7565b888b019990601f1901368b3750870101905b610741575b505050509361072c92610711949261072061073d978a51978895518092888801906115a8565b840191518093868401906115a8565b010380845201826116b5565b925b519282849384528301906115cb565b0390f35b600019019083906f181899199a1a9b1b9c1cb0b131b232b360811b8282061a835304918215610772579190826106e6565b6106eb565b01826106ad565b60649093049260020161069e565b90940493013880610692565b60089192950494019038610685565b60109192950494019038610676565b90919295049401908838610663565b0494508691503880610648565b5050949392505082519082820182811067ffffffffffffffff821117610802578452815292509061073d9061072e565b634e487b7160e01b825260418652602482fd5b5050600b8652868887847f0175b7a638427703f0dbe7bb9bbf987a2551717b34e79f33b5b1008d1fa01db95b85831061085757505061060f9350820101610603565b80919294505483858d0101520191018990848a93610841565b60ff1916895261060f94151560051b84010191506106039050565b509034610397576080366003190112610397576108a66115f0565b6108ae61160b565b9060643567ffffffffffffffff81116105925736602382011215610592576108ec938160246108e2933693013591016116f3565b9160443591611a3b565b80f35b5091346103455780600319360112610345576109096115f0565b9060243591821515809303610592576001600160a01b0316923384146109785750338452600560205280842083855260205280842060ff1981541660ff8416179055519081527f17307eab39ab6107e8899845ad3d59bd9653f200f220920489ca2b5937696c3160203392a380f35b6020606492519162461bcd60e51b8352820152601960248201527f4552433732313a20617070726f766520746f2063616c6c6572000000000000006044820152fd5b509190346103455781600319360112610345576109d56115f0565b9060243567ffffffffffffffff81116105925791836020956109ff610a179460ff9636910161172a565b6001600160a01b039093168152600d875220906120b0565b541690519015158152f35b508234610397578160031936011261039757805190826001805491610a46836118bb565b80865292828116908115610add5750600114610a81575b505050610a6f8261073d9403836116b5565b519182916020835260208301906115cb565b94508085527fb10e2d527612073b26eecdfd717e6a320cf44b4afac2b0732d9fcbe2b7fa0cf65b828610610ac557505050610a6f82602061073d9582010194610a5d565b80546020878701810191909152909501948101610aa8565b61073d975086935060209250610a6f94915060ff191682840152151560051b82010194610a5d565b508234610397578160031936011261039757600a5490516001600160a01b039091168152602090f35b503461027a578060031936011261027a57610b4761177d565b600a80546001600160a01b0319811690915581906001600160a01b03167f8be0079c531659141344cd1fd0a4f28419497f9722a3daafe3b4186f6b6457e08280a380f35b50823461039757602036600319011261039757602090610bb1610bac6115f0565b6117d5565b9051908152f35b5082903461027a57602036600319011261027a5750610bd960209235611898565b90516001600160a01b039091168152f35b503461027a576020806003193601126103975767ffffffffffffffff908335828111610d7557610c1d903690860161172a565b93610c2661177d565b8451928311610d625750610c3b600b546118bb565b601f8111610d00575b5080601f8311600114610c7f57508293829392610c74575b50508160011b916000199060031b1c191617600b5580f35b015190508380610c5c565b600b8452601f198316947f0175b7a638427703f0dbe7bb9bbf987a2551717b34e79f33b5b1008d1fa01db9929185905b878210610ce8575050836001959610610ccf575b505050811b01600b5580f35b015160001960f88460031b161c19169055838080610cc3565b80600185968294968601518155019501930190610caf565b600b84527f0175b7a638427703f0dbe7bb9bbf987a2551717b34e79f33b5b1008d1fa01db9601f840160051c810191838510610d58575b601f0160051c01905b818110610d4d5750610c44565b848155600101610d40565b9091508190610d37565b634e487b7160e01b845260419052602483fd5b8380fd5b503461027a57602036600319011261027a5750803590600854821015610db357602083610da584611f69565b91905490519160031b1c8152f35b608490602084519162461bcd60e51b8352820152602c60248201527f455243373231456e756d657261626c653a20676c6f62616c20696e646578206f60448201526b7574206f6620626f756e647360a01b6064820152fd5b50823461039757610e1b36611748565b91835193602085019085821067ffffffffffffffff831117610e46576108ec96975052858452611a3b565b634e487b7160e01b875260418852602487fd5b5082903461027a578160031936011261027a57610e746115f0565b60243590610e81816117d5565b821015610eaf576001600160a01b031682526006602090815283832091835290815290829020548251908152f35b835162461bcd60e51b8152602081870152602b60248201527f455243373231456e756d657261626c653a206f776e657220696e646578206f7560448201526a74206f6620626f756e647360a81b6064820152608490fd5b503461027a576108ec610f1836611748565b91610f2b610f268433611ad6565b6119d9565b611b9e565b83823461027a576020918260031936011261039757610f4d6115f0565b600e54936001600160a01b03909116908390815b8681106110345750610f7285612177565b94610f7f855196876116b5565b808652610f8e601f1991612177565b0181835b828110611024575050508192825b878110610fb45785518061073d8982611621565b818452600d835260ff610fd2878620610fcc84611f1c565b506120e5565b5416610fe7575b610fe2906120d6565b610fa0565b9361101c610fe291611001610ffb88611f1c565b506118f5565b61100b828b61218f565b52611016818a61218f565b506120d6565b949050610fd9565b606082828a010152018290610f92565b838352600d825260ff61104c868520610fcc84611f1c565b5416611061575b61105c906120d6565b610f61565b9461106e61105c916120d6565b959050611053565b5082346103975781600319360112610397576020906008549051908152f35b5082346103975760603660031901126103975767ffffffffffffffff8335818111610d75576110c7903690860161172a565b90602435818111610592576110df903690870161172a565b90604435908111610592576110f7903690870161172a565b90600854946001860180961161124e57917fbfea28971e5b14dc726e61c1e9f2313cac35e2310466883d141839096037037a916111ca8688969561113b883361226b565b8782519b6111488d611683565b888d5260209c8d61119981830189815261118f888501918c8352600c60608701954287526080880199338b528b52526111858a8a20965187611fa0565b5160018601611fa0565b5160028401611fa0565b516003820155019060018060a01b039051166001600160601b0360a01b825416179055338152600d8b5220856120b0565b60ff199060018282541617905588875160ff8751918381818b01946111f08183886115a8565b8101600f815203019020541615611215575b50505061053986519283923396846121e8565b60019161123591611225896121a3565b8a51809381928b519283916115a8565b8101600f81520301902091825416179055888881611202565b634e487b7160e01b815260118752602490fd5b83823461027a578060031936011261027a57600e5461127f81612177565b9161128c845193846116b5565b818352600e815260207fbb7b4a454dc3493923482f07822329ed19e8244eff582cc204f8554c3620c3fd8185015b8484106112ce5786518061073d8882611621565b60018381926112dc856118f5565b8152019201930192906112ba565b509190346103455781600319360112610345576113056115f0565b6024359290916001600160a01b039190828061132087611898565b1694169380851461140c578033149081156113ed575b501561138557848652602052842080546001600160a01b0319168317905561135d83611898565b167f8c5be1e5ebec7d5bd14f71427d1e84f3dd0314c0f7b2291e5b200ac8c7c3b9258480a480f35b6020608492519162461bcd60e51b8352820152603d60248201527f4552433732313a20617070726f76652063616c6c6572206973206e6f7420746f60448201527f6b656e206f776e6572206f7220617070726f76656420666f7220616c6c0000006064820152fd5b90508652600560205281862033875260205260ff828720541638611336565b506020608492519162461bcd60e51b8352820152602160248201527f4552433732313a20617070726f76616c20746f2063757272656e74206f776e656044820152603960f91b6064820152fd5b5082903461027a57602036600319011261027a5750610bd96020923561199b565b50823461039757816003193601126103975780519082805461149b816118bb565b80855291600191808316908115610add57506001146114c657505050610a6f8261073d9403836116b5565b80809650527f290decd9548b62a8d60345a988386fc84ba6bc95484008f6362f93160ef3e5635b82861061150a57505050610a6f82602061073d9582010194610a5d565b805460208787018101919091529095019481016114ed565b90508234610345576020366003190112610345573563ffffffff60e01b8116809103610345576020925063780e9d6360e01b8114908115611565575b5015158152f35b6380ac58cd60e01b811491508115611597575b8115611586575b508361155e565b6301ffc9a760e01b1490508361157f565b635b5e139f60e01b81149150611578565b60005b8381106115bb5750506000910152565b81810151838201526020016115ab565b906020916115e4815180928185528580860191016115a8565b601f01601f1916010190565b600435906001600160a01b038216820361160657565b600080fd5b602435906001600160a01b038216820361160657565b602080820190808352835180925260408301928160408460051b8301019501936000915b8483106116555750505050505090565b9091929394958480611673600193603f198682030187528a516115cb565b9801930193019194939290611645565b60a0810190811067ffffffffffffffff82111761169f57604052565b634e487b7160e01b600052604160045260246000fd5b90601f8019910116810190811067ffffffffffffffff82111761169f57604052565b67ffffffffffffffff811161169f57601f01601f191660200190565b9291926116ff826116d7565b9161170d60405193846116b5565b829481845281830111611606578281602093846000960137010152565b9080601f8301121561160657816020611745933591016116f3565b90565b6060906003190112611606576001600160a01b0390600435828116810361160657916024359081168103611606579060443590565b600a546001600160a01b0316330361179157565b606460405162461bcd60e51b815260206004820152602060248201527f4f776e61626c653a2063616c6c6572206973206e6f7420746865206f776e65726044820152fd5b6001600160a01b031680156117f557600052600360205260406000205490565b60405162461bcd60e51b815260206004820152602960248201527f4552433732313a2061646472657373207a65726f206973206e6f7420612076616044820152683634b21037bbb732b960b91b6064820152608490fd5b1561185357565b60405162461bcd60e51b815260206004820152601860248201527f4552433732313a20696e76616c696420746f6b656e20494400000000000000006044820152606490fd5b6000908152600260205260409020546001600160a01b031661174581151561184c565b90600182811c921680156118eb575b60208310146118d557565b634e487b7160e01b600052602260045260246000fd5b91607f16916118ca565b9060405191826000825492611909846118bb565b9081845260019485811690816000146119785750600114611935575b5050611933925003836116b5565b565b9093915060005260209081600020936000915b81831061196057505061193393508201013880611925565b85548884018501529485019487945091830191611948565b91505061193394506020925060ff191682840152151560051b8201013880611925565b6000818152600260205260409020546119be906001600160a01b0316151561184c565b6000908152600460205260409020546001600160a01b031690565b156119e057565b60405162461bcd60e51b815260206004820152602d60248201527f4552433732313a2063616c6c6572206973206e6f7420746f6b656e206f776e6560448201526c1c881bdc88185c1c1c9bdd9959609a1b6064820152608490fd5b90611a5f939291611a4f610f268433611ad6565b611a5a838383611b9e565b611dfb565b15611a6657565b60405162461bcd60e51b815280611a7f60048201611a83565b0390fd5b60809060208152603260208201527f4552433732313a207472616e7366657220746f206e6f6e20455243373231526560408201527131b2b4bb32b91034b6b83632b6b2b73a32b960711b60608201520190565b906001600160a01b038080611aea84611898565b16931691838314938415611b1d575b508315611b07575b50505090565b611b139192935061199b565b1614388080611b01565b909350600052600560205260406000208260005260205260ff604060002054169238611af9565b15611b4b57565b60405162461bcd60e51b815260206004820152602560248201527f4552433732313a207472616e736665722066726f6d20696e636f72726563742060448201526437bbb732b960d91b6064820152608490fd5b611bc291611bab84611898565b6001600160a01b0393848416939185168414611b44565b838216938415611daa57839182611cf1575090506008549085600052600960205281604060002055600160401b82101561169f57611c4392611c2a87611c0f856001899701600855611f69565b90919082549060031b600019811b9283911b16911916179055565b828603611cbe575b50611c3c86611898565b1614611b44565b7fddf252ad1be2c89b69c2b068fc378daa952ba7f163c4a11628f55a4df523b3ef60008481526004602052604081206001600160601b0360a01b9081815416905583825260036020526040822060001981540190558482526040822060018154019055858252600260205284604083209182541617905580a4565b611cc7906117d5565b60406000878152600660205281812083825260205288828220558881526007602052205538611c32565b858303611d03575b50611c4392611c2a565b611d0e9192506117d5565b600019810191908211611d9457611c439284926000908882526020906007825260409182842054828103611d5d575b508a84528383812055868452600681528284209184525281205592611cf9565b8785526006825283852083865282528385205488865260068352848620828752835280858720558552600782528385205538611d3d565b634e487b7160e01b600052601160045260246000fd5b60405162461bcd60e51b8152602060048201526024808201527f4552433732313a207472616e7366657220746f20746865207a65726f206164646044820152637265737360e01b6064820152608490fd5b9293600093909291803b15611f1157948491611e559660405180948193630a85bd0160e11b9788845233600485015260018060a01b0380921660248501526044840152608060648401528260209b8c9760848301906115cb565b0393165af1849181611ed1575b50611ec0575050503d600014611eb8573d611e7c816116d7565b90611e8a60405192836116b5565b81528091833d92013e5b80519182611eb55760405162461bcd60e51b815280611a7f60048201611a83565b01fd5b506060611e94565b6001600160e01b0319161492509050565b9091508581813d8311611f0a575b611ee981836116b5565b8101031261059257516001600160e01b031981168103610592579038611e62565b503d611edf565b505050915050600190565b600e54811015611f5357600e6000527fbb7b4a454dc3493923482f07822329ed19e8244eff582cc204f8554c3620c3fd0190600090565b634e487b7160e01b600052603260045260246000fd5b600854811015611f535760086000527ff3f7a9fe364faab93b216da50a3214154f22a0a2b415b23a84c8169e8b636ee30190600090565b919091825167ffffffffffffffff811161169f57611fbe82546118bb565b601f8111612068575b50602080601f8311600114612004575081929394600092611ff9575b50508160011b916000199060031b1c1916179055565b015190503880611fe3565b90601f198316958460005282600020926000905b88821061205057505083600195969710612037575b505050811b019055565b015160001960f88460031b161c1916905538808061202d565b80600185968294968601518155019501930190612018565b600083815260208120601f840160051c810192602085106120a6575b601f0160051c01915b82811061209b575050611fc7565b81815560010161208d565b9092508290612084565b6020906120ca9282604051948386809551938492016115a8565b82019081520301902090565b6000198114611d945760010190565b90604051809260009080546120f9816118bb565b9160019180831690811561215d575060011461211f575b50505060209281520301902090565b60009081526020808220969450915b8382106121475750505060209350820190923880612110565b865488830152958601958795509082019061212e565b60ff19168652505050801515028201905060203880612110565b67ffffffffffffffff811161169f5760051b60200190565b8051821015611f535760209160051b010190565b600e54600160401b81101561169f578060016121c29201600e55611f1c565b9190916121d25761193391611fa0565b634e487b7160e01b600052600060045260246000fd5b916122119061220361174595936060865260608601906115cb565b9084820360208601526115cb565b9160408184039101526115cb565b1561222657565b60405162461bcd60e51b815260206004820152601c60248201527f4552433732313a20746f6b656e20616c7265616479206d696e746564000000006044820152606490fd5b6001600160a01b038116908115612384576000838152600260205260409020546122a1906001600160a01b031615155b1561221f565b600854600091848352602090600982526040928084862055600160401b8110156123705760029291610bac88611c0f8460016122e09601600855611f69565b8585526006825283852081865282528385208790558685526007825283852055600086815260026020526040902054612323906001600160a01b0316151561229b565b848452600381528284208054600101905585845252812080546001600160a01b031916831790557fddf252ad1be2c89b69c2b068fc378daa952ba7f163c4a11628f55a4df523b3ef8180a4565b634e487b7160e01b85526041600452602485fd5b606460405162461bcd60e51b815260206004820152602060248201527f4552433732313a206d696e7420746f20746865207a65726f20616464726573736044820152fdfea2646970667358221220b2bb6533f02c586e9d0e70477b99644d895dbfe3ab867dfc0121776d6d79794c64736f6c63430008110033",
  "linkReferences": {},
  "deployedLinkReferences": {}
}